:020000040800F2
:10000000A87700203D670008B5620008B7620008C5
:10001000B9620008BB620008BD6200080000000071
:10002000000000000000000000000000D1150008E2
:10003000BF620008000000007915000805110008E3
:100040009D670008A1670008A5670008A967000868
:10005000AD670008B1670008B5670008B967000818
:10006000BD670008C1670008C5670008C9670008C8
:10007000CD670008D1670008D5670008D967000878
:10008000DD670008E1670008E5670008E967000828
:10009000ED670008F1670008F5670008F9670008D8
:1000A000FD67000801680008056800080968000885
:1000B0000D68000811680008156800081968000834
:1000C0001D680008216800082568000829680008E4
:1000D0002D68000831680008C16200083568000812
:1000E000396800083D680008416800084568000854
:1000F000496800084D680008516800085568000804
:100100000000000000000000000000005968000826
:100110005D68000861680008116300084963000811
:100120005363000865680008696800086D68000886
:1001300071680008756800080000000000000000F9
:10014000796800087D6800088168000800000000E8
:10015000000000000000000000000000000000009F
:1001600000000000000000008568000889680008A1
:100170008D68000800000000000000000000000082
:10018000000000009168000878B585B005000B9864
:10019000002807D1502080F31188BFF34F8FBFF3A1
:1001A0006F8FFEE70C9C002C07D1502080F3118844
:1001B000BFF34F8FBFF36F8FFEE754260096009E6C
:1001C000542E07D0502080F31188BFF34F8FBFF318
:1001D0006F8FFEE7002C13D0002811D0206302207F
:1001E00084F8510000200390029404A801900A981A
:1001F0000090280000F042F8200000F094F801E0A0
:1002000000200490049806B070BD2DE9F84384B036
:100210000700884616009946300080B2800000F042
:1002200035FD0500002D0BD0542000F02FFD0400FB
:10023000002C01D0256304E0280000F0B1FD00E0AF
:100240000024002C15D0002084F8510000200390D9
:1002500002940D9801900C9800904B46B6B2320073
:100260004146380000F00AF8200000F05CF8012058
:1002700001E05FF0FF3005B0BDE8F0832DE9F84301
:1002800005001E000A9F386B00EB8200B0F10408E5
:100290005FEAD8085FEAC80818F00700002807D00E
:1002A000502080F31188BFF34F8FBFF36F8FFEE7AD
:1002B000002200E0521C102A07D2885C07EB0203E0
:1002C00083F83400885C0028F4D1DDF82090002009
:1002D00087F84300B9F1070F01D35FF00609099CC5
:1002E000C7F82C90C7F844900020B864381D00F07F
:1002F0000CFE17F1180000F008FE3F61D9F1070964
:10030000C7F818907F620020F864002087F850003A
:1003100032002900404600F035FE3860002C00D045
:100320002760BDE8F18338B5040000F0BBFEDFF8BC
:1003300008150868401C0860DFF800552868002888
:1003400006D12C60086801280DD100F091FA0AE06E
:10035000DFF810050068002805D1E06A2968C96A3D
:10036000884200D32C60DFF800050168491C016059
:10037000DFF8F8140A680123E06A83401A430A6030
:10038000211DDFF83C25E36A1420434302EB030000
:1003900000F0BEFD00F0A0FEDFF8C80400680028F1
:1003A0000DD02868C06AE16A884208D25FF08050A8
:1003B000DFF880160860BFF34F8FBFF36F8F31BD3A
:1003C00010B504000020002C14D0DFF8A40500684C
:1003D000002807D0502080F31188BFF34F8FBFF360
:1003E0006F8FFEE700F059F80021200000F0FAFBC3
:1003F00000F059F8002808D15FF08050DFF834167B
:100400000860BFF34F8FBFF36F8F10BD10B586B07C
:10041000002004900020039005AA03A904A800F07E
:10042000EBFEDFF8984704980290039801900020B3
:1004300000900023059ADFF888170FF20540FFF7B8
:10044000A3FE20602068002801D0012000E00020E9
:10045000012817D1502080F31188BFF34F8FBFF3CD
:100460006F8F5FF0FF30DFF8601708600120DFF862
:10047000F41308600020DFF85417086000F0ABFDAB
:1004800006B010BD10F1010FFAD1502080F3118891
:10049000BFF34F8FBFF36F8FFEE7DFF8D40401681F
:1004A000491C0160704770B500240025DFF8C06466
:1004B0003068002807D1502080F31188BFF34F8F98
:1004C000BFF36F8FFEE700F0EDFD3068401E306037
:1004D0003068002855D1DFF860030068002826D175
:1004E0004FE0C868C46814F1180000F038FD201D02
:1004F00000F035FDDFF874130A680123E06A8340D9
:100500001A430A60211DDFF8B823E36A142043432D
:1005100002EB030000F0FCFCE06ADFF8201309683E
:10052000C96A884203D30120DFF8B4160860DFF8F7
:10053000941608680028D4D1002C01D000F003FAEA
:10054000DFF88C663468002C0CD000F01EF8002810
:1005500003D00120DFF888160860641E002CF4D157
:1005600000203060DFF878060068002809D00125F7
:100570005FF08050DFF8BC140860BFF34F8FBFF30B
:100580006F8F00F0A9FD280070BDF8B50025DFF8D9
:10059000E0030068002867D1DFF830060468641CB7
:1005A0000460002C1AD1DFF82C16086800680028B7
:1005B00007D0502080F31188BFF34F8FBFF36F8FA8
:1005C000FEE70868DFF8102613680B601060DFF89C
:1005D0000C060168491C016000F0B5F9DFF8E86518
:1005E0003068844230D322E0381D00F0B8FCB86A8D
:1005F000002803D017F1180000F0B1FCDFF86C12EE
:100600000A680123F86A83401A430A60391DDFF83B
:10061000B022FB6A1420434302EB030000F078FC95
:10062000F86A86490968C96A884200D30125DFF85B
:10063000A41508680068002812D00868C068C76858
:1006400078688442D0D230607C480068DFF870124D
:10065000C26A14204243885802280AD3012508E0C0
:100660005FF0FF303060EFE7DFF864050168491C98
:100670000160DFF86C050068002800D00125280023
:10068000F2BDDFF8EC020068002804D00120DFF89A
:10069000501508602AE00020DFF844150860734810
:1006A0000068B0FA80F1D1F11F011422844B02FBE3
:1006B00001F01858002807D1502080F31188BFF3AB
:1006C0004F8FBFF36F8FFEE7514303EB010041688B
:1006D00049684160416810F10802914202D14168C5
:1006E000496841604068C06854490860704710B567
:1006F0000C00002807D1502080F31188BFF34F8FE2
:10070000BFF36F8FFEE7DFF854150968183100F06A
:100710000BFC0121200000F065FA10BD10B5C06887
:10072000C468002C07D1502080F31188BFF34F8F8D
:10073000BFF36F8FFEE714F1180000F010FC8C4837
:100740000068002813D1201D00F009FC47490A6801
:100750000123E06A83401A430A60211D584AE36A74
:100760001420434302EB030000F0D2FB05E014F138
:100770001801DFF8500400F0CBFB30480068C06A75
:10078000E16A884205D201200121DFF8D4241160FA
:1007900000E0002010BDDFF8441409680160DFF8B4
:1007A000B41409684160704738B504000D00002C8E
:1007B00007D1502080F31188BFF34F8FBFF36F8FA5
:1007C000FEE7002D07D1502080F31188BFF34F8F33
:1007D000BFF36F8FFEE700F065FCDFF8F003006801
:1007E0006168411A2A6812F1010F01D1002418E052
:1007F000DFF8E823126823689A4204D062689042C6
:1008000001D301240DE02868814207D22868411AEB
:1008100029602000FFF7BFFF002402E000202860CD
:10082000012400F059FC200032BD0120DFF8301413
:100830000860704700000000643700205437002033
:1008400080B500F03FF81E4800680228F9D35FF039
:100850008050DFF864130860BFF34F8FBFF36F8FD2
:10086000EFE7000070370020803700206C37002051
:1008700038B5002407E01248142101FB04F10844B4
:1008800000F034FB641C072CF5D3DFF8D8432000BC
:1008900000F02CFBDFF8D053280000F027FBDFF836
:1008A000240300F023FB154800F020FB8E4800F0E5
:1008B0001DFBDFF820030460DFF8B003056031BDE5
:1008C000B032002038B514E000F0ECFB0B48C068F3
:1008D000C468201D00F043FBDFF87C030168491E5B
:1008E00001602868401E286000F0F6FB200000F040
:1008F00009F8034D28680028E6D131BDD83600201C
:100900006037002010B5040094F85100002806D18B
:10091000206B00F045FA200000F042FA10BD94F878
:100920005100012803D1200000F03AFAF6E794F8CC
:1009300051000228F2D0502080F31188BFF34F8F6E
:10094000BFF36F8FFEE7DFF88C120868006800289D
:1009500005D15FF0FF30DFF87012086006E008682C
:10096000C068C0684068DFF8601208607047000027
:100970008C370020DFF8F8020068002801D1012040
:1009800007E0DFF8F0020068002801D1022000E053
:1009900000207047F8B504000021002848D0DFF897
:1009A000BC72E06A3A68D26A90423BD2A0690028E1
:1009B00004D43868C06AD0F10700A061DFF8B852EB
:1009C00014266069E16A71432944884225D1201DBB
:1009D00000F0C5FA00280CD1E06A704328580028BE
:1009E00007D1DFF898120A680123E06A83409A432E
:1009F0000A603868C06AE062DFF880120A68012382
:100A0000E06A83401A430A60211DE06A06FB00F693
:100A100005EB060000F07CFA02E03868C06AE0628C
:100A2000012105E0606C3A68D26A904200D201214F
:100A30000800F2BD04ED00E010B50400002100281C
:100A40004FD0DFF818020068844207D0502080F3AE
:100A50001188BFF34F8FBFF36F8FFEE7A06C0028A4
:100A600007D1502080F31188BFF34F8FBFF36F8FF2
:100A7000FEE7A06C401EA064E06A626C904230D039
:100A8000A06C00282DD1201D00F069FA00280FD19C
:100A9000DFF8E411E26A142042438858002807D1A5
:100AA000DFF8D8110A680123E06A83409A430A609C
:100AB000606CE062E06AD0F10700A061DFF8BC1171
:100AC0000A680123E06A83401A430A60211DDFF8A7
:100AD000A821E36A1420434302EB030000F018FA54
:100AE0000121080010BD0000EC36002070B50400A4
:100AF0000122002853D0A06C002807D1502080F399
:100B00001188BFF34F8FBFF36F8FFEE7606C884291
:100B100000D3616CE06A884241D0A06C90423ED123
:100B2000DFF838010068844207D1502080F3118833
:100B3000BFF34F8FBFF36F8FFEE7E06AE162A269F8
:100B4000002A02D4D1F10701A161DFF82C5114264B
:100B5000616970432844814221D1201D00F0FFF9D2
:100B600000280CD1E06A70432858002807D1DFF82C
:100B70000C110A680123E06A83409A430A60DFF897
:100B8000FC100A680123E06A83401A430A60211DB1
:100B9000E06A06FB00F605EB060000F0B9F970BD4F
:100BA000DFF8B8100868002803D00868826C521C6F
:100BB000826408687047000004ED00E08837002078
:100BC0008C670008C4360020843700206837002076
:100BD00074370020583700205C3700207C37002015
:100BE00078370020F8B505000C001A4806681B4F3E
:100BF0003868001D00F0B3F9002807D138681F4994
:100C00000A680123C06A83409A430A6015F1010F04
:100C100007D1002C05D03868011D194800F078F97B
:100C200016E0AD1938684560B54206D23868011D36
:100C30000E48006800F078F90AE03868011D114894
:100C4000006800F071F9104801688D4200D205601B
:100C5000F1BD0000683700206437002054370020C1
:100C6000783700209C360020B03600205C3700200A
:100C7000703700208C370020B03200206C37002005
:100C8000EC36002058370020843700202DE9F84347
:100C900004000025FFF701FCDFF83492D9F80000CA
:100CA000002801D100F0B5F88A4F3868044266D1B7
:100CB000002C15D088480068041914F0070F0FD0D5
:100CC00014F1080014F00704041B14F0070F07D0F8
:100CD000502080F31188BFF34F8FBFF36F8FFEE773
:100CE000002C4CD0DFF8F481D8F80000A04246D3A5
:100CF0007B480100066801E0310036687068A04258
:100D000002D230680028F7D1D9F80000864236D0E8
:100D100071480A68036802EB030532680A600068DC
:100D200040007168091B884214D206EB040111F0DF
:100D30000700002807D0502080F31188BFF34F8FA1
:100D4000BFF36F8FFEE77068001B48607460080097
:100D500000F08EF8D8F800107068091AC8F8001072
:100D60006048D8F800100268914202D2D8F800100A
:100D70000160716838680143716000203060FFF7DE
:100D800092FB15F00700002807D0502080F311884F
:100D9000BFF34F8FBFF36F8FFEE72800BDE8F283EC
:100DA00010B50100002833D04B480068404201EBE9
:100DB0000004484960680A68104207D1502080F357
:100DC0001188BFF34F8FBFF36F8FFEE720680028B5
:100DD00007D0502080F31188BFF34F8FBFF36F8F80
:100DE000FEE760680A68104212D0206800280FD120
:100DF0006268086882436260FFF74FFB37490A6800
:100E0000606882180A60200000F032F8FFF74BFBA0
:100E100010BD10B442F210723348010011F0070FF8
:100E200004D0C91DC908C900521A82182C48016093
:100E300000234360521828480068121AD208D200D2
:100E40002348026000230468636000230468236071
:100E5000521A4A60006808604868224A1060486870
:100E60001E4908605FF000401A49086010BC7047D6
:100E700010B41B4A00E0126811688142FBD31100D4
:100E800053681944814204D1516840684118516047
:100E900010000100436819441368994210D10C49AD
:100EA00013680C68A34208D0436811684968CB18DE
:100EB000436011680968016004E00968016001E0AD
:100EC00011680160824200D0106010BC70470000C1
:100ED00014370020203700209467000818370020BE
:100EE000003700201C370020A000002010F108016E
:100EF00041605FF0FF31816010F10801C16010F1C5
:100F00000801016100210160704700210161704703
:100F100042684A6093688B60936859609160086189
:100F20000168491C0160704710B40B6813F1010F90
:100F300001D1026907E010F1080200E0526854682C
:100F40002468A342FAD253684B604B6899608A6068
:100F5000516008610168491C016010BC704701695B
:100F6000826843689A60426883685A604A6882422D
:100F700001D182684A60002202610868401E086050
:100F800008687047001F5FF080730360001F490806
:100F900049000160001F0FF2150101601438026062
:100FA000001F7FF00201016020387047724800681E
:100FB00010F1010F07D0502080F31188BFF34F8F3D
:100FC000BFF36F8FFEE7502080F31188BFF34F8F80
:100FD000BFF36F8FFEE7E0B568480168684A914249
:100FE00007D1502080F31188BFF34F8FBFF36F8F6D
:100FF000FEE700686349884207D1502080F31188DA
:10100000BFF34F8FBFF36F8FFEE75F480178019109
:10101000FF21017001788DF800109DF8001011F08B
:1010200050015A4A11705A4907220A6007E00A68BB
:10103000521E0A609DF8002052008DF800209DF895
:1010400000201206F3D40A68D2F10702042A07D05E
:10105000502080F31188BFF34F8FBFF36F8FFEE7EF
:101060000A6812020A600A6812F4E0620A600199D2
:1010700001704848016851F470010160016851F045
:101080007041016000F090F800203B49086000F0DA
:10109000BDFA4148016851F04041016000F0A6FAF4
:1010A00000200EBD502080F31188BFF34F8FBFF397
:1010B0006F8F31490A68521C0A60096801290AD1F8
:1010C00036490968090606D080F31188BFF34F8FAF
:1010D000BFF36F8FFEE7704727490868002807D1E4
:1010E000502080F31188BFF34F8FBFF36F8FFEE75F
:1010F0000868401E08600868002802D1002080F3BC
:101100001188704780B5502080F31188BFF34F8F4E
:10111000BFF36F8FFFF739FA002803D05FF08050DC
:101120001E490860002080F3118801BDEFF305809F
:1011300010280FD31A490968085C14490978C0B20D
:10114000884207D2502080F31188BFF34F8FBFF33E
:101150006F8FFEE70E4800681249096811F4E061DC
:10116000884207D2502080F31188BFF34F8FBFF31E
:101170006F8FFEE7704700008C00002000ED00E05C
:1011800071C20F4170C20F4100E400E0A53700209A
:101190004C37002020ED00E034EF00E004ED00E0EB
:1011A000986700080CED00E008480021016000216C
:1011B000074A1160074909684FF47A72B1FBF2F1EE
:1011C000491E054A116007210160704710E000E0E8
:1011D00018E000E09800002014E000E080B5DFF89F
:1011E000440300F021FADFF8400300F01DFADFF8B5
:1011F0003C0300F019FA01BDDFF834330360DFF877
:101200003403086080201060704780B590B0DFF82C
:101210002803D0E90023CDE900230121684600F02E
:10122000B2FADFF81813086009A8DFF814131C22BB
:1012300000F044FB002109A800F06BFADFF804136A
:10124000086002A8DFF800131C2200F037FB002121
:1012500002A800F05EFADFF8F412086011B000BDD9
:101260002DE9F047DFF8E84203222100DFF8E4022D
:1012700000F0DEFCB84801F0D6F8DFF8E092012279
:101280004FF48041484601F012FD01224FF4005115
:10129000484601F00CFD01224FF48051484601F010
:1012A00006FD05E000224FF48041484601F0FFFCB6
:1012B0005FF0FF31A148006800F08AFA994D21885B
:1012C000280001F015FD984E6188300001F010FDF6
:1012D000964FA188380001F00BFDDFF88482B8F842
:1012E0000000012817D10020A8F8000021002800E4
:1012F00000F0BAF9DFF86CA2280000F0D1F9AAF8E2
:101300000800280000F0C9F9AAF80600964B9AE8F0
:10131000070001F035FDB8F8000002280BD10020CD
:10132000A8F80000A11C300000F09EF98E4B8D48FB
:1013300007C801F025FDB8F8000003280BD10020F4
:10134000A8F80000211D380000F08EF9864B854872
:1013500007C801F015FD280000F077F90028A1D199
:1013600001224FF48041484601F0A1FCA0E780B57E
:101370007C4800210091036803220179002001F0DC
:1013800081FD01F0CCFD01F0DAFDFCE780B56B4892
:10139000006800F057FA01BD0020C0B2704738B5B0
:1013A0000500080080B2002800D0491E0024DBB2EE
:1013B000002B02D0012B43D0B0E089B2002911D01C
:1013C000022921D017D3042928D026D3062927D0D3
:1013D00025D3082926D024D30A2929D023D30B29A1
:1013E00027D02BE04F4801F0B9FC010089B2090A6F
:1013F0002970687023E04C4801F0B0FC010089B20C
:10140000090A297068701AE0484801F0A7FC010039
:1014100089B2090A2970687011E010E00FE00EE04F
:101420000DE00CE00BE0514800782870681C06E0E5
:1014300005E04C4800682870681C00E001246EE05C
:1014400089B2002916D0012927D0022938D00329D2
:1014500049D0042948D0052947D0062946D0072974
:1014600045D0082944D009294BD00B294AD00F294F
:101470004CD051E02878697851EA0021080080B208
:10148000801E622808D289B24FF47A704143254801
:1014900041640120324908803FE02878697851EAA8
:1014A0000021080080B2801E622808D289B24FF461
:1014B0007A7041431C4841640220294908802CE08D
:1014C0002878697851EA0021080080B2801E6228DD
:1014D00008D289B24FF47A70414314484164032022
:1014E0001F49088019E018E017E016E015E014E045
:1014F0002878697851EA00210A204143194801609F
:101500000BE00AE068781749087106E0164B1548A9
:1015100007C801F035FC00E0012400E002242000AF
:10152000C0B232BD64340020B43400200435002041
:10153000C0330020B02F00207C6700081037002047
:101540008466000808370020A06600080C370020D9
:10155000B027002014340020A035002000040048EB
:101560009037002000000020009C00089C00002014
:101570000120704701207047EFF30980BFF36F8FA0
:10158000264B1A681EF0100F08BF20ED108A20E9C4
:10159000F04F106009B44FF0500080F31188BFF392
:1015A0004F8FBFF36F8FFFF76CF84FF0000080F3A1
:1015B000118809BC19680868B0E8F04F1EF0100FD8
:1015C00008BFB0EC108A80F30988BFF36F8F7047B3
:1015D000124B19680868B0E8F04F80F30988BFF330
:1015E0006F8F4FF0000080F3118870470C4800683F
:1015F000006880F308884FF0000080F3148862B61A
:1016000061B6BFF34F8FBFF36F8F00DFDFF81400B9
:10161000016841F4700101607047000054370020F8
:1016200008ED00E088ED00E010B50400200001F0B6
:101630005BFB40F6B83060640020A4F848004FF42B
:101640008050A4F84A00200010BDB0F84810828FE6
:10165000914203D2012180F84C1002E0002180F871
:101660004C1090F84C00704770B504000D00002637
:1016700007E02988200001F03BFB012000F078F80A
:10168000761C606C8642F4D3B4F84000A4F84A009B
:10169000E08F2830A4F8480070BDB0F848007047CB
:1016A000B0F84A00704730B4002513E050F8042B1E
:1016B000D30744BFA9F101039A18091F042942F86E
:1016C000045BFAD213468C0744BF15809B1CC907E4
:1016D00048BF1D7050F8041B0029E7D130BC70478B
:1016E000010000200A0012B2842A03D009B2C91CEA
:1016F000091808007047EFF30580002801D0012089
:1017000000E00020C0B2704780B5FEF77FFE0020E9
:1017100002BD38B584B004000D006069002815D002
:10172000A069002812D0B4F90800FFF7D9FFA16919
:1017300002916169019100902B0022692168606823
:10174000FEF722FD0390039805B030BDB4F9080000
:10175000FFF7C6FF03A9019100902B00226992B206
:1017600021686068FEF751FD0128ECD00020EBE70E
:1017700080B50121B0FBF1F0002800D10120FEF777
:101780001FFE002002BD1CB54268002A0CD00129B2
:1017900008D103210091436800220021012001F0BB
:1017A000BAFC14E0002012E001290FD1032200212D
:1017B000012001F003FD0400002C05D000230022CD
:1017C0000021200001F030FD200000E0002016BDC7
:1017D00038B5050000200090002D01D1802028E0C0
:1017E000002411F1010F02D15FF0FF3407E000295E
:1017F00005D00120B1FBF0F4002C00D10124FFF74B
:101800007AFF002816D06A460021280001F000FF68
:10181000012801D0FF200CE00098002808D05FF0DC
:101820008050DFF874100860BFF34F8FBFF36F8FE5
:10183000002032BD2100280001F01DFE0128F7D054
:10184000FF20F6E738B50400002500200090FFF7E0
:1018500052FF002814D06946200001F0B0FD012895
:1018600001D0FF2016E00098002812D05FF08050D1
:10187000DFF824100860BFF34F8FBFF36F8F08E0CD
:10188000002300220021200001F0CEFC012800D01E
:10189000FF25280032BD000004ED00E062B38B0795
:1018A00008D0521E11F8013B00F8013B00F02480E3
:1018B0008B07F6D1830740F0208000BF103A07D392
:1018C00030B4B1E83810103AA0E83810F9D230BC82
:1018D000530724BFB1E80810A0E8081044BF51F82E
:1018E000043B40F8043BD20724BF31F8022B20F818
:1018F000022B44BF0B7803707047121F17D35B0095
:1019000009D151F8043B20F8023B1B0C121F20F8B0
:10191000023BF6D20BE051F8043B00F8013B1B0AF6
:1019200020F8023B1B0C121F00F8013BF3D238BF1A
:10193000121D521E24BF11F8013B00F8013BF8D8DC
:101940007047000078B595B00400002500260020FF
:101950000090002C01D101205AE12069002802D01A
:1019600094F820000028206CC00653D4206C002876
:101970003DD1002060640020E0640020A0640020CD
:1019800084F83C00200001F0AFFF20688068C000B0
:101990002DD4200000F0C4FC0500206CC00626D425
:1019A0002800C0B2002822D1206C30F4885050F0BA
:1019B000020020642068806830F040502168886010
:1019C0002068806850F0805021688860DFF8440209
:1019D0000068DFF84412B0FBF1F10A2041430091A6
:1019E00002E00098401E009000980028F9D120687D
:1019F0008068C00003D52068806880000AD5206C0C
:101A000030F0020050F010002064606C50F00100D3
:101A100060640125206CC00600F1F1802800C0B28E
:101A2000002840F0EC8020688068400700F1E780E3
:101A3000206C30F4807050F0020020642068B0F117
:101A4000A04F04D02068DFF8D411884202D1DFF81B
:101A5000D01101E0DFF8CC112068B0F1A04F04D123
:101A6000DFF8B801019001981EE02068DFF8AC2192
:101A7000904204D15FF0A0400190019814E0DFF89B
:101A8000A8012268824204D1DFF8A00101900198E8
:101A90000AE02268DFF894319A4202D1019001985D
:101AA00002E00020019001982068806810F0030097
:101AB000012804D12068006810F0010000E0002037
:101AC000002816D1019800280DD00198806810F0E8
:101AD0000300012804D10198006810F0010000E023
:101AE0000020002805D18A6832F440326068024341
:101AF0008A60606B012802D04FF4805100E0002121
:101B0000607E51EA4031E0680143A06801430E4322
:101B100094F82000012813D1607E002806D1606A65
:101B2000401E400450F48030064309E0206C30F041
:101B3000020050F020002064606C50F001006064EE
:101B4000A06A012824D02068DFF8DC10884204D085
:101B50002068DFF8D810884216D1A06AB0F5307F2F
:101B600002D14FF4E07110E0A06AB0F5807F02D19D
:101B70004FF4307109E0A06AB0F5E07F02D14FF474
:101B8000807102E0A16A00E0A16AE06A01430E43AD
:101B90002068806810F00C0F0DD12068C168DFF854
:101BA0001C0201402068C160207E94F8301049007A
:101BB00051EA80310E432068C168DFF80402014019
:101BC0000E432068C6602069012809D12068006B97
:101BD00000090001E169491E08432168086305E026
:101BE0002068006B00090001216808630020606420
:101BF000206C30F0020050F00100206406E0206C00
:101C000030F0020050F01000206401252800C0B21E
:101C100016B070BD9800002040420F000001005037
:101C20000003005000070050000400500005005061
:101C3000F8B504000D0016000020206880684007F9
:101C400000F1B78094F83C00012801D10220B3E0F4
:101C5000012084F83C002068B0F1A04F04D0206837
:101C6000DFF87411884204D15748006810F01F0053
:101C700003E05648006810F01F00002840F09480F0
:101C8000200000F00EFB07003800C0B2002840F032
:101C90008780216C4B48014051F480712164206899
:101CA000B0F1A04F04D02068DFF82C11884204D195
:101CB0004548006810F01F0003E04448006810F039
:101CC0001F00002808D02068B0F1A04F04D0206881
:101CD000DFF8081188420ED1206C30F480102064A7
:101CE0002068C068800124D5206C30F4005050F486
:101CF000805020641DE0206C50F480102064206827
:101D0000B0F1A04F04D02068DFF8CC10884204D195
:101D10002F48006810F0007003E02E48006810F0B3
:101D20000070002805D0206C30F4005050F4805032
:101D30002064206CC00404D5606C30F00600606440
:101D400001E000206064002084F83C00DFF890008F
:101D5000A16B8862DFF88C00A16BC862DFF8880095
:101D6000A16B08631C20216808602068406850F05F
:101D70001000216848602068C06850F001002168A8
:101D8000C86033002A00206810F14001A06B01F008
:101D90003EFE2068806850F004002168886009E0F9
:101DA000002084F83C0005E00127002084F83C0076
:101DB00000E002273800C0B2F2BD0000FDBFFFFF07
:101DC00007C0F0FFFEF1FFFF0803005008070050B6
:101DD0000C0000500C0400500001005000040050A2
:101DE000352200087F2200088922000870B495B0CF
:101DF00002000B00002100200090D8680128FFD1CC
:101E000092F83C00012801D1022003E2012082F86F
:101E10003C0010688068400700F1F281586805288E
:101E200011D206201468246B1F255E684643B54016
:101E3000AC431D685E6800FB06F015FA00F0204315
:101E40001468206340E058680A2813D206241068FA
:101E5000456B1F265868401F10FB04F08640B543B1
:101E60001E685868401F10FB04F086403543106818
:101E7000456329E058680F2813D206241068856B43
:101E80001F2658680A3810FB04F08640B5431E68C8
:101E900058680A3810FB04F08640354310688563A3
:101EA00012E006241068C56B1F2658680F3810FB17
:101EB00004F08640B5431E6858680F3810FB04F0E4
:101EC000864035431068C5631068806810F00C0FB9
:101ED00040F0AB8018680A2814D31068846907257D
:101EE00018680A38032610FB06F08540AC439D684D
:101EF00018680A38032610FB06F085402C4310684A
:101F000084610FE01068446907251E68032046437A
:101F1000B540AC439D681E6803204643B5402C4342
:101F20001068446158691468E468C4F3C104E4B2F9
:101F3000640010FA04F41869012806D03DD3032880
:101F40001FD010D304282AD037E01068056EDFF8C0
:101F5000D8020540186855EA80652C4354F00044C7
:101F60001068046661E01068456EDFF8BC02054049
:101F7000186855EA80652C4354F0004410684466A4
:101F800053E01068856EDFF8A0020540186855EA36
:101F900080652C4354F000441068846645E0106866
:101FA000C56EDFF884020540186855EA80652C4349
:101FB00054F000441068C46637E01068006E10F0FA
:101FC000F8401C68B0EB846F05D11068006E20F0FB
:101FD0000040146820661068406E10F0F8401C68DD
:101FE000B0EB846F05D11068406E20F0004014689B
:101FF00060661068806E10F0F8401C68B0EB846F6B
:1020000005D11068806E20F000401468A06610684A
:10201000C06E10F0F8401C68B0EB846F05D11068FA
:10202000C06E20F000401468E0661068806810F010
:102030000300012804D11068006810F0010000E0DE
:102040000020002840F0E180D86801280AD01068FC
:10205000D0F8B040012518688540AC431068C0F83E
:10206000B04035E01068D0F8B040012518688540D0
:102070002C431068C0F8B04018680A2814D31068C0
:102080008469072518680938032610FB06F0854087
:10209000AC439D6818680938032610FB06F085409C
:1020A0002C431068846113E01068446907251868A0
:1020B000401C032610FB06F08540AC439D68186861
:1020C000401C032610FB06F085402C431068446139
:1020D0001068B0F1A04F03D01068504CA04202D15C
:1020E000DFF8484101E0DFF848411868102802D1C4
:1020F000A06800020CD51868112802D1A068C001A0
:1021000006D51868122840F08080A06840027CD470
:102110001068B0F1A04F03D14048019001981AE037
:1021200010683E4DA84204D15FF0A0400190019894
:1021300011E03B481568854203D13A480190019867
:1021400009E01568374EB54202D10190019802E0CE
:102150000020019001981068806810F003000128A9
:1021600004D11068006810F0010000E00020002891
:1021700040D1019800280DD00198806810F003002C
:10218000012804D10198006810F0010000E000204F
:1021900000282FD11868102818D11068B0F1A04F6E
:1021A00014D1A06850F40000A060DFF8F8010068C6
:1021B000DFF8F431B0FBF3F30A20434300930098B7
:1021C000002822D00098401E0090F8E718681128D7
:1021D00008D11068B0F1A04F04D1A06850F0807011
:1021E000A06012E0186812280FD1A06850F4800097
:1021F000A0600AE0106C50F020001064012104E09F
:10220000106C50F0200010640121002082F83C0086
:102210000800C0B215B070BC70470000000100504B
:10222000000400500005005000F0FF830003005040
:102230000007005080B5416A0A6C12F0500F1AD1A5
:10224000086C50F4007008640868C06810F4406FAF
:102250000DD1487E00280AD1086C30F480700864E3
:10226000086CC00403D4086C50F001000864080036
:10227000FFF78CF802E0896B096B884701BD80B5D8
:10228000406A01F0F1FC01BD80B5406A016C51F07B
:1022900040010164416C51F00401416401F0E5FC2E
:1022A00001BD38B5040000202068806810F00300EC
:1022B000012804D12068006810F0010000E000202F
:1022C00000282BD1206880686FF39E10002809D069
:1022D000206C50F010002064606C50F001006064CD
:1022E00001201CE02068806850F0010021688860AF
:1022F00001F0BCFC050020680068C0070ED401F0A6
:10230000B5FC401B0328F6D3206C50F0100020646D
:10231000606C50F001006064012000E0002032BDDC
:1023200038B5040000202068806810F00300012800
:1023300004D12068006810F0010000E000200028AF
:102340002ED02068806810F00D0001281ED1206872
:10235000806850F0020021688860032021680860CE
:1023600001F084FC050020688068C00718D501F0E2
:102370007DFC401B0328F6D3206C50F01000206435
:10238000606C50F00100606401200AE0206C50F0A5
:1023900010002064606C50F001006064012000E0D7
:1023A000002032BD9800002040420F0010B504000C
:1023B000002C01D1012035E094F83D00002805D122
:1023C000002084F83C00200001F0CCFC022084F8BE
:1023D0003D00211D206800F0D0F9012084F848005C
:1023E000012084F83E00012084F83F00012084F899
:1023F0004000012084F84100012084F842000120BF
:1024000084F84300012084F84400012084F845004A
:10241000012084F84600012084F84700012084F858
:102420003D00002010BD90F83D10012901D0012091
:102430003DE0022180F83D100168C96851F00101BA
:102440000268D1600168DFF81C21914217D0016851
:10245000B1F1804F13D00168DFF80C2191420ED00A
:102460000168DFF80821914209D00168DFF80021F6
:10247000914204D00168DFF8FC20914210D101683C
:102480008A68DFF8F4100A40062A0FD0B2F5803FC0
:102490000CD00168096851F001010068016005E095
:1024A0000168096851F0010100680160002070476F
:1024B0000168C968490849000268D1600168096A71
:1024C00041F2111211420BD10168096A40F24442F3
:1024D000114205D101680968490849000268116084
:1024E000012180F83D100020704710B50400002C39
:1024F00001D1012035E094F83D00002805D10020ED
:1025000084F83C00200001F01CFC022084F83D000F
:10251000211D206800F031F9012084F848000120D5
:1025200084F83E00012084F83F00012084F8400038
:10253000012084F84100012084F84200012084F841
:102540004300012084F84400012084F84500012064
:1025500084F84600012084F84700012084F83D00FB
:10256000002010BD002C0140000400400008004085
:1025700000340140004001400700010010B5040094
:102580002068006980071AD52068C068800716D5C2
:102590007FF00200216808610120207720688069AF
:1025A00010F0030F03D0200001F0FEFB05E0200037
:1025B00001F0FBFB200001F0F9FB002020772068F0
:1025C000006940071AD52068C068400716D57FF01B
:1025D000040021680861022020772068806910F4D7
:1025E000407F03D0200001F0DFFB05E0200001F078
:1025F000DCFB200001F0DAFB002020772068006976
:1026000000071AD52068C068000716D57FF00800BB
:1026100021680861042020772068C06910F0030F4A
:1026200003D0200001F0C0FB05E0200001F0BDFB5D
:10263000200001F0BBFB0020207720680069C00665
:102640001AD52068C068C00616D57FF01000216832
:102650000861082020772068C06910F4407F03D00B
:10266000200001F0A1FB05E0200001F09EFB20000E
:1026700001F09CFB0020207720680069C0070AD584
:102680002068C068C00706D57FF001002168086196
:10269000200001F010FC2068006900060AD52068BF
:1026A000C068000606D57FF0800021680861200020
:1026B00001F011FC20680069C0050AD52068C068D7
:1026C000000606D57FF4807021680861200001F0C3
:1026D00003FC2068006940060AD52068C0684006EF
:1026E00006D57FF0400021680861200001F0F5FB6D
:1026F0002068006980060AD52068C068800606D573
:102700007FF0200021680861200001F0E7FB10BD88
:1027100010B5040094F83C00012801D102202BE000
:10272000012084F83C00002A0AD0042A0CD0082A90
:102730000ED00C2A10D0102A12D0142A14D017E070
:10274000206800F075F813E0206800F0BFF80FE093
:10275000206800F0FFF80BE0206800F03BF907E08C
:10276000206800F066F903E0206800F08EF9FFE7CA
:10277000002084F83C00002010BD10B40468DFF88D
:10278000643398420ED0B0F1804F0BD0DFF858235D
:10279000904207D0DFF85423904203D0DFF8502353
:1027A000904203D134F070044A68144398421AD01E
:1027B000B0F1804F17D0DFF83023904213D0DFF80C
:1027C0002C2390420FD0DFF8282390420BD0DFF863
:1027D0002423904207D0DFF82023904203D0DFF873
:1027E0001C23904203D134F44074CA68144334F07B
:1027F00080044A69144304608A68C2620A6882627B
:1028000098420FD0DFF8E82290420BD0DFF8E422A4
:10281000904207D0DFF8E022904203D0DFF8DC22BC
:10282000904201D1096901630121416110BC7047E7
:1028300070B4026A520852000262056A43688469F1
:10284000DFF8BC221440A408A4000A68144335F041
:1028500002058A681543DFF88C62B0420FD0DFF8BA
:10286000902290420BD0DFF88C22904207D0DFF804
:102870008822904203D0DFF88422904205D135F0BF
:102880000805CA68154335F00405B0420FD0DFF8DB
:10289000602290420BD0DFF85C22904207D0DFF834
:1028A0005822904203D0DFF85422904207D133F4EB
:1028B000807333F400734A6913438A691343436096
:1028C000846149684163056270BC704770B4026AF4
:1028D00032F010020262056A43688469DFF824223C
:1028E000144034F440740A6854EA022435F0200598
:1028F0008A6855EA0215DFF8EC21904203D0DFF830
:10290000F061B04206D135F08005CE6855EA061573
:1029100035F0400590420CD0DFF8D421904208D029
:10292000744A904205D0744A904202D0734A904251
:1029300009D133F4806333F400634A6953EA8203B4
:102940008A6953EA8203436084614968816305624E
:1029500070BC704770B4026A32F480720262056A19
:102960004368C469664A1440A408A4000A68144372
:1029700035F400758A6855EA02255A4A904202D019
:102980005B4EB04206D135F40065CE6855EA0625A7
:1029900035F4806590420BD0554A904208D0554A94
:1029A000904205D0544A904202D0544A904209D1F4
:1029B00033F4805333F400534A6953EA02138A69AB
:1029C00053EA02134360C4614968C163056270BC85
:1029D0007047000030B4026A32F480520262036A27
:1029E0004568C469474A144034F440740A6854EA9C
:1029F000022433F400538A6853EA0233394A90427E
:102A00000BD03B4A904208D03A4A904205D03A4A0D
:102A1000904202D0394A904204D135F480454A6947
:102A200055EA82154560C46149680164036230BC9F
:102A3000704730B4026A32F480320262036A456839
:102A4000446D2F4A14400A68144333F400338A68F3
:102A500053EA0243234A90420BD0254A904208D0C1
:102A6000244A904205D0244A904202D0234A904200
:102A700004D135F480354A6955EA0225456044653C
:102A800049688165036230BC704730B4026A32F431
:102A900080120262036A4568446D1A4A14400A684B
:102AA00054EA022433F400138A6853EA02530D4AAD
:102AB00090420BD00E4A904208D00E4A904205D068
:102AC0000D4A904202D00D4A904204D135F480253F
:102AD0004A6955EA8225456044654968C1650362D3
:102AE00030BC7047002C014000040040000800404A
:102AF00000340140004001400044014000480140D2
:102B00008FFFFEFFFF8FFFFEF8B40200002433E0CA
:102B1000052704E0DFF8A8319A42F9D1042714F020
:102B20000303DBB29B009F403E4323009B0845F814
:102B30002360DFF890512B6883434E68F60300D57D
:102B400003432B60604D2B6883434E68B60300D56A
:102B500003432B605D4D2B6883434E68F60200D51E
:102B600003432B605A4D2B6883434E68B60201D550
:102B7000184303002B60641C0868E040002800F044
:102B800094800125086815FA04F318400028F2D053
:102B90004B68012B08D04B68022B05D04B68112BDA
:102BA00002D04B68122B16D1966803272300DBB2A4
:102BB0005B009F40BE43CF682300DBB25B009F40B9
:102BC0003E4396605368A540AB434D68C5F300157E
:102BD000A5402B435360D66803252300DBB25B007E
:102BE00015FA03F39E438F682300DBB25B009F401E
:102BF0003E43D6604B68022B02D04B68122B17D194
:102C00002300DB0802EB83031E6A0F2714F007037F
:102C1000DBB29B009F40BE430F6914F00703DBB299
:102C20009B009F403E432300DB0802EB83031E62B0
:102C300016682300DBB25B009D40AE430D7915F0B2
:102C400003052300DBB25B009D402E4316604B68FA
:102C5000DB0090D51F4B1D6855F001051D601B68FA
:102C600013F001030093009B1B4D23009B0855F8B4
:102C700023600F2714F00303DBB29B009F40BE4389
:102C8000B2F1904F01D1002749E7144B9A4201D18C
:102C9000012744E7124B9A4201D102273FE7114B2B
:102CA0009A427FF437AF032739E7F1BC7047D2B2BD
:102CB000002A02D089B2816101E089B28162704745
:102CC00000100048000401400404014008040140D1
:102CD0000C040140181002400800014000040048A4
:102CE00000080048000C004880B500F039F802BD2B
:102CF00010B44FF6FF72C28741870021002205E021
:102D00001300DBB230F81330C918521C1300DBB2C9
:102D10001E2BF5DB1E22B1FBF2F1002209E01300AD
:102D2000DBB200EB43035B881400E4B220F81430FC
:102D3000521C1300DBB21E2BF1DB8187B0F8401070
:102D4000828F914202D2818FA0F84010818FC28F72
:102D5000914201D2818FC18710BC7047808F70472C
:102D600010B5040020003C2101F0BAF80020A08733
:102D70000020E0870020A4F84000200010BD0000E3
:102D8000F7B51C0003266F4600F047F8200000F05E
:102D90002FF800250AE02800C0B257F820102800BC
:102DA000C0B214EB800000F044F86D1C2800C0B2E3
:102DB000B042F0D300F037F8F7BD30B4032200235F
:102DC00008E01C00A4B251F824401D00ADB240F848
:102DD00025405B1C1C00A4B29442F2D330BC704767
:102DE0002248006810F0010090F00100C0B2704766
:102DF00010B51F4C216851F0020121601D49086087
:102E0000206850F040002060FFF7EAFF0028FBD068
:102E1000206830F00200206010BD1748174901609B
:102E20001749016070471248016851F08001016044
:102E3000704770B504000D000D4E306850F0010071
:102E40003060FFF7CDFF0028FBD02580FFF7C8FFDB
:102E50000028FBD0A41C2D0C2580FFF7C1FF002803
:102E6000FBD0306840084000306070BD0C2002404C
:102E70001020024014200240042002402301674534
:102E8000AB89EFCD70B5050014001A0000200800D2
:102E9000C0B2002807D00800C0B2002803D0080044
:102EA000C0B2F82801DB022436E05E4E3170280003
:102EB000C0B2002820D1049B5B485C4908605C4894
:102EC0005C4908605C485D4908605D485D49086090
:102ED00000205D4908605D485D4908605D485E49C5
:102EE00008605E485E490860DBB22100C9B23078F4
:102EF00000F0FAFF040000E002242000C0B2002825
:102F00000AD101F053F9002801D1032404E0554807
:102F100005700120544908702000C0B270BD38B55A
:102F20000024514D2878012805D140480068804789
:102F30000020287000E006242000C0B232BD7CB51D
:102F4000002049480078002801D0062068E0684643
:102F500001F038F9012862D19DF80000002805D061
:102F600002281AD003D3032859D058E057E0404C28
:102F7000404A41492000334B1B689847C0B20028A3
:102F80000AD1207827490978884202D02078002881
:102F900002D1022001F00FF941E0384C364D28688B
:102FA00000782070364E01203070002205E013F8C2
:102FB00032002178884208D0521C102A0CDA2B4BA0
:102FC00013F832000028F2D106E02A49286803EB02
:102FD000C2025268904730702548007800281DD002
:102FE0003078002812D0234800210180217851F048
:102FF00080012A680388D1540188491C01803178F6
:103000002A680388D1540188491C01801948028824
:10301000296804480078094B1B689847FFE700209F
:1030200076BD00009E3700202F3F00082837002083
:10303000493F00082C370020C73F000824370020F4
:103040005D3F00083037002034370020274000085B
:1030500038370020B14000083C3700201F410008ED
:10306000403700209F3700209D0000200C000020EA
:10307000A03700209237002044370020A1370020DD
:10308000A237002038B504000D00002C07D15020D5
:1030900080F31188BFF34F8FBFF36F8FFEE7FEF70A
:1030A00001F82168E26B206C424301EB0200606092
:1030B0000020A0632068A0602168E26B521E206C93
:1030C000424301EB0200E0605FF0FF3084F844000F
:1030D00084F84500002D12D12069002817D014F182
:1030E0001000FDF71BFB002811D05FF08050DFF8C7
:1030F0001C150860BFF34F8FBFF36F8F07E014F10B
:103100001000FDF7F3FE14F12400FDF7EFFEFDF7CC
:10311000E3FF012032BD38B51C00002807D1502044
:1031200080F31188BFF34F8FBFF36F8FFEE7002C42
:1031300007D1502080F31188BFF34F8FBFF36F8FFB
:10314000FEE7002A01D0002901D0012300E000237E
:10315000DBB2002B07D1502080F31188BFF34F8FD3
:10316000BFF36F8FFEE7002A01D1002901D10123AF
:1031700000E00023DBB2002B07D1502080F3118840
:10318000BFF34F8FBFF36F8FFEE748230093009B81
:10319000482B07D0502080F31188BFF34F8FBFF327
:1031A0006F8FFEE7002C07D0049B012584F8465062
:1031B0000094DBB200F02AF8200032BDF8B506001A
:1031C0000D001700002E07D1502080F31188BFF3A7
:1031D0004F8FBFF36F8FFEE7002D01D1002001E07C
:1031E00005FB06F04830FDF751FD0400002C0BD024
:1031F00014F14802002084F8460000943B00DBB242
:103200002900300000F002F82000F2BD80B5029BDA
:10321000002901D11B6000E01A60D8631964012104
:103220001800FFF72FFF01BDF7B505000E001F00C6
:103230000024002D07D1502080F31188BFF34F8F59
:10324000BFF36F8FFEE7002E02D1286C002801D15A
:10325000012000E00020C0B2002807D1502080F3F8
:103260001188BFF34F8FBFF36F8FFEE7022F02D19C
:10327000E86B012801D1012000E00020C0B2002845
:1032800007D1502080F31188BFF34F8FBFF36F8FAA
:10329000FEE7FDF76FFB002802D10298002801D15C
:1032A000012000E00020C0B2002838D1502080F377
:1032B0001188BFF34F8FBFF36F8FFEE7029800288E
:1032C0005CD0002C03D16846FDF765FA0124FDF7B8
:1032D00003FFFDF7E2F8FDF7E5FE95F9440010F174
:1032E000010F02D1002085F8440095F9450010F146
:1032F000010F02D1002085F84500FDF7EDFE02A97F
:103300006846FDF751FA002852D1280000F07EFAF5
:10331000002837D1280000F034FAFDF7C4F8FDF793
:10332000C1FEA86BE96B884201D3022FC6D13A00D7
:103330003100280000F0CDF9696A00290FD015F19D
:103340002400FDF7EBF9002814D05FF08050DFF87F
:10335000BC120860BFF34F8FBFF36F8F0AE00028E5
:1033600008D05FF08050DFF8A4120860BFF34F8FE1
:10337000BFF36F8FFDF7B0FE01201FE0FDF7ACFE3D
:1033800000201BE0029915F11000FDF7B0F92800AC
:1033900000F0F7F9FDF787F80028C0D15FF0805002
:1033A000DFF868120860BFF34F8FBFF36F8FB6E787
:1033B000280000F0E6F9FDF776F80020FEBD70B5B4
:1033C00005000C00002D07D1502080F31188BFF3B9
:1033D0004F8FBFF36F8FFEE7286C002807D0502077
:1033E00080F31188BFF34F8FBFF36F8FFEE728681C
:1033F000002802D16868002801D1012000E00020E7
:10340000C0B2002807D1502080F31188BFF34F8F3E
:10341000BFF36F8FFEE7FDF789FEEFF311865020B3
:1034200080F31188BFF34F8FBFF36F8FA86BE96BE9
:1034300088421CD295F94510401CA86308005FF033
:10344000FF3240B290420DD1686A00280DD015F1CC
:103450002400FDF763F9002807D0002C05D00120D7
:10346000206002E0491C85F84510012000E00020A2
:1034700086F3118870BD73B582B006000024002564
:10348000002E07D1502080F31188BFF34F8FBFF378
:103490006F8FFEE7306C002807D0502080F3118832
:1034A000BFF34F8FBFF36F8FFEE7FDF763FA00287E
:1034B00002D10398002801D1012000E00020C0B211
:1034C00000280CD1502080F31188BFF34F8FBFF339
:1034D0006F8FFEE7300000F054F9FCF7E4FFFDF7D2
:1034E000E1FDB06B00280CD1039800282AD1002DF3
:1034F00024D0502080F31188BFF34F8FBFF36F8F1C
:10350000FEE7401EB0633068002802D1FDF748FB9B
:103510007060306900280DD016F11000FDF7FEF83C
:10352000002807D05FF0805038490860BFF34F8F04
:10353000BFF36F8FFDF7D0FD012065E0FDF7CCFDF7
:10354000002061E0002C03D16846FDF724F9012436
:10355000FDF7C2FDFCF7A1FFFDF7A4FD96F94400BD
:1035600010F1010F02D1002086F8440096F94500C1
:1035700010F1010F02D1002086F84500FDF7ACFDE7
:1035800003A96846FDF710F9002824D1300000F0A7
:103590002FF900289ED03068002807D1FDF782FD62
:1035A0007068FDF7F7F90500FDF796FD039916F130
:1035B0002400FDF79CF8300000F0E3F8FCF773FFFF
:1035C00000288CD15FF0805010490860BFF34F8F06
:1035D000BFF36F8F83E7300000F0D3F8FCF763FF91
:1035E000300000F005F900283FF479AF002D0AD033
:1035F000FDF758FD300000F062F801007068FDF73B
:1036000075FAFDF769FD002004B070BD04ED00E01F
:103610002DE9F84305000E001400002D07D15020BD
:1036200080F31188BFF34F8FBFF36F8FFEE7002E3B
:1036300002D1286C002801D1012000E00020C0B296
:10364000002807D1502080F31188BFF34F8FBFF3BC
:103650006F8FFEE7FDF76AFDEFF31188502080F3CE
:103660001188BFF34F8FBFF36F8FAF6B002F21D047
:1036700095F944903100280000F06EF87F1EAF638A
:1036800048465FF0FF3140B288420DD128690028DA
:103690000ED015F11000FDF741F8002808D0002CDD
:1036A00006D00120206003E019F1010985F844905B
:1036B000012000E0002088F31188BDE8F283416A10
:1036C000002904D0006B0068D0F1070000E0002062
:1036D00070472DE9F041060015000027B46B306CEF
:1036E000002809D13068002831D17068FDF7A4F9AD
:1036F0000700002070602AE0002D0FD1326CB56801
:103700002800FEF7CBF8B068316C0844B060B068B0
:10371000716888421BD33068B06018E0326CD6F80C
:103720000C804046FEF7BAF8F068316C4942084414
:10373000F060F0683168884204D27068316C4942A8
:103740000844F060022D02D1002C00D0641E641CDD
:10375000B4633800BDE8F08110B50C00016C00299D
:103760000ED0C168026C1144C160C16842689142C8
:1037700001D30168C160026CC1682000FEF78EF8B9
:1037800010BD70B50400FDF78DFC94F9455008E0BC
:1037900014F12400FCF7C2FF002801D0FDF745F822
:1037A0006D1E280040B2012802DB606A0028EFD1BC
:1037B0005FF0FF3584F84550FDF78EFCFDF772FC95
:1037C00094F9446008E014F11000FCF7A7FF00280A
:1037D00001D0FDF72AF8761E300040B2012802DB46
:1037E00020690028EFD184F84450FDF775FC70BDC6
:1037F00010B50400FDF756FCA06B002801D1012490
:1038000000E00024FDF768FC200010BD10B50400A6
:10381000FDF748FCA06BE16B884201D1012400E078
:103820000024FDF759FC200010BD000010B586B043
:1038300018220021684600F0D7FC594C59482060F6
:103840005FF4803060600020A060012020610020D3
:103850006076002084F820004FF48060E0624FF42E
:103860008070A0620020E0600320E061012084F805
:103870003000082060610020207600206063200076
:10388000FEF760F8002801D000F024FB042000902F
:103890000120019000200390052002900020049058
:1038A0000020059069462000FEF7A0FA002801D00C
:1038B00000F010FB052000900220019069462000D6
:1038C000FEF794FA002801D000F004FB0B200090D2
:1038D0000320019069462000FEF788FA002801D0F5
:1038E00000F0F8FA06B010BD38B586B00400142216
:1038F000002101A800F078FC20682A4988424CD1B8
:103900002948016851F080510160016811F080512F
:1039100000910099016851F400310160016811F4CF
:10392000003100910099016851F4002101600068A4
:1039300010F4002000900098802001900320029055
:103940000020039001A95FF09040FFF7DDF83020E0
:103950000190032002900020039001A91348FFF773
:10396000D3F8134D13482860002068600020A86039
:103970008020E8604FF4807028614FF480606861B7
:103980002020A8610020E861280000F015F8002838
:1039900001D000F09FFAA5636C6207B030BD000053
:1039A00014340020000100501410024000080048A8
:1039B000383600200804024010B504000020002C16
:1039C00001D1012022E0022084F821002068016852
:1039D0006FF30D116268A0680243E068024320693A
:1039E000024360690243A0690243E0690243114354
:1039F00020680160200000F012F90020A06301207F
:103A000084F82100002084F82000002010BD70B54B
:103A10000400002594F82000012801D1022037E09D
:103A2000012084F8200094F8210001282AD10220E6
:103A300084F821000020A06320680068400840004E
:103A400026683060200000F0D4F8E06A002806D034
:103A50002068006850F00E00216808600BE02068C4
:103A6000006850F00A00216808602068006830F0A3
:103A70000400216808602068006850F00100216897
:103A8000086003E0002084F8200002252800C0B26E
:103A900070BD90F82110022906D004218163002115
:103AA00080F82010012017E00168096831F00E014C
:103AB00002681160016809684908490002681160DC
:103AC0000122016C8A40C16B4A60012180F82110FB
:103AD000002180F820100020704710B5002490F8D5
:103AE0002110022903D00421816301241BE0016815
:103AF000096831F00E01026811600168096849081F
:103B00004900026811600122016C8A40C16B4A6061
:103B1000012180F82110002180F82010416B00293C
:103B200001D0416B88472000C0B210BD10B5C16BF9
:103B30000B6801680C680422016C12FA01F10B4257
:103B400015D0610713D501680968890605D4016895
:103B5000096831F0040103681960016C8A40C16B87
:103B60004A60C16A002943D0C16A884740E0022206
:103B7000016C12FA01F10B421BD0A10719D50168A3
:103B80000968890608D40168096831F00A010368E8
:103B90001960012180F82110016C8A40C16B4A60D4
:103BA000002180F82010816A002921D0816A88478D
:103BB0001EE00822016C8A40134219D0210717D554
:103BC0000168096831F00E01026811600122016C80
:103BD0008A40C16B4A6001218163012180F8211074
:103BE000002180F82010016B002901D0016B88476B
:103BF00010BD30B40125046CA540C46B6560046839
:103C000063604368102B04D103689A600068C16048
:103C100003E0036899600068C26030BC70470168C7
:103C20000C4A91420AD202680B498A181421B2FB4D
:103C3000F1F1890001640949C16309E0026808499A
:103C40008A181421B2FBF1F1890001640549C163AE
:103C50007047000008040240F8FFFDBF000002406A
:103C6000F8FBFDBF00040240704770470148006840
:103C7000704700BF5037002010B58AB00C220021D9
:103C8000684600F0B1FA1C22002103A800F0ACFA4B
:103C9000404C41482060472060600020A06040F216
:103CA000E730E060002020610020A0612000FEF7E6
:103CB0001CFC002801D000F00DF92020009000200D
:103CC00002906946200000F099FA002801D000F027
:103CD00001F90020039000200490002005900020AE
:103CE0000790002203A92000FEF712FD002801D052
:103CF00000F0F0F80AB010BD1FB50C220021684694
:103D000000F072FA254C26482060472060600020B1
:103D1000A0600020E0600020A0612000FEF746FBCC
:103D2000002801D000F0D6F800200090002002907A
:103D30006946200000F062FA002801D000F0CAF8BD
:103D40001FBD81B000681449884209D11548016837
:103D500051F002010160006810F00200009000982C
:103D600001B0704780B500680D49884211D10D48F7
:103D7000016851F010010160006810F0100000901F
:103D8000009800220521362000F0E0FA362000F0ED
:103D9000EEFA01BDA035002000040040EC35002003
:103DA000001000401C100240704770477047000030
:103DB00038B500F0EBFA00F037F800F0F9FA00F04F
:103DC0003DFBFFF733FDFFF757FFFFF795FF00F0CF
:103DD0004BFB3D4C3D4D29002000FEF7EEFF2068D7
:103DE000002801D1012000E00020216811F1010F1D
:103DF00001D1012100E00021C0B2C9B2084300286E
:103E00000DD05FF4E130206002202071002020817D
:103E10000020E0802B0094E80700FEF7B1FFFDF7DB
:103E2000F4F9FDF771FCFEE780B59EB02822002171
:103E300005A800F0D9F914220021684600F0D4F951
:103E40003C2200210FA800F0CFF9012005905FF47B
:103E500080300690002107910121099102210C91E7
:103E60000D905FF480100E9005A800F05FFB002815
:103E700001D000F02FF80F200090022001900020C8
:103E800002904FF480600390002004900221684665
:103E900000F086FE002801D000F01CF802200F90F0
:103EA000002012900FA800F0F1FF002801D000F0D0
:103EB00011F81FB000BD80B500680549884201D1E6
:103EC00001F00CF901BD000000000020009C00087A
:103ED00000140040704770477047704770470000FB
:103EE000002201F00BB9000038B5080014000025CD
:103EF00072B6DBB208222100C0B201F05CF90128E1
:103F000001D003250FE044F60130844201D3232081
:103F100003E09A486100B0FBF1F080B201F092F941
:103F2000012800D0032562B62800C0B232BD80B59A
:103F300072B60020924908700021012001F00EF9AC
:103F400001F0A7F962B601BD80B572B6002100206C
:103F500001F004F901F0A6F962B601BD2DE9F843BC
:103F600004000D0016000020002772B6DFF814824E
:103F7000B8F80000B0F5807F06DBA12282498348B3
:103F800001F0A0F9AFF30080B8F80000042814DBBA
:103F9000DFF8FC91B8F80010484601F0A5F90028B8
:103FA0000BD199F800002070B8F80000C01E3080D6
:103FB00019F101002860012000E0052762B63800F1
:103FC000C0B2BDE8F28338B5002472B66C4B1B78E2
:103FD000012B23D16F4B491E19606F4D01212980A0
:103FE00019680870288812182A802988186801F032
:103FF0007BF929884A1C2A80654A89B2505429884D
:104000004B1C2B8080B2000A89B2505401206349B6
:1040100008700121002001F0A1F800E0052462B63B
:104020002000C0B232BD1CB500245C4800780028D6
:1040300006D0EB2254495A4801F044F9AFF300800E
:10404000684601F0F3F84E480178002905D00229AE
:1040500019D008D3032903D027E001F01AF924E08E
:1040600001F017F921E0474900220A800A88531C11
:104070000B809DF80010464B92B2995402210170BA
:1040800001F007F911E03F490A88B2F5807F08DAAC
:104090000888421C0A809DF800103D4A80B21154E5
:1040A00001E00321017001F0F4F82000C0B216BD58
:1040B00070B5002432480078012807D04FF493727D
:1040C0003149384801F0FEF8AFF30080334E3078C4
:1040D000002802D0012805D01EE00021012001F0B7
:1040E0003DF819E02C4D288800280BD0294E306867
:1040F000007801F08CF83068401C30602888401E41
:10410000288009E0032000F056F804000021012077
:1041100001F024F8002030702000C0B270BD38B526
:104120000024174D2878002804D0022807D003283F
:104130000AD00AE0002000F03EF8040016E001205A
:1041400000F039F8040011E010E0287800280DD0C4
:10415000287802280AD02878032807D04FF4B072B4
:104160000949114801F0AEF8AFF3008001F09AF868
:10417000012028702000C0B232BD0000A07F1700CF
:10418000A43700209837002004650008F466000872
:10419000B03100204837002096370020A337002098
:1041A000BC660008D8660008A064000800200C491E
:1041B0000870012070470121094A117009490870EF
:1041C0000120704702000020054B1978002905D016
:1041D000044800781070002018700120C0B27047A9
:1041E000A7370020A637002010B5044610460A461F
:1041F0000146204600F07EFF204610BD70B490F8C6
:104200003C20012A01D102203FE0012280F83C201D
:10421000022280F83D2002685468026893681C4DB1
:104220000268AA4203D002681C4EB24203D134F4A1
:1042300070044A68144334F070040A681443026836
:1042400054600268AA4213D00268B2F1804F0FD0C6
:104250000268104CA2420BD002680F4CA24207D059
:1042600002680E4CA24203D002680D4CA24205D156
:1042700033F0800389680B4301688B60012180F86B
:104280003D10002180F83C10002070BC70470000F9
:10429000002C0140000400400008004000340140B0
:1042A0000040014010F00700334B1A684FF6FF0141
:1042B0000A40324951EA00210A431A6070472E48E9
:1042C0000068C0F302207047010049B2002908D4F9
:1042D000012210F01F018A40294940B2400941F8EB
:1042E00020207047020052B2002A04D40901254A56
:1042F00040B2115407E00901234A40B210F00F0008
:10430000104400F8041C704710B410F00700D0F1FE
:104310000703052B01D3042301E0D0F10703041D9B
:10432000072C01D2002000E0C01E012414FA03F380
:104330005B1E1940814014FA00F0401E10400843F3
:1043400010BC704780B5FFF7ADFF01BD70B504002C
:104350000D0016000020FFF7B2FF32002900FFF722
:10436000D3FF0100200040B2FFF7BCFF70BD80B555
:1043700040B2FFF7A9FF01BD0CED00E00000FA0517
:1043800000E100E000E400E018ED00E080B507483F
:10439000016851F0100101600320FFF7D3FF0020F6
:1043A00000F0C2FF01F000F8002002BD0020024032
:1043B00010B586B01422002101A8FFF715FF1D4893
:1043C000016851F480010160016811F480010091DD
:1043D0000099016851F400310160016811F4003165
:1043E00000910099016851F400210160016811F405
:1043F000002100910099016851F48021016000685A
:1044000010F48020009000980B4C00224FF4E04103
:104410002000FEF74CFC4FF4E04001900120029098
:10442000002003900020049001A92000FEF76CFBFF
:1044300006B010BD141002400004004880B50948C1
:10444000016851F002010160006810F00200009064
:104450000098002205213820FFF778FF3820FFF769
:1044600086FF01BD1410024080B52C482C49016024
:104470005FF4E1314160002181600021C1600021D1
:1044800001610C214161002181610021C161002194
:1044900001620021416200230022002100F0A4FFFC
:1044A000002801D0FFF716FD01BD10B586B004004D
:1044B0001422002101A8FFF797FE206818498842BE
:1044C0002AD11848016851F400310160006810F4E5
:1044D0000030009000981448016851F400310160E8
:1044E000006810F40030009000980E200190022027
:1044F000029000200390032004900720059001A95A
:104500005FF09040FEF700FB002205212620FFF718
:104510001DFF2620FFF72BFF06B010BD3C33002007
:10452000004400401C100240141002402DE9F843E2
:104530000400002C01D1012030E32078C00740F1B5
:10454000BE80DFF80009016811F00C0104290AD0CF
:10455000016811F00C01082928D1006810F480309E
:10456000B0F5803F22D14FF48040B0FA80F151F095
:104570002001C9B24909012903D1DFF8C41809682B
:1045800006E0B0FA80F1B0FA80F1DFF8D0180968DF
:10459000B0FA80F010F01F00C140C80740F18F80D2
:1045A0006068002840F08B800120F7E26068B0F579
:1045B000803F06D1DFF88808016851F4803101603E
:1045C00026E0606800280AD1DFF87408016831F439
:1045D00080310160016831F48021016018E0606879
:1045E000B0F5A02F0AD1DFF85808016851F48021F6
:1045F0000160016851F48031016009E0DFF8400892
:10460000016831F480310160016831F4802101607A
:10461000DFF840180A6812091201A06802430A6014
:104620006068002825D0FFF721FB05004FF480408B
:10463000B0FA80F151F02001C9B24909012903D132
:10464000DFF8FC17096806E0B0FA80F1B0FA80F1F3
:10465000DFF808180968B0FA80F010F01F00C140B8
:10466000C8072CD4FFF702FB401B6528DED30320CC
:1046700094E2FFF7FBFA05004FF48040B0FA80F1B6
:1046800051F02001C9B24909012903D1DFF8B0175F
:10469000096806E0B0FA80F1B0FA80F1DFF8BC17E3
:1046A0000968B0FA80F010F01F00C140C80706D5B5
:1046B000FFF7DCFA401B6528DED303206EE220788A
:1046C00080073CD5DFF87C07016811F00C0F07D09C
:1046D000016811F00C01082960D10068C0035DD4A5
:1046E0005FF08040B0FA80F151F02001C9B2490971
:1046F000012903D1DFF84817096806E0B0FA80F114
:10470000B0FA80F1DFF854170968B0FA80F010F0C1
:104710001F00C140C80704D52069012801D001202D
:104720003CE2DFF81C0701685FF0F852B2FA82F24F
:1047300031F0F801636913FA02F211430160207845
:10474000000740F1C480A069002800F09A80012091
:104750005FF00041B1FA81F1DFF8FC2612EB810233
:104760001060FFF783FA05005FF08040B0FA80F137
:10477000B0FA80F1B0FA80F1DFF8E0160968B0FA1B
:1047800080F010F01F00C140C80700F1A080FFF7C3
:104790006DFA401B0328E7D30320FFE120690028BE
:1047A0003ED001205FF00041B1FA81F1DFF8B02680
:1047B00012EB81021060FFF759FA05005FF08040AC
:1047C000B0FA80F151F02001C9B24909012903D1A1
:1047D000DFF86C16096806E0B0FA80F1B0FA80F1F3
:1047E000DFF878160968B0FA80F010F01F00C140B9
:1047F000C80706D4FFF73AFA401B0328DED303208C
:10480000CCE1DFF83C0601685FF0F852B2FA82F2C0
:1048100031F0F801636913FA02F2114301608EE787
:1048200000205FF00041B1FA81F1DFF8342612EB8D
:1048300081021060FFF71AFA05005FF08040B0FABD
:1048400080F151F02001C9B24909012903D1DFF8F3
:10485000F015096806E0B0FA80F1B0FA80F1DFF8EF
:10486000FC150968B0FA80F010F01F00C140C807BD
:104870007FF565AFFFF7FAF9401B0328DDD303206E
:104880008CE100205FF00041B1FA81F1DFF8C8252A
:1048900012EB81021060FFF7E9F905005FF080403C
:1048A000B0FA80F1B0FA80F1B0FA80F1DFF8AC151F
:1048B0000968B0FA80F010F01F00C140C80706D5A3
:1048C000FFF7D4F9401B0328E8D3032066E12078E2
:1048D000400740F1B1800026DFF888552868C00005
:1048E00009D4286850F080502860286810F0805063
:1048F000009000980126DFF870753868C00511D463
:10490000386850F480703860FFF7B0F98046386836
:10491000C00507D4FFF7AAF9B0EB08006528F6D365
:1049200003203BE1E068012806D1DFF8400501687B
:1049300051F00101016025E0E06800280AD1DFF8AC
:104940002C050168490849000160016831F0040143
:10495000016017E0E06805280AD1DFF8100501685A
:1049600051F004010160016851F00101016009E0AA
:10497000DFF8F8040168490849000160016831F076
:1049800004010160E068002827D0FFF76FF90700F5
:104990005FF08040B0FA80F1B0FA80F151F0400150
:1049A000C9B24909022903D1DFF8C014096804E03B
:1049B000B0FA80F1DFF8A4140968B0FA80F010F0C2
:1049C0001F00C140C80730D4FFF750F9C01B41F2A7
:1049D00089318842DCD30320E0E0FFF747F9070084
:1049E0005FF08040B0FA80F1B0FA80F151F0400100
:1049F000C9B24909022903D1DFF87014096804E03B
:104A0000B0FA80F1DFF854140968B0FA80F010F0C1
:104A10001F00C140C80708D5FFF728F9C01B41F2A5
:104A200089318842DCD30320B8E0F6B2012E03D1ED
:104A3000286830F080502860E069002800F0AD80E0
:104A4000DFF80064306810F00C00082800F0938054
:104A5000E069022861D18027DFF804840020B7FADA
:104A600087F118EB81010860FFF700F981464025C6
:104A7000B5FA85F050F02000C0B24009012803D1FA
:104A8000DFF8BC03006806E0B5FA85F0B5FA85F0FA
:104A9000DFF8C8030068B5FA85F111F01F01C840BE
:104AA000C00707D5FFF7E2F8B0EB09000328DED313
:104AB000032073E0316831F47411606A0143206AA5
:104AC000014331600120B7FA87F118EB8108C8F87B
:104AD0000000FFF7CBF80400B5FA85F050F0200095
:104AE000C0B24009012803D1DFF85403006806E092
:104AF000B5FA85F0B5FA85F0DFF860030068B5FA1D
:104B000085F111F01F01C840C00746D4FFF7AEF889
:104B1000001B0328E0D3032040E000208021B1FAED
:104B200081F1DFF83C2312EB81021060FFF79EF861
:104B300004004020B0FA80F151F02001C9B24909C7
:104B4000012903D1DFF8F812096806E0B0FA80F114
:104B5000B0FA80F1DFF804130968B0FA80F010F0C1
:104B60001F00C140C80718D5FFF780F8001B0328B5
:104B7000DFD3032012E0E069012801D101200DE01C
:104B8000306810F48031226A914204D110F4701020
:104B9000616A884201D0012000E00020BDE8F28374
:104BA0002DE9F04104000D000020002C01D101206E
:104BB000D2E0DFF8BC62306810F00700A8420BD2E8
:104BC0003068C008C00028433060306810F007002B
:104BD000A84201D00120BFE02078800707D5DFF888
:104BE00064120A6832F0F002A06802430A6020787A
:104BF000C00776D5606801281DD14FF48040B0FA17
:104C000080F151F02001C9B24909012903D1DFF82F
:104C10003012096806E0B0FA80F1B0FA80F1DFF8EE
:104C20003C120968B0FA80F010F01F00C140C807BC
:104C30003CD4012090E0606802281BD14020B0FAEB
:104C400080F151F02001C9B24909012902D17C4902
:104C5000096806E0B0FA80F1B0FA80F1DFF8FC11E3
:104C60000968B0FA80F010F01F00C140C8071DD4D9
:104C7000012071E05FF08040B0FA80F151F0200136
:104C8000C9B24909012902D16D49096805E0B0FAA4
:104C900080F1B0FA80F171490968B0FA80F010F043
:104CA0001F00C140C80701D4012055E0654F396895
:104CB00089088900606801433960FEF7D7FF8046A4
:104CC000386810F00C006168B0EB810F09D0FEF776
:104CD000CDFFB0EB080041F289318842F0D30320C8
:104CE0003AE0306810F0070085420BD23068C00807
:104CF000C00028433060306810F00700A84201D09F
:104D0000012029E02078400706D54E490A6832F490
:104D1000E062E06802430A602078000707D549484E
:104D2000016831F46051226951EAC201016000F06A
:104D300015F8444909684F4A11F0F0015FF07063BB
:104D4000B3FA83F3D940515CC840404908604048F9
:104D5000006800F0E9FA0020BDE8F08110B40020FE
:104D600000200020002000203648016811F00C00CF
:104D7000042802D0082802D021E03F4820E03F4824
:104D800011F470124FF47053B3FA83F3DA40805C7D
:104D9000304A12683A4B12F00F025FF07044B4FAD6
:104DA00084F4E2409A5CC90306D53349B1FBF2F2C0
:104DB00001001000484301E03249484300E0224826
:104DC00010BC704721480068704780B5FFF7FAFFB4
:104DD0001C4909682C4A11F4E0615FF46003B3FADE
:104DE00083F3D940515CC84002BD80B5FFF7EAFFAC
:104DF00014490968244A11F460515FF4E013B3FACE
:104E000083F3D940515CC84002BD0F2202600D4AB5
:104E1000136813F003034360136813F0F003836017
:104E2000136813F4E063C3601268D20812F4E062FE
:104E300002610F48006810F007000860704700002A
:104E4000001002400410024000127A009800002076
:104E5000940000202C1002408004424224100240A2
:104E6000000042421C10024000700040201002402E
:104E7000002002402C670008001BB7000C670008E8
:104E80001C67000800093D00846700082DE9FC410B
:104E900004000020002000262068C0037CD5DFF835
:104EA0001C522868C00009D4286850F0805028603F
:104EB000286810F08050009000980126DFF80072FA
:104EC0003868C00511D4386850F480703860FEF737
:104ED000CDFE80463868C00507D4FEF7C7FEB0EBAC
:104EE00008006528F6D30320E6E0DFF8D8713868BB
:104EF00010F44070002842D0616811F4407188427B
:104F00003DD0386830F44070DFF8BC114FF40042F7
:104F10000123B2FA82FC11EB8C0CCCF80030002398
:104F2000B2FA82F211EB82010B603860C00726D51D
:104F3000FEF79CFE80465FF08040B0FA80F1B0FA48
:104F400080F151F04001C9B24909022901D1396803
:104F500004E0B0FA80F1DFF874110968B0FA80F06B
:104F600010F01F00C140C80709D4FEF77FFEB0EB68
:104F7000080041F289318842DDD303209CE0396882
:104F800031F44071606801433960F6B2012E03D1FB
:104F9000286830F0805028602078C00707D5DFF8F7
:104FA00030110A6892089200A06802430A602078D3
:104FB000800707D5DFF818110A6832F44032E0683C
:104FC00002430A602078400707D5DFF804110A6819
:104FD00032F44022206902430A602078800607D517
:104FE000DFF8EC100A6832F01002E06902430A6050
:104FF0002068800307D5DFF8DC100A6832F48002ED
:10500000A06B02430A602078400607D5DFF8C01085
:105010000A6832F02002206A02430A602078000702
:1050200007D5DFF8AC100A6832F440126069024319
:105030000A602078C00607D5DFF894100A6832F4B9
:105040004002A06902430A602068800507D5DFF8A6
:1050500084100A6832F40002E06A02430A60207891
:10506000000607D5DFF870100A6832F4F872606A3B
:1050700002430A602068C00507D5DFF85C100A68A3
:1050800032F47852A06A02430A602068C00407D54F
:10509000DFF83C100A6832F48072206B02430A6029
:1050A0002068800407D5DFF828100A6832F40072FF
:1050B000606B02430A600020BDE8F6811C100240CC
:1050C00000700040201002400004424224100240C0
:1050D00030100240041002402C10024003480168C6
:1050E000034A127889180160704700BF50370020CA
:1050F0009E00002062F30F2262F31F42401810F05E
:10510000030308D0C91A1FD3DB0748BF00F8012DDD
:1051100028BF20F8022D130030B41446154610396C
:1051200028BF20E93C00FAD8490728BF20E90C0035
:1051300048BF40F8042D890028BF20F8022D48BF41
:1051400000F8012D30BC7047C91818BF00F8012DB8
:10515000CB0728BF00F8012D70470000C0B200281F
:1051600009D0364802681268126852F020020068BE
:105170000068026008E0314802681268126832F084
:105180002002006800680260C9B2002909D02B48DB
:1051900001680968096851F08001006800680160D1
:1051A00008E0264801680968096831F08001006854
:1051B00000680160704710B42048214A04682260EA
:1051C0000268516000210268D160DBB2002B03D07D
:1051D000022B11D007D317E0002102689160002153
:1051E0000068016110E04FF48051026891604FF453
:1051F000C0610068016107E04FF48051026891606E
:105200004FF4806100680161012010BC704701B556
:105210000A23012269460948006800F02FF9002896
:1052200001D1012000E00020C0B202BD034909689D
:105230000968898C017001207047000090000020EF
:10524000004400403EB50500194C1A482060FFF7A5
:10525000BCFD1949B0FBF1F0401E60600020A06069
:105260003120E060154805802000FDF79FF80028F8
:1052700001D000200CE02020009000200290694620
:105280002000FEF7BBFF002801D0002000E0012035
:105290003EBD80B509480088094908800448FDF7EB
:1052A000C2F801BD80B50248FDF702F901BD00005A
:1052B000EC3500200010004040420F009A370020DB
:1052C0009C37002000B583B00091019202906A469D
:1052D00004491820ABBE002801D100F0EFFC03B058
:1052E00000BD00BF1010020010B40300FF20040036
:1052F0000AE0C0B21A78504002005B1C0848805C8B
:1053000044402000074CA45C0A00511E92B2002ABF
:10531000EFD1E4B2C0B250EA042080B210BC7047B2
:10532000B4600008B461000818B587B0010000201F
:10533000002000223720FFF709F83720FFF717F881
:105340001548016851F020010160006810F020004C
:105350000090009801A902A8FFF757FDFFF735FD5F
:1053600040000E49B0FBF1F0401E0D4C0D4921608C
:1053700040F2E731E1606060002020610020A06021
:105380002000FDF713F8002803D12000FDF74BF8AB
:1053900000E0012008B010BD1C10024040420F0088
:1053A000543500200014004080B50D48016851F0CC
:1053B00001010160006810F00100009000980948A8
:1053C000016851F080510160006810F08050009039
:1053D000009800220F217FF00100FEF7B7FF01BD0A
:1053E000181002401C100240F8B504000D00160011
:1053F0001F00002C01D101203DE0A06F002805D145
:10540000002084F874002000FFF74FF82420A067E4
:10541000206800684008400021680860200000F013
:10542000DFF9012801D1012025E0606A002802D0BF
:10543000200000F00FFB2068806850F48040216855
:1054400088602068806830F40040054320688560EB
:10545000760556EA0746206800686FF31940064350
:10546000206806602068006850F00100216808602C
:10547000200000F05CFBF2BD704700002DE9FC410C
:1054800006000D0014001F00B06F20285BD1002D16
:1054900003D0200080B2002801D1012054E096F80A
:1054A0007400012801D102204EE0012086F874002A
:1054B0000020C6F880002120B067FEF7D7FB8046A9
:1054C000A6F85040A6F85240B068B0F5805F04D10D
:1054D0003069002801D1002401E02C0000250020C3
:1054E00086F8740011E0207831680885641C07E0B4
:1054F000002CF8D12888C005C00D31680885AD1C86
:10550000B6F85200401EA6F85200B6F85200002825
:105510000AD00097434600228021300000F03EFB75
:105520000028E5D003200FE00097434600224021E9
:10553000300000F033FB002801D0032004E02020DD
:10554000B067002000E00220BDE8F68138B5040015
:105550002068C169206802682068836840F60F00EF
:10556000084000280AD18D0608D5950606D5606E3C
:10557000002802D02000616E884730E1002800F04A
:105580009B80D80704D4DFF8A804024200F094807E
:1055900011F00100C0B200280AD0D00508D50120C2
:1055A00025682862D4F8800050F00100C4F880001B
:1055B00088070DD513F00100C0B2002808D00220E2
:1055C00025682862D4F8800050F00400C4F88000F8
:1055D00048070DD513F00100C0B2002808D0042000
:1055E00025682862D4F8800050F00200C4F88000DA
:1055F00008070FD5900604D413F00103DBB2002B8B
:1056000008D0082023681862D4F8800050F0080001
:10561000C4F8800008050BD5500109D54FF400608F
:1056200023681862D4F8800050F02000C4F880008D
:10563000D4F8800000283ED0880607D5900605D50E
:10564000606E002802D02000616E8847D4F8800088
:1056500021688968490602D410F0280F25D020005F
:1056600000F0F5FA2068806840061AD52068806846
:1056700030F0400021688860206F00280DD00FF2C4
:105680000960216F4863206FFEF727FA002812D0C7
:10569000206F216F496B88470DE0200000F011FB5F
:1056A00009E0200000F00DFB05E0200000F009FB00
:1056B0000020C4F8800092E0206E012870D1C80656
:1056C0006ED5D0066CD510202168086220688068ED
:1056D00040063BD5206F00684168080080B2002872
:1056E00033D00800B4F8582080B290422DD2A4F8EC
:1056F0005A10206F806920281ED02068006830F47E
:105700008070216808602068806840084000216837
:1057100088602068806830F0400021688860202020
:10572000E067002020662068006830F010002168E3
:105730000860206FFEF7ADF9B4F85810B4F85A00BD
:10574000091A89B2200000F0BDFA48E0B4F8580008
:10575000B4F85A10411AB4F85A0000281FD00800B3
:1057600080B200281BD02068006830F49070226856
:105770001060206880684008400022689060202007
:10578000E06700202066002060662068006830F036
:1057900010002268106089B2200000F093FA1EE029
:1057A000C80209D5580207D55FF480102168086245
:1057B0002000FFF761FE12E0080608D5100606D5A6
:1057C000A06E002802D02000A16E884707E048069E
:1057D00005D5500603D5200000F061FAFFE731BD82
:1057E00038B504000025A1682069014360690143C0
:1057F000E0690143206802688E4802401143206836
:1058000001602068416831F44051E068014320683C
:105810004160A169206A01432068806830F43060EB
:1058200001432068816020688349884215D18348FC
:10583000006810F00300002805D0022809D006D324
:10584000032802D007E0012080E002207EE004204F
:105850007CE008207AE0102078E0206878498842CF
:1058600019D17648006810F44030002809D0B0F50E
:10587000803F0AD0B0F5003F09D0B0F5403F02D0DC
:1058800007E0002062E0022060E004205EE00820E3
:105890005CE010205AE020686A49884219D16748C4
:1058A000006810F44020002809D0B0F5802F0AD0FD
:1058B000B0F5002F09D0B0F5402F02D007E000204E
:1058C00044E0022042E0042040E008203EE01020B6
:1058D0003CE020685C49884219D15848006810F4BF
:1058E0004010002809D0B0F5801F0AD0B0F5001F85
:1058F00009D0B0F5401F02D007E0002026E00220CA
:1059000024E0042022E0082020E010201EE020688F
:105910004E49884219D14948006810F440000028D7
:1059200009D0B0F5800F0AD0B0F5000F09D0B0F55E
:10593000400F02D007E0002008E0022006E004202B
:1059400004E0082002E0102000E01020E169B1F539
:10595000004F35D1C0B2002808D0012809D0022854
:105960000AD004280AD008280BD00DE0FFF72DFA42
:105970000CE0FFF73AFA09E0354807E0FFF7EEF9E7
:1059800004E04FF4004001E000200125002846D04B
:105990006168490811EB40016068B1FBF0F080B22A
:1059A0004FF6F071B0F110028A4207D20140C0F305
:1059B0004200014389B22068C16030E001252EE039
:1059C000C0B2002808D0012809D002280AD0042833
:1059D0000AD008280BD00DE0FFF7F7F90CE0FFF72D
:1059E00004FA09E01A4807E0FFF7B8F904E04FF4B9
:1059F000004001E000200125002810D0616810EB74
:105A000051006168B0FBF1F080B2B0F110014FF6C7
:105A1000F072914202D22168C86000E001250020A6
:105A200060660020A0662800C0B232BD0000000001
:105A300020010004F369FFFF0038014030100240EC
:105A40000044004000480040004C0040005000402E
:105A500000127A0090F82410C90707D501684A6837
:105A600032F40032816A0A4301684A6090F82410D7
:105A7000890707D501684A6832F48032C16A0A434F
:105A800001684A6090F82410490707D501684A6800
:105A900032F48022016B0A4301684A6090F82410B6
:105AA000090707D501684A6832F40042416B0A438E
:105AB00001684A6090F82410C90607D501688A6811
:105AC00032F48052816B0A4301688A6090F8241096
:105AD000890607D501688A6832F40052C16B0A430F
