:020000040800F2
:10000000285F0020AD550008DD520008DF520008CF
:10001000E1520008E3520008E55200080000000029
:10002000000000000000000000000000F54C000887
:10003000E7520008000000009D4C0008A54200089F
:10004000E5550008E9550008ED550008F155000890
:10005000F5550008F9550008FD550008015600083F
:1000600005560008095600080D560008E952000818
:100070001156000815560008195600081D560008AC
:100080002156000825560008295600082D5600085C
:100090003156000835560008395600083D5600080C
:1000A0004156000845560008495600084D560008BC
:1000B0005156000855560008595600085D5600086C
:1000C0006156000865560008695600086D5600081C
:1000D00071560008EF52000875560008795600085E
:1000E0007D5600088156000885560008895600088C
:1000F0008D5600089156000895560008995600083C
:100100000000000000000000000000009D560008F4
:10011000A1560008A55600082F5300086353000895
:10012000A9560008AD560008B1560008B55600089B
:10013000B9560008BD56000800000000000000008D
:10014000C1560008C5560008C95600080000000046
:10015000000000000000000000000000000000009F
:100160000000000000000000CD560008D156000835
:10017000D55600080000000000000000000000004C
:1001800000000000D9560008F8B500260446009685
:100190000CB90120F2BD04F130052869C1064DD427
:1001A000286998BB6E61E8612873AE61204600F053
:1001B000F1FC20688168C80028D400F0A3F9064645
:1001C0002869C10622D4300020D12869DFF808232D
:1001D000DFF8083320F4885040F0020028612068DE
:1001E000816821F0405181602068816841F0805130
:1001F00081600A201168B1FBF3F34343009302E0EE
:100200000098401E009000980028F9D1206881686D
:10021000CA0002D58068810010D5286920F002004C
:1002200040F0100000F0BBF82869296921F00201B4
:1002300041F01001296101263046F2BD2869C1064E
:10024000F3D43000F1D1226890684107EDD42869D9
:10025000DFF88C32DFF88C72DFF88C1220F48070BB
:1002600040F002002861B2F1A04FDFF880020ED00A
:10027000824208BF4FF0A04009D0BA42DFF87012A6
:1002800008BF184603D09A420CBF38460020D2F867
:1002900008C00CF0030CBCF1010F02D11268D207A8
:1002A0000ED438B1826802F00302012A02D100683C
:1002B000C20705D4086820F4403260681043086023
:1002C0006968607EE268012914BF4FF4805C4FF0DA
:1002D000000C4CEA40310A43A16841EA020C94F850
:1002E0002020012A0FD138B9606A401E400440F432
:1002F000803040EA0C0C06E0286920F0020040F053
:10030000200000F04CF8A16A2268012918D0BA42F6
:1003100018BF9A4210D1B1F5307F08BF4FF4E07199
:100320000AD0B1F5807F08BF4FF4307104D0B1F529
:10033000E07F08BF4FF48071E06A014341EA0C0C92
:10034000916811F00C0F0BD1D168DFF8A8010140C2
:10035000D1602878217E400040EA813040EA0C0CD0
:100360002168DFF89401CA6802404CEA0200C860C4
:10037000216920680129016B05D1E2690909521E32
:1003800042EA011101E009090901016300206861E5
:10039000296921F0020141F0010129614CE728613E
:1003A000686940F00100686170472DE9F84F054623
:1003B00088462868816814464A0700F1868005F15E
:1003C0003C073978012908BF022000F08180012113
:1003D0003970B0F1A04F444EDFF81491DFF80CA152
:1003E00016BF50453068D9F8000010F01F0068D1E2
:1003F000284600F0D8FA002883465FD17968DFF8F4
:100400002401014041F4807179602968B1F1A04F65
:1004100016BF51453068D9F8000010F01F001EBF0C
:10042000B1F1A04F2F48814207D17A6822F480129F
:100430007A60C868810110D50DE0786840F48010BA
:10044000786051450CBFDFF8C400DFF8C4000068D5
:1004500010F0007001D000F05DF823467868C10408
:1004600046BFB86820F006000020B860002139704F
:100470004246AC6BDFF8B000A062A96BDFF8AC00BD
:10048000C862A96BDFF8A80008631C202C682060F4
:100490002868416841F0100141602868C16841F056
:1004A0000101C160286800F14001A86B00F0FFFB6A
:1004B0002868816841F00401816008E000203870FC
:1004C00005E08B460021397001E04FF0020B5846E1
:1004D000BDE8F28F00000000D800002040420F006D
:1004E00000050050000400500803005000010050B7
:1004F00008070050FDBFFFFF07C0F0FF044620685B
:1005000081687047204600F078BA00000C00005067
:100510000C040050786820F4005040F4805078605B
:1005200070470000FEF1FFFF470900088B09000833
:10053000910900082DE9F8410A46002100F13C0428
:1005400000912578012D08BF022000F0678101236A
:10055000237003689D686E0700F15881576815681D
:100560001F26052F4FF0060C0BD20CFB07F7D3F814
:1005700030C0BE402CEA060605FA07F737431F6372
:100580001DE00A2F08D27F1F17FB0CF7D3F834C0E9
:1005900000F054F95D6312E00F2F08D20A3F17FBF9
:1005A0000CF7D3F838C000F049F99D6307E00F3F1E
:1005B00017FB0CF7D3F83CC000F040F9DD630725CA
:1005C0000668B36813F00C0F3ED1136897680A2BC6
:1005D0000DD30A3B03EB430CD6F818E005FA0CF3F5
:1005E0002EEA030307FA0CF71F43B7610BE003EB96
:1005F000430CD6F814E005FA0CF32EEA030307FACD
:100600000CF71F43776103685769DE68D2F810E082
:10061000F608760006F00606AEF1010E07FA06F6B9
:10062000BEF1030FDFF8487432D8DFE80EF0020E97
:100630001A26D3F86080D2F800C007EA080747EA14
:100640008C6700F0F1F81E6645E0D3F864C0D2F87C
:1006500000E007EA0C0747EA8E6700F0E5F85E66FF
:1006600039E0D3F868C0D2F800E007EA0C0747EA9F
:100670008E6700F0D9F89E662DE0D3F86CC0D2F8F2
:1006800000E007EA0C0747EA8E6700F0CDF821E0AA
:100690001E6E00F0D9F803D11E6E26F000461E66CD
:1006A00003685E6E00F0D0F803D15E6E26F000465F
:1006B0005E6603689E6E00F0C7F803D19E6E26F05A
:1006C00000469E660368DE6E00F0BEF803D1DE6E63
:1006D00026F00046DE6603689E6806F00306012EDB
:1006E00002D11E68F7073BD41668012707FA06F601
:1006F000D768012F06D0D3F8B05025EA0606C3F814
:10070000B0601AE0D3F8B0703E43C3F8B060176829
:10071000936806680A2F08D3093F07EB4707D6F806
:1007200018C000F085F8B56107E07F1C07EB4707AC
:10073000D6F814C000F07CF8756103683948126877
:10074000B3F1A04F16BF8342DFF82853344D102A6F
:1007500002D12E68370203E0112A03D12E68F70177
:1007600059D404E0122A56D12E68770253D4B3F13B
:10077000A04F0FD0834208BF4FF0A0400AD0DFF84F
:10078000F802DFF8D060834208BF304602D0B3429F
:1007900018BF00209E6806F00306012E02D11E68D5
:1007A000F70733D438B1866806F00306012E02D16C
:1007B0000068C6072AD4102A18D1B3F1A04F2AD155
:1007C0002868DFF8B82240F4000028600A20136887
:1007D000DFF8AC52B3FBF5F54543009500980028CF
:1007E0001EBF0098401E0090F8D114E0112A06D1D7
:1007F000B3F1A04F0FD1286840F0807004E0122AB6
:1008000009D1286840F48000286004E0606840F066
:10081000200060600121002020700846BDE8F281C0
:1008200008070050000100503E4346F00046704764
:10083000BD402CEA0505BB401D437047BE402CEA75
:100840000606BD4035437047176806F0F846B6EB1C
:10085000876F704700050050F0B50368894E00228D
:10086000B3F1A04F07D1354600F13004277B012FAB
:100870000FD10220F0BDB34208BF4FF0A045F3D026
:100880007D4D7A4CAB420CBF2546A342ECD00120F3
:10089000F0BD012727739F687F0746D4AF687F07A5
:1008A00043D4B3F1A04F16BFB342724E764E0B68DD
:1008B000764F0BB3336894F800E023F4604C4B6838
:1008C00043EA0C0343EA4E3333600068836800F068
:1008D00036F802D10068C3072CD4A86800F00300E2
:1008E000012802D12868C30724D4356808688968BC
:1008F0002F4007430F4316E0336823F4604333600F
:100900000068816801F00301012902D10068C10774
:1009100010D4A86800F00300012802D12868C1079C
:1009200008D430680740376004E0216941F02001B5
:1009300021610122002020731046F0BD936803F06E
:100940000303012B7047416A0A6C12F0500F19D152
:10095000086C40F4007008640A68D06810F4406FB6
:1009600004BF487E00280AD1086C20F48070086417
:10097000086CC20403D4086C40F001000864084607
:1009800000F03ABB896B0A6B1047406A00F0D6BB97
:10099000406A016C41F040010164416C41F0040186
:1009A000416400F0CCBB38B504462168886800F08B
:1009B0000300012802D10868C2071CD488686FF3BD
:1009C0009E1098B9886840F00100886000F0B8FB7C
:1009D000054620680168CA070DD400F0B1FB401B32
:1009E0000328F6D320680168CA07F2D4206C40F0CF
:1009F0001000206433E0002032BD38B5FFF77EFDE3
:100A000001F00301012928D10168CA0725D58168B1
:100A100001F00D0101291BD1816841F002018160C3
:100A200003202168086000F08BFB05462068816880
:100A3000C80712D500F084FB401B0328F6D32068BA
:100A40008168C807F2D5216C41F01001216403E0F0
:100A5000206C40F01000206401E0002032BD606C8A
:100A600040F001006064012032BD0000000500502C
:100A700000F0FF830803005000040050D80000205D
:100A800040420F000001005008070050E0F0FFFF57
:100A900018B589B00C22002106A800F057FB00F021
:100AA00074F8694C4FF0A04020604FF400314FF4CF
:100AB0008070A0626160012000224FF48061E061DB
:100AC000A2602261627684F82020E162E26004F193
:100AD000300001210422002301706261237643600B
:100AE0002046FFF751FB08B100F0C8FB002006903C
:100AF00006A92046FFF7B0FE08B100F0BFFB0121B8
:100B00000091019105220021039104910591029227
:100B100069462046FFF70EFD08B100F0AFFB0AB0B2
:100B200010BD10B586B000F030F8484C4848206041
:100B30004FF4003101200022A062E0616160A260F8
:100B4000226184F8202004F1300000210422617623
:100B5000E162E16001706261217641602046FFF749
:100B600013FB08B100F08AFB01210091019120469E
:100B7000002103910291049105916946FFF7DAFC87
:100B800008B100F07BFB06B010BD182200216846BA
:100B900000F0DCBA38B586B004461422002101A862
:100BA00000F0D4FA2B4D696C22682B48491CB2F135
:100BB000A04F1ED100F027F8012100F035F827489A
:100BC0002860002169608020E8604FF4807129610D
:100BD0004FF48060002268612021AA60A961EA6167
:100BE000284600F03DF808B100F048FBA5636C62B0
:100BF00007E0174B9A4204D100F005F8102100F0ED
:100C000013F807B030BD0129696408D1016841F0CB
:100C100080510160026802F08052009200990268DF
:100C200042F4003202607047006800F40030009027
:100C30000322009801910292002103914FF090400D
:100C400001A900F039BB0000141D0020641D002024
:100C500000010050981E00201410024008000240BD
:100C600010B5040001D1012010BD022084F821003C
:100C7000226813686068A1686FF30D130343E0688E
:100C80000B432169034360690B43A1690343E06996
:100C90000B4303431360204600F0F4F80021A163E6
:100CA000012084F8210084F82010002010BDF8B540
:100CB0000446002594F82000012801D10220F2BD4D
:100CC00094F821600120012E84F8200024D1022014
:100CD00004F12C0684F82100F560206807687F087D
:100CE0007F000760204600F0BCF82168306820B122
:100CF0000A6842F00E020A6008E0086840F00A0044
:100D000008602068016821F0040101602068016822
:100D100041F00101016002E084F8205002252846DC
:100D2000F2BD10B590F82110022900F1380206D06A
:100D300004231360002180F82010012010BD00F072
:100D400030F80C68640864000C60916852688B404D
:100D500053600121002280F8211080F8202000201B
:100D600010BD38B590F821100024022900F134029A
:100D700003D004205060012411E000F012F80D6847
:100D80006D086D000D60D16895688B406B60012126
:100D900080F8211080F82040116801B18847204672
:100DA00032BD01680B6823F00E030B60012301685C
:100DB0007047F8B500F12802042351690C680168F6
:100DC0000D68966903FA06F73C420FD06F070DD500
:100DD0000C68A50603D40C6824F004040C6000F031
:100DE0003BF85168B9B3BDE8F4400847022303FA61
:100DF00006F73C4215D0AF0713D50C68A50606D4FC
:100E00000C6824F00A040C60012180F8211000F025
:100E100023F8002180F820101168E1B1BDE8F4400A
:100E20000847082303FA06F6344214D02B0712D5DC
:100E30000C6824F00E040C60012300F00DF8012171
:100E4000116180F82110002180F82010916811B103
:100E5000BDE8F4400847F1BD916954698B40636077
:100E6000704770B5046CC66B0125A54075600468B9
:100E700063604068102802D1A260E16070BDA1608B
:100E8000E26070BD10B502680A4B9A4207D20A4967
:100E90008A181424B2FBF4F18900084A06E00849D4
:100EA0008A181423B2FBF3F18900064A0164C26375
:100EB00010BD000008040240F8FFFDBF0000024022
:100EC000F8FBFDBF0004024010B500F073FD7F4C3D
:100ED00047F23051B0FBF1F020607D4800F0C4FDD6
:100EE000201D00F0C1FD04F1EC00BDE8104000F051
:100EF000BBBD784B036003F1540008608021116092
:100F00007047000010B500BF7CA0734CD0E90023EF
:100F100090B00121CDE90023684600F03CFEE0607E
:100F20001C2209A877A100F0A3FE002109A800F067
:100F3000FCFD60601C2202A879A100F099FE00214E
:100F400002A800F0F2FDA06010B010BDF8B5634C2F
:100F5000634801222146FFF728FA62485C4D624E41
:100F60005D4F00F09EFE6148C168284600F0CFFD4D
:100F700001224FF40051304600F0DFFA00F027F86C
:100F800001224FF4004101E04FF40051304600F0DF
:100F9000D4FAF8684FF0FF3100F01CFE2188284693
:100FA00001F08BF9388850B100213980002200F01F
:100FB0000FF82146284600F089FD00F008F8284681
:100FC00000F066FD00280CBF01220022DCE70122B0
:100FD0004FF48041304600F0B0BA80B5002143485C
:100FE0000368009103220179002001F0A3F901F0C8
:100FF000CDF901F0D8F9FCE73748C06800F011BE20
:1010000000207047F8B50546080018BF491E0024A7
:1010100089B22F48354E13B1012B1FD052E00B2956
:101020004ED8DFE801F0060A505050500F505013D0
:10103000175000F066FD2C7006E000F065FD010A17
:10104000297008E0D0F8D00068703CE0316805F8FD
:10105000011B38E0307905F8010B34E00F292FD857
:10106000DFE801F031313131310811151C232B2E0D
:101070002E2E2E3129786D7845EA0125294600F07B
:1010800046FDF5601FE06978C0F8D0101BE0687875
:10109000012818D1104D0121298014E096E80F0095
:1010A000134F009701F0DEF90DE02F78697841EADF
:1010B00007210A204143316005E06978317102E07F
:1010C000012400E002242046F2BD00004817002061
:1010D0001C1A0020F4140020041F0020F40C00202F
:1010E000141D0020001E0020000800480000002001
:1010F000009C00080120704701207047000000009C
:1011000000000000BC5500084D0F00080000000062
:1011100000000000000100000000000000000000CE
:10112000D4550008DB0F000800000000000000009C
:101130000001000000000000000000007047704740
:1011400001484068704700BFCC00002010B504463D
:1011500010460A460146204601F0D8F9204610BD47
:1011600038B501F0DDF900F043F801F0EBF901F0DA
:1011700041FAFFF78DFCFFF7D4FC01F053FA01F0C0
:10118000ADFA01F01DFB01F050FB394C394D2946F9
:10119000204601F080F92068F0B901210022E068C2
:1011A00000BB012300201143194301430FD002214A
:1011B00021714FF4E130002240F6B83120602281E5
:1011C000E280E160009594E80F0001F04BF9FFF731
:1011D00099FE00F0A5FCFEE7002110F1010FDDD122
:1011E0000122DCE7002310F1010FDBD10120DAE757
:1011F00080B59EB02822002105A8FFF7A7FF142282
:1012000000216846FFF7A2FF3C2200210FA8FFF74C
:101210009DFF4FF480310022069107920D9101202D
:101220000590099002224FF4A0110C920E9105A88E
:1012300000F096F9022101910F204FF48061009097
:1012400000220391029204920221684600F010FBF2
:10125000012100220F9111920FA801F03DFB1FB058
:1012600000BD00680449884208BF01F00FBC704708
:1012700000000020009C000800140040704730B4BB
:10128000002513E050F8042BD30744BFA9F1010354
:101290009A18091F042942F8045BFAD213468C07F6
:1012A00044BF15809B1CC90748BF1D7050F8041B24
:1012B0000029E7D130BC70472DE9F84F0027A14A3B
:1012C000A14B4FF00F0805460E4634E09F4CA54257
:1012D00014BF052404248C409D4944EA0E0441F8BF
:1012E0002C40C143146801EA040C7468E40348BF4D
:1012F00040EA0C0CC2F800C0546801EA040C74689F
:10130000A40348BF40EA0C0CC2F804C0946801EA88
:10131000040C7468E40248BF40EA0C0CC2F808C030
:10132000D46801EA040C7168890248BF40EA0C0CD9
:10133000C2F80CC07F1C316831FA07F000F08980D8
:101340000124BC4014EA0100F4D04FEA470C032109
:1013500001FA0CF16FEA010E716801F00309B9F1AD
:10136000010F1CBF01F00301022912D1A968D6F8B0
:101370000C900EEA010109FA0CF949EA0101A96091
:10138000696821EA04047168C1F30011B9400C4393
:101390006C60B900347904F00304032C21D0EC68AC
:1013A000D6F808900EEA040409FA0CF949EA040494
:1013B000EC60347904F00304022C12D1FC0805EB34
:1013C000840401F01C09D4F820A008FA09FB2AEAD9
:1013D0000B0AD6F810B00BFA09F949EA0A09C4F861
:1013E00020902C680EEA040E347904F0030404FA09
:1013F0000CF444EA0E042C60746814F4403F99D055
:101400001C6844F001041C604FEA970C1C6804F04F
:101410000104009401F00C01009C4D4C54F82C4048
:1014200008FA01FE24EA0E0EB5F1904F08BF002421
:101430000ED0484CA54208BF012409D0464CA54215
:1014400008BF022404D0454CA5427FF43FAF0324DB
:1014500041E7BDE8F18F2DE9F04F8A464FF0000BD0
:1014600038493B4B0F2204463CE0384EB44214BF8F
:101470000526042606FA0EF6B54212D10D68C043C1
:1014800005400D604D6805404D608D6805408D60DC
:10149000CD682840C86053F8280020EA090043F8C6
:1014A000280003254FEA4B0005FA00F02568C043E9
:1014B0000540256007F01C074FEADB0504EB8505B6
:1014C00002FA07F72E6A26EA07072F62E768074045
:1014D000E760656825EA0C056560A7683840A0608C
:1014E0000BF1010B3AFA0BF025D0012000FA0BFCAE
:1014F0001CEA0A00F4D04FEA9B084FEA8B0753F826
:10150000285007F00C0E02FA0EF9B4F1904F09EAD8
:10151000050508BF0026ADD00E4EB44208BF012617
:10152000A8D00D4EB44208BF0226A3D00B4EB44241
:101530009BD103269EE7BDE8F08F0AB18161704719
:1015400081627047000401401810024000100048FA
:10155000080001400004004800080048000C004852
:101560002DE9F843040019D02078DFF8A854C1070A
:1015700016D5686800F00C0004280AD0686800F0EE
:101580000C00082802BF686800F48030B0F5803F86
:1015900041D100F0E6F918B16068002800F05F81E1
:1015A0002078DFF8806481071BD5686810F00C0F85
:1015B00007D0686800F00C0008286CD16868C10387
:1015C00069D42868C0F3400000281CBF20690128A6
:1015D00040F045812968606921F0F80141EAC001C5
:1015E00029602178080740F18C80A069DFF8381461
:1015F000002878D001220A60FFF7A2FD0746686A3A
:10160000C0F3400000287CD1FFF79AFDC01B0228E0
:10161000F5D9032026E16068B0F5803F04D1286841
:1016200040F48030286014E008B928680AE0B0F57A
:10163000A02F286806D140F480202860296841F452
:10164000803105E020F480302860296821F4802171
:101650002960E86AA168000941EA0010E862606850
:1016600060B1FFF76DFD064600F07BF9002897D1C9
:10167000FFF766FD801B6528F6D3CAE7FFF760FD1C
:10168000064600F06EF900288AD0FFF759FD801B4E
:101690006528F6D3BDE72069B0B101213160FFF7BD
:1016A0004FFD07462868C0F3400028B9FFF748FD02
:1016B000C01B0228F6D9ACE72868616920F0F80061
:1016C00040EAC10028608CE73060FFF739FD07462B
:1016D0002868C0F34000002883D0FFF731FDC01B0D
:1016E0000228F5D995E70860FFF72AFD0746686AE2
:1016F000C0F3400028B1FFF723FDC01B0228F6D934
:1017000087E72078410763D5E8690027C10009D43D
:10171000E86940F08050E8610127E86900F08050F6
:1017200000900098DFF80483D8F80000C10513D4B6
:10173000D8F8000040F48070C8F80000FFF700FD02
:101740008146D8F80000C10506D4FFF7F9FCA0EBEC
:1017500009006528F5D35CE7E068012808D008B9DE
:10176000286A09E00528286A06D140F004002862AA
:10177000286A40F0010005E0400840002862286A1D
:1017800020F00400286241F28938E06868B1FFF770
:10179000D7FC8146286AC0F34000A0B9FFF7D0FC0F
:1017A000A0EB09004045F5D333E7FFF7C9FC8146BC
:1017B000286AC0F3400030B1FFF7C2FCA0EB09007B
:1017C0004045F5D325E71FB1E86920F08050E86176
:1017D000E069002845D0696801F00C01082931D082
:1017E000022822D100F040F807462868C0F3406084
:1017F00028B1FFF7A5FCC01B0228F6D909E76868E5
:10180000616A226A20F47410084310436860012062
:1018100000F02BF804462868C0F3406008BBFFF7CF
:101820008FFC001B0228F6D9F3E600F01DF80446F1
:101830002868C0F34060A0B1FFF782FC001B0228BB
:10184000F6D9E6E601280AD06868226A00F48031F9
:10185000914202BF00F47010616A884201D00120F9
:1018600000E00020BDE8F28300203066FFF768BC8E
:101870002DE9F0410400884643D06D4E00F06CF82D
:1018800002D200F064F83CD12078624D810705D582
:101890006A68A06822F0F00202436A602178C807F3
:1018A00027D56168012902D100F05BF804E0022924
:1018B000286803D1C0F3406018B922E0C0F34000AB
:1018C000F8B16868800841EA80016960FFF738FC78
:1018D00007466868616800F00C00B0EB810F08D023
:1018E000FFF72EFCC01B41F289318842F1D303205F
:1018F0002BE0306800F00700804504D200F027F8A4
:1019000001D0012021E02078410705D56A68E06810
:1019100022F4E06202436A602178080706D569680C
:10192000206921F4605141EAC001696000F01EF8AD
:101930006A684049384BC2F30312895CC84018609A
:101940003748006801F0AAF80020BDE8F08131684E
:10195000C90848EAC1013160306800F0070040451D
:1019600070472868C0F340407047000030B53249E6
:101970000A6802F00C00042802D0082802D017E000
:101980002E4830BD30A0C2F38343D203C05C896AC5
:101990000BD500BF30A4294B01F00F01615CB3FBF4
:1019A000F1F501462846484330BD254A504330BD35
:1019B0001A4830BD18480068704717481E4A00682A
:1019C00013682049C3F3022206E013481A4A00684C
:1019D00013681C49C3F3C222895CC840704710B524
:1019E0000F220260144A136803F003034360146873
:1019F00004F0F0048460136803F4E063C3601268C9
:101A0000D20802F4E06202610948026802F00702AB
:101A10000A6010BD00100240D800002000127A00B9
:101A2000D400002000004242800442420070004086
:101A300000200240305500080410024080969800B3
:101A400000093D00DC5500080203040506070809EB
:101A50000A0B0C0D0E0F10100102030405060708F7
:101A6000090A0B0C0D0E0F1010B5044600F024FCF3
:101A700004F1D0000A21016000224FF4805340F6A7
:101A8000B8318280C380816002614261204610BD0E
:101A900010B500F1C804E0892188884211D2A069FC
:101AA00010B9FFF74DFBA061FFF74AFBA169A268DF
:101AB000401A9042E06107D3012000212075A16106
:101AC00002E000202075A061207D10BDF8B505461C
:101AD00005F1CA0400200E4660802080002707E040
:101AE0003188284600F0E9FB012000F04DF87F1C0A
:101AF000D5F8D8008742F3D3208861886081A1811E
:101B0000F1BD90F8DC007047B0F8C8007047C0F82D
:101B1000D810704701460020842918BFC81C7047A0
:101B200080B501F002F9002002BD38B5044684B04A
:101B3000606900281CBFA06900280D4612D0B4F9C6
:101B40000800FFF7E7FFA16902912B466269019245
:101B5000009022692168606800F0DCFF0390039820
:101B600005B030BDB4F90800FFF7D4FF03A9019117
:101B700000902B4622692168606892B200F0F8FF5D
:101B80000128ECD00020EBE780B500B9012001F07E
:101B9000ADF8002002BD1CB543684BB1012917D137
:101BA0000324009400220021012001F019FC16BD3D
:101BB00001290DD103220021012001F040FC040085
:101BC00004D000230022002101F063FC204616BD52
:101BD000002016BD80B50022009208B9802002BD09
:101BE00011F1010F08BF4FF0FF3200F014F859B1A6
:101BF0006A46002101F0D8FD01280AD1009808B1F9
:101C000000F02AF8002002BD114601F01EFD012857
:101C1000F8D0FF2002BD01D001B10A46EFF30581E3
:101C200070471CB500240094EFF3058149B1694663
:101C300001F0C4FC01280DD1009848B100F00CF867
:101C400006E00023002201F024FC012818BFFF2435
:101C5000204616BDFF2016BDDFF810004FF0805162
:101C60000160BFF34F8FBFF36F8F704704ED00E04B
:101C70004AB1000011F8013B521E00F8013B1CBFA5
:101C800011F8013BF8E7704738B5040001D1012095
:101C900032BD00F087F818B900F072F900F0F8FDD5
:101CA0005EE090F83D10012901D00120704702212B
:101CB00080F83D100168CA6842F00102CA600168FC
:101CC000DFF8C800814218BFB1F1804F0FD0DFF8B4
:101CD000C00081421CBFDFF8BC20914207D0DFF872
:101CE000B80081421CBFDFF8B42091420DD18A6850
:101CF000DFF8AC000240062A18BFB2F5803F08D0DA
:101D0000086840F00100086003E00A6842F0010240
:101D10000A60002070470168CA6852085200CA6011
:101D200041F2111301680A6A1A4202BF0A6A40F2BC
:101D300044431A4203D10A68520852000A60012142
:101D400080F83D100020704738B5040001D1012013
:101D500032BD00F027F818B900F012F900F087FD45
:101D600002206870211D206800F00EF90120287300
:101D7000A870E87028716871A871E871287268729B
:101D8000A872E8726870002032BD0000002C01408B
:101D900000040040000800400034014000400140C1
:101DA0000700010004F13C056878704710B504464F
:101DB000206801698A0715D5C1688A0712D56FF0B6
:101DC0000201016101222277806910F0030F204691
:101DD00002D001F0BBFD03E001F0B9FD00F094F882
:101DE00000202077206801694A0715D5C1684A0795
:101DF00012D56FF00401016102222277806910F48C
:101E0000407F204602D001F0A1FD03E001F09FFDDC
:101E100000F07AF800202077206801690A0715D5BC
:101E2000C1680A0712D56FF0080101610422227708
:101E3000C06910F0030F204602D001F087FD03E0D7
:101E400001F085FD00F060F800202077206801692E
:101E5000CA0615D5C168CA0612D56FF01001016116
:101E600008222277C06910F4407F204602D001F09A
:101E70006DFD03E001F06BFD00F046F800202077D7
:101E800020680169CA0708D5C168CA0705D56FF07F
:101E9000010101612046FFF7E4F9206801690A06A3
:101EA00008D5C1680A0605D56FF08001016120469A
:101EB00001F04EFD20680169CA0508D5C1680A060F
:101EC00005D56FF480710161204601F042FD206864
:101ED00001694A0608D5C1684A0605D56FF0400178
:101EE0000161204601F036FD206801698A060AD5A5
:101EF000C1688A0607D56FF0200101612046BDE860
:101F0000104001F028BD10BD204601F025BD38B5B8
:101F10000446002594F83C00012801D1022032BD7E
:101F2000012084F83C0052B1042A0CD0082A0ED0BB
:101F30000C2A10D0102A12D0142A14D017E02068CE
:101F400000F072F814E0206800F0AFF810E02068AC
:101F500000F0E4F80CE0206800F018F908E02068D0
:101F600000F03BF904E0206800F061F900E0012591
:101F700000F001F832BD002084F83C00284670478C
:101F800000212970204670472DE9F041DFF8FC72EE
:101F9000D0F800C0DFF8F832DFF8F842DFF8F85286
:101FA000DFF8F862DFF8F8E2DFF8F882B84218BF2D
:101FB000B0F1804F04D040451CBF7045B0420DD1F8
:101FC0004A68B8422CF0700C18BFB0F1804F42EA5A
:101FD0000C0C0BD0404518BF704507D0B04218BF5D
:101FE000A84203D0A04218BF984204D1CA682CF47A
:101FF000407C42EA0C0C4A692CF0800C42EA0C024C
:102000000260B8428A68C26218BFB0420A6882623F
:1020100004D0A8421CBFA042984201D109690163C3
:1020200001224261BDE8F0812DE9F041026ADFF84A
:102030005C82DFF868E2DFF85C72DFF85CC25208AD
:1020400052000262066A44688569DFF85C220B6808
:1020500026F0020615408A6816431D43404518BF06
:1020600070458B4B04D060451CBFB84298420DD1DF
:10207000CA6826F008061643404518BF704526F08A
:10208000040605D0604518BFB84201D0984205D17A
:102090004B698A6924F440741C431443446085618D
:1020A000496841630662BDE8F081F0B5026A22F03A
:1020B00010020262056A436884697C4A0E68144013
:1020C0008A6844EA062425F0200545EA02156F4E89
:1020D000724AB04218BF904208D1CF6825F08005FF
:1020E00045EA0715B04225F040050AD090421CBFD2
:1020F000694A904205D0674EB0421CBF644A904284
:1021000006D14E698A6923F44063164343EA860385
:1021100043608461496881630562F0BDF0B5026A7D
:10212000614B22F480720262066A4468C5690A68DB
:1021300026F400761D408B6846EA03261543534B70
:10214000564A984218BF904208D1CF6826F40066DC
:1021500046EA0726984226F480660AD090421CBFC1
:102160004D4A904205D04B4B98421CBF484A904282
:1021700006D14B698A6924F44054134344EA03149A
:102180004460C5614968C1630662F0BD70B5026A0A
:1021900022F480520262036A4468C569434A00F02F
:1021A0006DF823F4005343EA0233B0421CBF3B4AAC
:1021B000904207D0384EB0421FBF364A9042344E4C
:1021C000B04204D14A6924F4804444EA8214446051
:1021D000C56149680164036270BD70B5026A344B21
:1021E00022F480320262046A4568466D0A681E4025
:1021F00016438B68254A24F4003444EA0344904291
:102200001CBF264B984207D0234A90421FBF214B48
:1022100098421F4A904204D14A6925F4803545EA24
:1022200002254560466549688165046270BD70B5E8
:10223000026A22F480120262036A4468456D1D4AF4
:1022400000F01CF823F4001343EA0253B0421CBF11
:10225000124A904207D0104EB0421FBF0D4A904222
:102260000B4EB04204D14A6924F4802444EA82240B
:10227000446045654968C165036270BD0E681540DC
:1022800045EA06258A68014E70470000002C01408F
:10229000004801400044014000400140003401403A
:1022A00000080040000400408CFFFEFFFF8CFFFE92
:1022B0008FFFFEFFFF8FFFFE2EE030B500F1C6025C
:1022C000002311800021DCB230F814405B1C091996
:1022D000DDB2642DF7DB6423B1FBF3F1002300EBE7
:1022E0004304658820F813505B1C642BF7DB518096
:1022F00000F1C60400F1C6014B88E1888B4238BF6B
:102300000B46D38000F1C601C6304B8881888B42D2
:1023100088BF0B46938030BD38B50446C82101F014
:102320001DFB04F1C80000250580458085802046FE
:1023300032BD000070B514461A460B0023D0F829B0
:1023400021DA3F4D2970F0B93E483F49049B3F4E8A
:10235000E86029616E623E483E49A86069610020DC
:10236000A8613D493D482862E9612146287801F08D
:10237000F9FA040008D101F035FC00280EBF03244F
:102380000120687000E00224204670BD38B52C4D55
:1023900068780024012803D1E86880476C7000E069
:1023A0000624204632BD7CB5254C607808B1062055
:1023B00076BD684601F021FC01283ED19DF8000061
:1023C000012802D0022811D037E06369221D04F1F0
:1023D0002801A01C984780BBA0782178884218BFAC
:1023E00000282AD1022001F002FC26E0A26A1C4E3D
:1023F0001378E3700120002516F8351059B1994281
:1024000003D06D1C102DF7DB05E01046321D211D99
:1024100052F835309847A17879B1010008D0E178B9
:10242000A26A41F080011170A16A48700220A08068
:10243000A288A16A2078A3689847002076BD000092
:10244000100000209F390008B5390008353B00080E
:102450001F3A0008C9390008713A0008D13A00084B
:102460003C0000207FB5089C244D25492548296063
:1024700028600026204600F017F85DF8261004EBCF
:10248000860000F023F8761C042EF6D3E86840F0AE
:102490008000E8607FBD002251F8223040F82230F1
:1024A000521C042AF8D3704717494A6842F00202C6
:1024B0004A608860486840F0400048600868C0078B
:1024C000FCD44A6822F002024A6070470E4A536800
:1024D00043F0010353601368DB07FCD401801368E9
:1024E000DB07FCD4090C20F8021F1068C007FCD4DD
:1024F00051684908490051607047000004200240BB
:1025000023016745AB89EFCD0C2002404018491CE0
:102510001CBFB1F1010100F8012DF9D17047000095
:1025200080B50748016841F010010160032001F007
:102530007EFB002000F0B2FA01F0CAFB002002BDD1
:102540000020024038B586B01422002101A8FEF711
:10255000FDFD2148214D0168214C41F4002101601D
:10256000026802F4002200920099026842F480029C
:102570000260036803F4800300930099026842F448
:1025800000320260036803F400330093009902688C
:1025900042F4802202600022006800F48020009053
:1025A0004FF4604100982846FEF7C7FF00224FF421
:1025B00080512046FEF7C1FF4FF4604100F012F851
:1025C0002846FEF779FE4FF4805100F00BF82046C4
:1025D000FEF772FE07B030BD14100240000800483C
:1025E000000400480191012200210391049102920C
:1025F00001A9704780B50A48016841F001010160F6
:102600000022006800F001000090052100980B20D6
:1026100001F01AFBBDE802400B2001F032BB00BF05
:102620001410024080B52948294901604FF4827294
:102630004FF4E061C16042601821C16100230721AD
:10264000C1624FF4007208218360036143618261BB
:102650000362436283620363416301F057FB18B175
:10266000BDE80140FEF70ABE01BD10B586B00446C4
:102670001422002101A8FEF769FD21681448814257
:1026800021D11448816841F480418160816801F45E
:10269000804100910099026842F4802202604FF468
:1026A0006041006800F480200090022200980A48EF
:1026B00001910292002103910322052105910492C8
:1026C00001A9FEF7F9FD06B010BD0000B01C002006
:1026D00000380040141002400004004880B534481F
:1026E000344901604FF4E1320C2142604161002322
:1026F000002200218360C36002618261C1610262C5
:10270000416201F07DFB18B1BDE80140FEF7B6BDA6
:1027100001BD10B586B004461422002101A8FEF7C1
:1027200015FD2168234881422AD12348416841F49C
:1027300080414160416801F4804100910099026844
:1027400042F4003202604FF4B051006800F40030EF
:10275000009002220098019102920021039103222D
:1027600007210591049201A94FF09040FEF7A4FDC6
:1027700000220521252001F067FA252001F081FAC9
:1027800006B010BD00680B49884200D0704780B584
:102790000A48026822F4804202604FF4B0514FF0C0
:1027A0009040FEF758FEBDE80240252001F074BAC3
:1027B0002C1C002000380140141002401810024068
:1027C00010B58AB000F04EF81C22002103A8FEF7D5
:1027D000BDFC3C4C3C482060452140F2E7300022E3
:1027E000E0606160A2602261A2612046FFF7ACFA5E
:1027F00008B1FEF743FD20210091002202926946B4
:10280000204601F047FB08B1FEF738FD0021039197
:10281000002205910492079203A92046FFF777FB57
:1028200008B1FEF72BFD0AB010BD1FB500F01AF875
:10283000264C27482060452100226160A260E260AA
:10284000A2612046FFF720FA08B1FEF717FD00212C
:10285000009102912046694601F01CFB08B1FEF789
:102860000DFD1FBD0C2200216846FEF76FBC81B034
:1028700000681549884209D11648026842F00202F0
:102880000260006800F002000090009801B07047FC
:1028900000680F49884200D0704780B50D48026833
:1028A00042F0100202600022006800F01000009068
:1028B00005210098362001F0C7F9BDE80240362016
:1028C00001F0DFB9001E0020000400404C1E002073
:1028D000001000401C1002402DE9FC410546002478
:1028E0002868DFF89C61C10352D5B069C10009D4E2
:1028F000B06940F08050B0610124B06900F08050B0
:1029000000900098DFF87C713868C10511D43868F0
:1029100040F480703860FEF713FC80463868C105CB
:1029200007D4FEF70DFCA0EB08006528F6D30320C2
:10293000A4E0F06910F440701EBF696801F44071B2
:1029400088421AD0DFF84011F06901220A600023A2
:1029500020F440700B60F061C0070ED5FEF7F0FB6D
:102960000746F069C0F3400038B9FEF7E9FBC01B29
:1029700041F289318842F4D3D9E7F269686822F4D8
:1029800040720243F2611CB1B06920F08050B06126
:102990002878C10705D5F26AA868920840EA820241
:1029A000F2622978880705D5F16AE86821F4403198
:1029B0000143F1622978480705D5F16A286921F4B5
:1029C00040210143F1622978880605D5F16AE8695A
:1029D00021F010010143F1622968880305D53168AF
:1029E000A86B21F48001014331602978480605D5A0
:1029F000F16A286A21F020010143F1622978080771
:102A000005D5F16A686921F440110143F162297822
:102A1000C80605D5F16AA86921F440010143F162B5
:102A20002968880505D53168E86A21F40001014369
:102A300031602978080605D5B16A686A21F4F87111
:102A40000143B1622968C80505D5B16AA86A21F4B5
:102A500078510143B1622968C80405D5F16A286B31
:102A600021F480710143F1622968880405D5F16A77
:102A7000686B21F400710143F1620020BDE8F6812A
:102A80000410024000700040400442420248416885
:102A900002788A1842607047CC00002018B50146C1
:102AA00087B00022372001F0CFF8372001F0E9F895
:102AB0001448154C016841F02001016001A900682B
:102AC00000F020000090009802A8FEF788FFFEF7B3
:102AD00074FF0E49216040F2E73240000C49E26089
:102AE000B0FBF1F0401E606000222261A26020462F
:102AF000FFF7CAF818B92046FFF7D3F800E0012025
:102B000008B010BD1C100240B41D0020001400408D
:102B100040420F00F0B585B050260B9D25B986F3D5
:102B2000118800F02BFAFEE70C9C24B986F311887B
:102B300000F024FAFEE754270097009F542F04D09A
:102B400086F3118800F01AFAFEE7256300260225B5
:102B500084F8515004AF0A9D0396029401970095A2
:102B600000F034F8204600F06DF8049805B0F0BD90
:102B70002DE9F8430646174684B088469946B800C2
:102B800001F0CEF905001CD0542001F0C9F9040071
:102B900014D00020256384F85100039002940D980E
:102BA0000C99019000914B463A464146304600F060
:102BB0000DF8204600F046F8012004E0284601F018
:102BC00038FA4FF0FF3005B0BDE8F0832DE9F0474B
:102BD0000A9E8146306B00EB8202101FC0084FEA4C
:102BE000C00A00228C5CB01880F83440885C10B1B8
:102BF000521C102AF6D3089D002086F84300062DAB
:102C0000099C88BF062506F14407F5623D6078609F
:102C10009846301D01F06BFA06F1180001F067FAD2
:102C20003661C5F10705B56176620020B86038737A
:102C300042464946504601F097FA306004B126609A
:102C4000BDE8F0872DE9F04100F067F8DFF8805625
:102C5000DFF89486E86C401CE8641426A86A28BB58
:102C6000AC62E86C012829D1002706FB07F040443C
:102C700001F030FA7F1C072FF7D305F1740001F043
:102C800029FA05F18807384601F024FA284601F0B0
:102C900021FA05F1140001F01DFA05F1380001F0E8
:102CA00019FA05F17400E8622F6307E0A86D28B9EE
:102CB000E06AA96ACA6A904228BFAC62A86E401C4A
:102CC000A86600F0EFFA4643211D08EB060001F06C
:102CD00011FA01F0D6FAA86D30B100F07DF903D2F7
:102CE00000F0FBFA00F04AF9BDE8F08180B588B148
:102CF000DFF8DC25116F21B100F041F800F03EF95A
:102D0000FEE7116F491C1167002100F0EFFA00F097
:102D100040F808B900F02DF901BD044601F098BA59
:102D2000211D142042439818704780B586B00021B9
:102D30000591049103AA04A905A8FEF7DAF80598FD
:102D4000049902900022009201910023039A0FF24D
:102D500010610FF20D30FFF7DDFE70B100F00FF8DB
:102D600000F00CF9DFF8E8054FF0FF31C1660122F1
:102D700082650021016501F019FA07B000BD5020FD
:102D800080F311887047DFF8C805016F491C01679F
:102D9000704770B5DFF83865306F0024002520B922
:102DA00000F043F800F0EAF8FEE701F051FA306F66
:102DB000401E3067306F002836D1F06CD8B933E050
:102DC000F068C46800F035F800F0D9F9E06A716D78
:102DD000DFF8783501228240114371651422504397
:102DE000211D184401F086F9E06AB16ACA6A90426E
:102DF00024BF0121316630680028E1D10CB100F018
:102E000067F9F46D3CB100F018F808B101203066A4
:102E1000641EF8D1F565306E30B1DFF838154FF02B
:102E20008050012500F0A9F84DE2502181F311886E
:102E3000704704F1180001F083B92DE9F843DFF879
:102E40009074386F002600284ED13C6D641C3C65A0
:102E500010D1F86A006820B1FFF7E7FF00F08EF8A4
:102E6000FEE7F86A396BF9623863786E401C786661
:102E700000F02EF9F86EDFF8D49484424FF0140875
:102E800028D31AE0281D01F05BF9A86A18B105F1F2
:102E9000180001F055F9E86A796D0122824011436A
:102EA000796508FB00F0291D484401F023F9E86A20
:102EB000B96ACA6A904228BF0126F86A006830B130
:102EC000F86AC168CD6868688442DBD201E04FF0DF
:102ED000FF30F866B86AC06A08FB00F059F80010C5
:102EE000022904D3012602E0F86D401CF865386E13
:102EF00000B10126EEE1DFF8D823106F10B10121F7
:102F00001166704710661421506DB0FA80F3C3F15A
:102F10001F034B43DFF83414C85838B9502181F3EC
:102F20001188BFF34F8FBFF36F8FFEE7C81800F112
:102F30000803416849684160994204BF496841609B
:102F40004068C1689162704710B50C4620B9FFF720
:102F500016FF00F013F8FEE7DFF87423936A03F11D
:102F6000180101F0D4F82046BDE81040FFE7012128
:102F7000BCE1DFF8E0134FF080500860BFF34F8FE3
:102F8000BFF36F8F704738B5C068C46824B9FFF7C6
:102F9000F6FEFFF7F3FFFEE7FFF74BFFDFF83053D6
:102FA000286F60B900F0EBF8E26A686DDFF89C33D7
:102FB0000121914008436865FFF7B2FE02E004F189
:102FC0001801284601F096F800F006F802D2012018
:102FD000286632BD002032BDA86AC16AE06A81421B
:102FE0007047DFF86C134A6E0260096D41607047EC
:102FF000F8B504460D46502024B980F31188FFF738
:10300000BDFFFEE725B980F31188FFF7B7FFFEE7A4
:1030100001F01EF9DFF83803016D62682E688B1A23
:1030200016F1010F0ED0476ED4F800C0674501D0ED
:1030300091420BD2B34207D2F31A2B60416E21604A
:10304000006D6060002402E000202860012401F08F
:1030500018F92046F2BDDFF8F81201200866704723
:1030600070B5DFF88442DFF8E85211E001F0F0F8C3
:10307000286AC668301D01F063F8E86C401EE864F9
:10308000686B401E686301F0FCF8304600F009F8F8
:10309000686B0028EAD121680229F9D3FFF769FF9C
:1030A000F6E710B5044694F8510040B9206B00F0E3
:1030B000C0FF2046BDE8104000F0BBBF10BD012896
:1030C000F7D00228FAD0FFF75AFEFFF757FFFEE7C6
:1030D0007F49C86A006810B94FF0FF3203E0C86A40
:1030E000C268D0684268CA667047DFF86412886DAB
:1030F00008B901207047086F08B902207047002006
:1031000070472DE9F04104460020002C35D0704D69
:10311000E16AAA6AD36A994229D2A069002804D434
:10312000A86AC16AC1F10701A1611427E16ADFF849
:103130001C82606979434144884214D100F01FF831
:103140000126002801BFE16A07FB01F258F80200DE
:10315000002800F05BF8A86AC06AE0628640696DEA
:1031600000F04CF808E0A86AC16AE16204E0616C12
:10317000AA6AD36A994200D20120BDE8F081201DDD
:1031800000F0DEBF2DE9F04104460021002C32D0D2
:103190004F4DA86A5022844204D082F31188FFF771
:1031A000EDFEFEE7A06C20B982F31188FFF7E6FE82
:1031B000FEE7E26A636C401E9A42A0641BD0D0B95D
:1031C000FFF7DDFF01261427DFF88081002801BF0B
:1031D000E16A07FB01F258F80200002800F016F837
:1031E000606CE062C0F10700A061E06A696D864032
:1031F00000F004F801210846BDE8F0810E43474382
:103200006E65211D08EB070000F074BF05D1686DE5
:1032100006FA01F120EA010169657047F8B504007A
:103220003FD0A06C502220B982F31188FFF7A6FE90
:10323000FEE7636C994238BF1946E36A8B4230D08F
:1032400001282ED1224DA86A844204D182F311882C
:10325000FFF794FEFEE7A069DFF8F060E162002866
:103260005CBFC1F10701A161142761697B43F218BA
:10327000914216D1FFF783FF002801BFE16A07FBE7
:1032800001F2B058002806D1686D012202FA01F15E
:1032900020EA0101696500F005F84743211DF01996
:1032A0005AE0F1BD0122E06A696D8240114369650F
:1032B0007047DFF89C10886A18B1886A826C521CCB
:1032C0008264886A704700F0DCFF284670BD000009
:1032D000041B00203046BDE8F2831E4A4FF08051A7
:1032E0001160704700000000A01B0020F8B5184DC9
:1032F0002F6D0C46A96A0646081D00F021FF30B963
:10330000A86A696DC06A012282409143696516F11D
:10331000010F05D124B1A86A011D05F138001BE099
:10332000A86AF6194660BE42A86A05D2011D286B3C
:10333000BDE8F44000F0EBBE011DE86A00F0E7FED6
:10334000E86E864238BFEE66F1BD0000A01B00208B
:10335000041B002004ED00E0BDE8F44000F0CABE0C
:1033600049444C450000000038B504000D4602D128
:1033700000F05BFAFEE700F06BFFE26B206C216867
:103380004243881860600021A1632068E26BA0605E
:10339000521E206C216842438818E0604FF0FF31D4
:1033A00004F144000170417075B92069A0B104F1C5
:1033B0001000FFF7E8FD78B1DFF88C154FF0805072
:1033C000086000F0ECF907E004F1100000F082FE64
:1033D00004F1240000F07EFE00F053FF012032BD16
:1033E0007CB51C46502320B983F3118800F0D7F92F
:1033F000FEE724B983F3118800F0D1F9FEE72AB182
:1034000029B983F3118800F0CAF9FEE769B94825A4
:103410000095009E482E0DD1069B012584F846504C
:10342000009400F02BF8204676BD83F3118800F05D
:10343000B6F9FEE783F3118800F0B1F9FEE7F8B5BD
:1034400006000D46174602D100F0EFF9FEE7002D09
:103450000EBF482005FB06F0483000F061FD040077
:103460000AD0002084F8460000943B4604F148024C
:103470002946304600F002F82046F2BD82B0029B99
:1034800001B91A461A60D86319641846012102B0BE
:103490006AE72DE9F64782B004461E46502714B964
:1034A00000F07BF9FEE75FEA010A01D1206C60B908
:1034B000022E02D1E06B01280AD1FFF716FE50B9A7
:1034C000039840B100F069F9FEE700F066F9FEE705
:1034D00000F063F9FEE72746002400F0B1F82EE083
:1034E000039800284BD014B900F052F9012400F0E1
:1034F000C8FEFFF748FC00F0ABFE07F1440000F007
:103500003DF904BF0022027000F03DF904BF002223
:10351000427000F0B6FE00F04DF8002844D100F0F3
:1035200097FEB86BF96B884214BF0025012500F0A7
:10353000A8FE45BB384600F0C8F9FFF72AFC00F0AA
:1035400087FEB86BF96B884201D3022EC8D1324690
:103550005146384600F071F9796A29B107F1240023
:10356000FFF711FD08B904E018B1C8F8009000F0A9
:1035700016F900F086FE012004B0BDE8F08700F0E7
:1035800080FE0020F8E7039907F11000FFF7DCFC4C
:10359000384600F09AF9FFF7FCFB0028CFD1C8F8B5
:1035A000009000F0FCF8CAE7384600F08EF9FFF70B
:1035B000F0FBE6E703A96846FFF71ABDF8B5044635
:1035C0000D46502714B900F0E8F8FEE7206C10B162
:1035D00000F0E3F8FEE7206808B96068D0B900F0B1
:1035E00075FEEFF3118600F021F81BD294F9451017
:1035F000401C11F1010FA0630FD1606A80B104F18A
:103600002400FFF7C0FC002818BF002D08D00120BF
:10361000286005E000F0C1F8FEE7491C84F8451079
:10362000012000E0002086F31188F2BD87F31188A5
:10363000BFF34F8FBFF36F8FA06BE16B8842704772
:10364000DFF804834FF0805970472DE9F24382B0D0
:10365000064600240025502716B900F09EF8FEE724
:10366000306C10B100F099F8FEE7FFF73EFD40B96D
:10367000029830B100F091F8FEE700F08CF8FFF707
:1036800088FB00F0E5FDB06BFFF7DAFF30B9029878
:10369000D0B9002D68D000F080F8FEE7401EB0637E
:1036A000306810B9FFF705FE7060306940B106F16F
:1036B0001000FFF768FC18B1C8F8009000F06FF830
:1036C00000F0DFFD012052E014B900F061F80124A0
:1036D00000F0D7FDFFF757FB00F0BAFD06F14400FC
:1036E00000F04CF804BF0022027000F04CF804BF58
:1036F0000022427000F0C5FD02A9FFF75CFF002820
:1037000030461AD100F015F90028B6D0306838B923
:1037100000F09EFD7068FFF7F4FC054600F0B1FD77
:1037200000F027F800F037F8FFF733FB0028A8D1A6
:10373000C8F8009000F033F8A3E700F0C6F8FFF7F0
:1037400028FB304600F0F5F800289AD075B100F05B
:103750007FFD706A00281DBF306B0168C1F1070151
:1037600000217068FFF75AFD00F08BFD0020BDE8D6
:10377000FE83029906F12400FFF7E6BB90F90010E2
:1037800011F1010F704790F9011011F1010F70470D
:103790006846FFF726BC304697E087F31188BFF3F1
:1037A0004F8FBFF36F8F70472DE9F84304460F46E4
:1037B0001546502624B986F31188FFF7F0FFFEE77F
:1037C0000FB9206C70B900F081FDEFF3118886F31A
:1037D0001188FFF7E4FFA66B4EB9002088F311882B
:1037E000BDE8F28386F31188FFF7D9FFFEE794F96D
:1037F00044903946204600F054F8761E19F1010F26
:10380000A6630CD1206970B104F11000FFF7BBFB77
:10381000002818BF002D06D00120286003E009F120
:10382000010084F844000120D8E7502080F311887B
:10383000BFF34F8FBFF36F8F7047F8B5064615463D
:10384000B46B326C002742B9306830BB7068FFF748
:1038500099FC0021074671601FE065B9B068FEF76A
:1038600007FAB068316C726808449042B06014D3B3
:103870003068B06011E0F068FEF7FAF9306CF1687A
:1038800040420144F1603268914202D271680844BA
:10389000F060022D01D104B1641E641CB46338468B
:1038A000F2BD026C002A0B4600D1704710B5C1680A
:1038B00044681144C160A14224BF0168C160C1686D
:1038C000BDE810401846FEF7D3B9F8B5054600F03C
:1038D000BFFC05F1440494F9016007E005F1240000
:1038E000FFF751FB08B1FFF7B6FB761E70B2012857
:1038F00002DB686A0028F1D14FF0FF36667000F0F5
:10390000C0FC00F0A5FC94F9007007E005F1100080
:10391000FFF739FB08B1FFF79EFB7F1E78B2012845
:1039200002DB28690028F1D12670BDE8F14000F0E3
:10393000A8BC10B5044600F08BFCA06B441EA4414B
:1039400000F09FFCE00F10BD04ED00E070477047F1
:103950007047704770477047704700000022FEF7BD
:10396000D5BD000038B508461446002572B60822B9
:10397000214600F00BFD01280DD144F601308442B0
:103980002FBF23207F486400B0FBF4F080B200F02A
:1039900043FD012800D0032562B6284632BD80B51C
:1039A00072B679490020487000F0C0F800F058FD68
:1039B00062B601BD80B572B60021002000F0CEFCD9
:1039C00000F054FD62B601BD2DE9F8430646894674
:1039D0009046002472B66C4DA888B0F5807F06DB57
:1039E000A1226A496BA000F04DFDAFF30080A888CA
:1039F00004280FDB664FA988384600F055FD48B90A
:103A000038783070781CA988CA1EA8F80020C9F838
:103A1000000000E0052462B62046BDE8F28370B5E0
:103A2000002472B6584D6B78012B1CD14B1EAB6035
:103A300001216980187018466E8892196A80698819
:103A400000F032FD69884A1C6A80514A5054000ACD
:103A500069884B1C6B805054012101202870002084
:103A600000F07CFC00E0052462B6204670BD00003A
:103A70001CB5454C207830B1EB2244494BA000F0F6
:103A800001FDAFF30080684600F0BAFC6178404861
:103A9000032914D8DFE801F0110208110022A280E6
:103AA00000F00FF8022007E0A188B1F5807F02DA6C
:103AB00000F007F801E00320607000F0D1FC002066
:103AC00016BDA1884A1CA2809DF80030435470475F
:103AD00038B52D4D68780024012808D04FF4937232
:103AE000DFF8A81038A000F0CDFCAFF300802878F4
:103AF00010B1012803D017E000F018F814E068882E
:103B000050B1A868007800F06FFCA868411CA9605B
:103B10006888411E698007E0032000F068F80446C9
:103B200000F004F800202870204632BD002101205A
:103B300000F014BC38B5144D6978002421B1022975
:103B400004D0032918D006E0002000E0012000F096
:103B50004EF8044610E0687800281FBF68780228F5
:103B60006878032808D009494FF4B07201F1480081
:103B700000F088FCAFF3008000F078FC0120687052
:103B8000204632BDA07F1700141F002030520008CD
:103B90001C19002075735263764275666665725013
:103BA0006F73203C203235360000000065536E6490
:103BB0005374617465203D3D2053544154455F5416
:103BC000585F49444C4500006552637653746174F4
:103BD00065203D3D2053544154455F52585F494450
:103BE0004C4500000A4900204870012070470849F0
:103BF000087001224A7001207047054B597802462F
:103C0000002021B1187810700021597001207047F0
:103C1000021F00200901020002D427488154704786
:103C2000264B02F00F021A4402F8041C7047244B82
:103C300019684FF6FF020002114000F4E0600843EB
:103C4000204908431860704770B51D4B1C68C4F3C9
:103C500002230124C3F10705052D2EBF0F2504FA09
:103C600005F56D1E1E1D072E34BF0023DB1E2940E7
:103C7000994004FA03F3BDE870405B1E1A401143FB
:103C8000C8E7010007D4012200F01F010E4B8A4053
:103C9000400943F82020704701000BD4012200F0B6
:103CA0001F010A4B8A40400943F82020BFF34F8F81
:103CB000BFF36F8F7047000000E400E018ED00E0F4
:103CC0000CED00E00000FA0500E100E080E100E01A
:103CD0000D4882B0016841F001010160026802F004
:103CE000010200920099426842F080524260002234
:103CF000406800F0805000900F2100986FF00100A4
:103D000002B0FFF7A1BF00BF1810024038B5040091
:103D100001D1012032BD606A28B900F06DF805D0EC
:103D20000021E16102E00020206160610020A062CA
:103D300004F15C05687820B9002129702046FEF75F
:103D400094FC0220687000F04FF8E168B1F5E06F74
:103D500004D90020B1F5706F03D104E04FF4805016
:103D600001D00021A1626168A268237C01F4827104
:103D700002F404421143227D03F002031943A369B4
:103D800002F001021143227F03F40073194394F8F7
:103D9000203002F038021143A26A03F08003194375
:103DA000236802F4005211431960A16994F8242099
:103DB00094F83430090C01F0040102F010021143B0
:103DC000E26803F00803194302F4706211430843E8
:103DD000216848602068C16921F40061C161002048
:103DE00068600121697032BD2068016821F04001DE
:103DF0000160704704460D466068B0F5827F7047E9
:103E00002DE9F04104000D461646984611D004F104
:103E10007407796821B9002038702046FEF779FCD4
:103E20002421796000F02FF8204600F02DFD0128B4
:103E300001D101201FE0606A10B1204600F006FEAB
:103E40002068816841F4804181602068816821F4A4
:103E500000410D438560206801686FF3194141EA14
:103E6000465141EA0841016000F007F82046BDE8EC
:103E7000F04100F04EBEBDE8F0812068016841F0DD
:103E80000101016070472068026852085200026018
:103E900070477047F0B500F13C042278012A01D147
:103EA0000220F0BD01222270022363700668DFF851
:103EB00064E07768DFF854C0B568764518BF66459A
:103EC00003D14B6827F470071F430A6827F0700777
:103ED000174377600268724518BFB2F1804F0AD06D
:103EE0000B4882421CBF0C4B9A4204D062451CBF57
:103EF0000A48824204D1886825F080050543956010
:103F00000121617000202070F0BD000000340140EC
:103F100000040040002C0140000800400040014027
:103F20002DE9F8430446FEF72EFF694FB8684FF0BD
:103F30000009002508BB07F1180307F1180113F069
:103F4000070F4FF440600A4605D0CA1DD208D200C0
:103F5000C2F54060081880180838C008C0003A60F0
:103F60007D60B86045600560831A536010605068DA
:103F70003861F8604FF0004078614FF05008786980
:103F8000044246D1002C44D0083414F0070F1FBF60
:103F900004F1080004F00704041B14F0070F02D01A
:103FA00000F040F8FEE7A4B3F868A04231D33E68C1
:103FB000394601E0314606467068A04202D23068B8
:103FC0000028F7D1B868864223D00A6830680860B4
:103FD00002F108097268121B112A0CD3311911F071
:103FE000070002D000F01EF8FEE7301D0251746099
:103FF000084600F048F87168F8683A69401AF860B5
:10400000904238BF3861786901437160356009F0CA
:104010000705FEF7BEFE15B100F004F8FEE74846BE
:10402000BDE8F28388F31188BFF34F8FBFF36F8F22
:104030007047002800D1704738B5A0F10804244D1E
:1040400061686A695023114202D100F015F8FEE759
:10405000206810B100F010F8FEE791436160FEF7B0
:1040600092FEE96860684118E960204600F00BF8AC
:10407000BDE83140FEF78DBE83F31188BFF34F8F4B
:10408000BFF36F8F704730B511490A4600E01A46FA
:1040900013688342FBD35368D418844203D1406829
:1040A000C3185360104643681468C518A54208D168
:1040B00089688C4204D06168CB184360246800E0B2
:1040C0000C460460824218BF106030BD0000000042
:1040D000DC0000204FF0FF3200F1080182604160F7
:1040E000C16000F1080202610021016070470021F7
:1040F0000161704710B542684A6093688B609468AC
:104100006160916008610168491C016010BD30B5B3
:104110000A6812F1010F08BF036907D000F1080314
:1041200000E023465C682568AA42FAD25A684A60D1
:1041300091608B60596008610168491C016030BD65
:104140004368016982689A60836842685A604A6875
:10415000824204BF83684B60002202610868401EEF
:104160000860086870470000490810B54900A0F1D0
:1041700020034FF0807499611A60DC616FF00202D5
:104180000FF20D01596140F8242D203810BD0000B8
:104190005B494A68502012F1010F80F31188BFF388
:1041A0004F8FBFF36F8F00D0FEE7FEE77CB5554A17
:1041B000554B10685021984202D100F0B3F8FEE749
:1041C0001068524B984202D100F0ACF8FEE7504B19
:1041D0001C780194FF251D7007251E78484C8DF82A
:1041E00000609DF80000A56000F05000207006E01F
:1041F000401EA0609DF8000040008DF80000A068FF
:104200009DF800502E06F3D4C0F10705042D02D00E
:1042100000F088F8FEE7000200F4E060A06001987A
:104220001870116A41F470011162106A40F0704018
:10423000106200F07FF80020606000F079FD3548E2
:10424000016841F04041016000F062FD002076BD50
:10425000502080F31188BFF34F8FBFF36F8F284931
:104260004A68521C012A4A600AD12B490A6813067F
:1042700006D080F31188BFF34F8FBFF36F8FFEE737
:1042800070471F49486838B9502080F31188BFF340
:104290004F8FBFF36F8FFEE7401E486008BF80F36B
:1042A0001188704780B5502080F31188BFF34F8F7D
:1042B000BFF36F8FFEF7C1FD18B117494FF0805063
:1042C0000860002282F3118801BD000010B5EFF3F1
:1042D0000580502110280A4A07D3104B185C147827
:1042E000A04202D200F01EF8FEE790680C4A136864
:1042F00003F4E063984202D200F014F8FEE710BD28
:10430000BC00002000ED00E071C20F4170C20F41FF
:1043100000E400E034EF00E004ED00E0F0E300E052
:104320000CED00E081F31188BFF34F8FBFF36F8F67
:10433000704700000748084B0021016081604FF47E
:104340007A721968B1FBF2F2521E426007210160D5
:10435000704700BF10E000E0D80000202C4A13682E
:104360001A6820B1106840F02000106003E0136864
:1043700023F02003136021B1106840F0800010602A
:104380007047116821F080011160704710B5204C12
:10439000204A2068026041600021C1604FF48051D2
:1043A0001BB1022B08D003D30AE00021816006E094
:1043B00081604FF4C06102E081604FF4806101616F
:1043C0000C22002142618161C1610162416200F001
:1043D00083F82068002300220021FFF711FD08B1B7
:1043E000FCF74CFF012010BD01B5094800680A2305
:1043F0000122694600F08FF8401E8041C00F02BDC7
:1044000003490A681368998C017001207047000005
:10441000C8000020003801403EB50546154C16483E
:104420002060FDF7CAFA1549B0FBF1F1491E0020E2
:104430006160A06031211248E16005802046FDF7EF
:1044400023FC08B100203EBD2021009100220292F1
:1044500069462046FFF71EFD401E8041C00F3EBD4D
:104460000748018841800348FDF71BBC0148FDF760
:1044700052BC00004C1E00200010004040420F00C3
:10448000201F002000B583B00091019202906A467F
:1044900004491820ABBE002801D100F057FC03B03E
:1044A00000BD00BF1010020030B50246FF23FF2000
:1044B000084C07E012F8015B4540605D5840631905
:1044C00093F800310D46691EADB2002DF2D140EADD
:1044D000032030BD6C4D000838B5040001D1012027
:1044E00032BD04F174052420686020680168490821
:1044F000490001600020226810602368586021682C
:1045000088602046FEF73EF90020E8606860A860F9
:104510002066287032BD2DE9FC47054605F174047C
:10452000884660682028174699464DD1B8F1000F9B
:1045300014BF002F012048D02078012844D0012149
:1045400021700020E0602122626005F15006FCF736
:10455000F7FD378082467780A868B0F5805F04BF9A
:10456000286900280EBF47464046002700212170D9
:1045700080460FE018F8012B028508E02868B8F1A2
:10458000000FF7D137F8021BC1F3080101857088CD
:10459000411E718053467088CDF80090002807D0E6
:1045A00000228021284600F0E2FA0028E6D005E04B
:1045B00000224021284600F0DAFA08B1032004E086
:1045C00020206060002000E00220BDE8F68720681F
:1045D00050E8001F02467047216801F1080252E8C6
:1045E000001F206800F1080321F0400143E800109B
:1045F00000287047206800F1080151E8001F4908B1
:1046000000F10803490043E8001000287047F8B59E
:10461000044640F60F002368D9691A689E6808406E
:1046200004F158050BD1880600D5970640F17D802E
:10463000E968002978D02046BDE8F4400847F00733
:1046400003D4DFF8E4733A426FD0C80707D5D70523
:1046500005D501201862AB6A43F00103AB628807FD
:1046600008D5F30706D5276802203862A86A40F00B
:104670000400A862480708D5F30706D52768042078
:104680003862A86A40F00200A86208070AD59306BB
:1046900001D4F00706D5266808233362A86A40F0E3
:1046A0000800A862080509D5530107D526684FF40C
:1046B00000603062A86A40F02000A862A86A002862
:1046C00032D0880605D5910603D5E96809B12046A0
:1046D0008847A86A21688A68510602D410F0280F1A
:1046E0001DD0204600F09DFA20688168480611D54B
:1046F000FFF772FFFCD1A86960B10FF291514163DD
:10470000A869FCF72EFB00280ED0A869416BBDE814
:10471000F44008472046BDE8F24000F01ABB2046AE
:1047200000F017FB0020A862F1BDA86801286CD139
:10473000C8066AD5D70668D510201862216888682F
:1047400041062DD5A9690868406880B20028EBD0E1
:104750002A889042E8DA6880886920281CD021687D
:1047600051E8001F226821F4807100F07BF8F6D137
:10477000FFF740FFFCD100F079F8FCD120206862FF
:104780000021A960FFF723FF21F0100100F06AF873
:10479000F8D1A869FCF7C5FA29886888091A2EE0BB
:1047A0002A8869886888511A00281CBF88B20028A6
:1047B00055D0206850E8002F034622F4907243E859
:1047C00000200028F5D1206800F1080252E8002FEF
:1047D000520800F10806520046E800200028F2D1F5
:1047E000202068620022AA60EA60226852E8002F56
:1047F000236822F0100243E800200028F5D120466B
:10480000BDE8F44089B200F0A5BAC80209D5760225
:1048100007D54FF4801018622046BDE8F240FFF73C
:1048200038BB080607D5130605D52969B9B1204656
:10483000BDE8F4400847480611D551060FD5FFF7EB
:10484000C6FE21F0400100F00DF8F8D120202862CA
:10485000002129612046BDE8F24000F07CBAF1BD9C
:1048600021F4F07142E8001000287047206800F140
:10487000080151E8001F00F1080321F0400143E85E
:10488000001000287047000070B504466748226891
:104890001368A168034020690B4361690343E06921
:1048A0000B430343136000255168E06821F4405135
:1048B000014351609368A169206A23F430630B437C
:1048C0005B4903438A4293605A480AD1006800F06A
:1048D0000300032815D8DFE800F00261754E0121BE
:1048E00010E055498A4236D1006810F4403067D054
:1048F000B0F5803F52D0B0F5003F63D0B0F5403FF7
:1049000039D01021E3694D48B3F5004F4FF6F076EA
:104910004FF4004260D141B1012955D0022908D09D
:10492000042954D0082955D078E0FDF746F800282E
:1049300075D061684A0802EB4002B2FBF1F080B228
:10494000A0F11001B14269D20640C0F34200064313
:104950002068C66063E03A498A420ED1006810F4CC
:1049600040202DD0B0F5802F18D0B0F5002F29D0E1
:10497000B0F5402FC5D10221C4E732498A420FD198
:10498000006810F440101BD0B0F5801F06D0B0F5C1
:10499000001F17D0B0F5401FEDD0B2E70421B1E7FA
:1049A00029498A42ADD1006810F4400008D0B0F522
:1049B000800FF3D0B0F5000F04D0B0F5400FEBE757
:1049C00000219FE708219DE7FCF7FFFFAFE7FCF719
:1049D000CDFFACE71046ACE741B1012916D0022962
:1049E00007D0042915D0082916D017E0FCF7E5FFF9
:1049F000A8B1616800EB5100B0FBF1F080B2A0F10A
:104A00001001B1420AD22268D06008E0FCF7DDFF55
:104A1000EEE7FCF7ABFFEBE71046EAE701250020E5
:104A20006066A066284670BD20010004F369FFFFA0
:104A300000380140301002400044004000127A006B
:104A400000480040004C00400050004090F8241006
:104A5000CA0706D502685368816A23F400330B4302
:104A6000536090F824108A0706D502685368C16A1B
:104A700023F480330B43536090F824104A0706D583
:104A800002685368016B23F480230B43536090F852
:104A900024100A0706D502685368416B23F40043CB
:104AA0000B43536090F82410CA0606D50268936839
:104AB000816B23F480530B43936090F824108A0693
:104AC00006D502689368C16B23F400530B439360CF
:104AD00090F824104A0610D502685368016C23F43C
:104AE00080130B435360036CB3F5801F05D15368EB
:104AF000416C23F4C0030B43536090F824100A0662
:104B000006D501684A68806C22F4002202434A609C
:104B10007047F8B5044604F174050020E8606FF0B2
:104B20007E47FCF70DFB0646206801680A0708D59A
:104B30000097334600224FF40011204600F017F88A
:104B400060B9206801684A070AD5009733460022F9
:104B50004FF48001204600F00AF808B10320F2BDAE
:104B600020206860A860002020662870F2BD2DE932
:104B7000F041069C05460E4690461F462868C169CE
:104B80003140B1420CBF01200020404528D114F132
:104B9000010FF3D0FCF7D4FAC01B844200D34CB908
:104BA00000F027F800F030F8FCD100F01CF80021EC
:104BB000017013E0286801684A07DFD5C1690A055A
:104BC000DCD54FF40061016200F013F800F01CF82E
:104BD000FCD100F008F8C16000220270032000E060
:104BE0000020BDE8F08105F1740020214160816062
:104BF0007047286850E8001F024621F4D07142E84F
:104C000000100028F5D17047286800F1080151E82C
:104C1000001F490800F10803490043E8001000287C
:104C2000704710B500F010F8FCD100F017F8FCD177
:104C3000016E012902D100F01EF8FCD12021C167CC
:104C400000220266426610BD016851E8002F0B4643
:104C500022F4907243E8002100297047016801F1B5
:104C6000080252E8002F520801F10804520044E8FB
:104C7000002100297047026852E8002F036822F0E3
:104C8000100243E80021002970470000406A00F14B
:104C9000520100220A810A8000F05BB8EFF309801C
:104CA000BFF36F8F264B1A681EF0100F08BF20ED60
:104CB000108A20E9F04F106009B44FF0500080F3E3
:104CC0001188BFF34F8FBFF36F8FFEF714F94FF0CA
:104CD000000080F3118809BC19680868B0E8F04F3B
:104CE0001EF0100F08BFB0EC108A80F30988BFF3E4
:104CF0006F8F7047124B19680868B0E8F04F80F367
:104D00000988BFF36F8F4FF0000080F31188704760
:104D10000C480068006880F308884FF0000080F3BA
:104D2000148862B661B6BFF34F8FBFF36F8F00DF99
:104D3000DFF81400016841F4700101607047000061
:104D40002C1B002008ED00E088ED00E0012000F0C1
:104D500003B870477047704780B5AFF30080024AD0
:104D600011001820ABBEFBE72600020000C1814005
:104D700001C0804101C0804100C1814001C080412B
:104D800000C1814000C1814001C0804101C080411B
:104D900000C1814000C1814001C0804100C181400B
:104DA00001C0804101C0804100C1814001C08041FB
:104DB00000C1814000C1814001C0804100C18140EB
:104DC00001C0804101C0804100C1814000C18140DB
:104DD00001C0804101C0804100C1814001C08041CB
:104DE00000C1814000C1814001C0804101C08041BB
:104DF00000C1814000C1814001C0804100C18140AB
:104E000001C0804101C0804100C1814000C181409A
:104E100001C0804101C0804100C1814001C080418A
:104E200000C1814000C1814001C0804100C181407A
:104E300001C0804101C0804100C1814001C080416A
:104E400000C1814000C1814001C0804101C080415A
:104E500000C1814000C1814001C0804100C181404A
:104E600001C0804101C0804100C1814000C0C1013A
:104E7000C30302C2C60607C705C5C404CC0C0DCDCA
:104E80000FCFCE0E0ACACB0BC90908C8D81819D93A
:104E90001BDBDA1A1EDEDF1FDD1D1CDC14D4D5156A
:104EA000D71716D6D21213D311D1D010F03031F15A
:104EB00033F3F23236F6F737F53534F43CFCFD3D8A
:104EC000FF3F3EFEFA3A3BFB39F9F83828E8E9297A
:104ED000EB2B2AEAEE2E2FEF2DEDEC2CE42425E52A
:104EE00027E7E62622E2E323E12120E0A06061A19A
:104EF00063A3A26266A6A767A56564A46CACAD6D4A
:104F0000AF6F6EAEAA6A6BAB69A9A86878B8B979B9
:104F1000BB7B7ABABE7E7FBF7DBDBC7CB47475B5E9
:104F200077B7B67672B2B373B17170B050909151D9
:104F30009353529296565797559594549C5C5D9D09
:104F40005F9F9E5E5A9A9B5B9959589888484989F9
:104F50004B8B8A4A4E8E8F4F8D4D4C8C44848545A9
:104F600087474686824243834181804038B509881D
:104F70000024052910D14578817841EA0521491C92
:104F80000123012289B2C01CFCF73CF8010004D0C7
:104F900000F0AEF8044600E00324204632BDF8B528
:104FA0000D460026298805291FDD41788478C278BE
:104FB00044EA01240179641C51EA0221427914D0A7
:104FC000792912DA4F00FFB2BA420ED10A46012304
:104FD000A1B2801DFCF716F8010003D000F088F89C
:104FE000064603E00520288000E003263046F2BD97
:104FF000F8B50D4600262988052924D14278817804
:10500000047941EA0221491CECB17E2C1BDA2E8086
:105010000323037062002F887F1C2F8042700023BF
:105020002F887F1C2F80224689B2801CFBF7EAFF65
:10503000010003D000F05CF8064605E0288800EB8C
:105040004401298000E003263046F2BD2DE9F041FD
:105050000D46074628880026092845DD7878B97866
:105060003C79FA7941EA002000F10108F878B97931
:1050700044EA0024787941EA0021387A40EA0220A3
:105080007A7A491C7CB37E2C2DDA60B37A282ADA2E
:105090004300934227D10246012389B207F10A0057
:1050A000FBF7B0FF010018D12E8017213970600086
:1050B0002A88521C2A80787000232988491C29805C
:1050C00022461FFA88F1B81CFBF79CFF010004D1AF
:1050D000288800EB4401298006E0010004D000F09C
:1050E00007F8064600E003263046BDE8F0810000E0
:1050F00048B1012802D0072802D003E002207047FF
:105100000620704704207047F8B50D460026298810
:1051100005292AD100F083F851EA022125D0B1F502
:10512000FA6F22DA2E80012303708A082F887F1CF1
:105130002F8001EB5277FF0811F0070F18BF7F1C7B
:10514000477000232A88521C2A80801C0A46A1B27C
:10515000FBF7D0FF010003D0FFF7CAFF064605E0CA
:10516000288850FA87F0288000E003263046F2BDF8
:1051700038B509880025052921D14178847844EA89
:1051800001240179641CD1B9C178FF2918BF002915
:1051900015D18DF80150C078FF2806BF01218DF888
:1051A00000108DF8005001230122A1B26846FBF7E0
:1051B000A1FF010004D0FFF79BFF054600E0032597
:1051C000284632BDF8B50D4600262988052923DD7D
:1051D00000F025F841EA02218B0801EB5373DB084C
:1051E000427911F0070F18BF5B1CA9B140F2B177EB
:1051F000B94211DADBB293420ED10A460123A1B2C1
:10520000801DFBF777FF010003D0FFF771FF064613
:1052100003E00520288000E003263046F2BD4178F7
:105220008478C27844EA01240179641C7047000044
:10523000443A5C526164696F5C4A6F62655C4750D6
:10524000325930413032594B304676325C66333019
:1052500033435F73656E735C4D6964646C6577613D
:105260007265735C6D6F646275735C7274755C6D8E
:10527000627274752E630000282065526376537441
:10528000617465203D3D2053544154455F52585F41
:10529000494E49542029207C7C2028206552637681
:1052A0005374617465203D3D2053544154455F5211
:1052B000585F5243562029207C7C20282065526369
:1052C000765374617465203D3D2053544154455FCD
:1052D00052585F4552524F52202900007047FEE756
:1052E000FEE7FEE7FEE770471F48FBF762BD10B51B
:1052F0001E4C2068C2690168920608D5890606D549
:105300001B480268904720680121016210BDC169F5
:105310000A0607D50068010604D516480268BDE8EC
:10532000104010472046BDE81040FFF770B910B597
:10533000114C20680169CA070ED5C168CA070BD590
:105340006FF0010101610D480288511E018089B290
:1053500011B90B48016888472046BDE81040FCF7AA
:1053600025BD0848FCF722BD981E00202C1C0020FB
:105370002C000020300000204C1E0020221F0020A6
:1053800034000020B41D0020F8B50C46002521880B
:1053900005292ED141788378C27843EA0123017927
:1053A0005B1C51EA022124D0B1F5FA6F21DA258085
:1053B000022606708A08278801EB5276F6087F1CC1
:1053C00011F0070F278018BF761C46700A46278801
:1053D0007F1C278099B2801CFBF78EFE010003D052
:1053E000FFF786FE054605E0208850FA86F020800B
:1053F00000E003252846F2BDF8B50D4600262988B1
:10540000052926D142788178047941EA0221C278BF
:10541000491C54EA02241CD07D2C1ADA2E80042365
:10542000037062002F887F1C2F80427022462B88D9
:105430005B1C2B8089B2801CFBF7E2FD010003D0CE
:10544000FFF756FE064605E0288800EB4401298058
:1054500000E003263046F2BD30B50168846842188A
:10546000416802EB5103C90703D54C4401E0491CD4
:1054700005D19A420AD012F9011B12F8015B0029EA
:1054800004F8015BF3D4491EF7D5F2E70C3030BDC8
:1054900010B5074979441831064C7C44163404E0B1
:1054A0000A68081D114488470146A142F8D110BD81
:1054B0002C0000004C0000004EF68851CEF2000196
:1054C000086840F470000860BFF34F8FBFF36F8F20
:1054D0004FF00070E1EE100A70470000A3BDFFFF1F
:1054E000481E0000DC000020000000006DFFFFFFF0
:1054F000F0010000E6000000000000204500000070
:1055000038B50C4605490D8C2A46401CFCF7B0FB0B
:105510006D1C2580002032BD00000000E01E002030
:105520000248016841F470010160704788ED00E0B5
:105530000000000000000000010203040607080943
:1055400010B50446044979440E31044878440C30BF
:1055500000F006F8204610BD880100008001000020
:1055600038B504460D46AC4205D020682018804767
:10557000241DAC42F9D131BD00F00DF8002801D056
:10558000FFF786FFAFF300800020AFF30080FBF74A
:10559000E7FD00F002F80120704700F001B80000BC
:1055A00007463846FFF7D8FBFBE700000148804775
:1055B0000148004721550008C95500084D61696E32
:1055C0005461736B00000000AFF30080FFF774FFBD
:1055D000FFF7D2FF4D6F646275730000000000009A
:1055E00001020304FFF7FEBFFFF7FEBFFFF7FEBF98
:1055F000FFF7FEBFFFF7FEBFFFF7FEBFFFF7FEBFDF
:10560000FFF7FEBFFFF7FEBFFFF7FEBFFFF7FEBFCE
:10561000FFF7FEBFFFF7FEBFFFF7FEBFFFF7FEBFBE
:10562000FFF7FEBFFFF7FEBFFFF7FEBFFFF7FEBFAE
:10563000FFF7FEBFFFF7FEBFFFF7FEBFFFF7FEBF9E
:10564000FFF7FEBFFFF7FEBFFFF7FEBFFFF7FEBF8E
:10565000FFF7FEBFFFF7FEBFFFF7FEBFFFF7FEBF7E
:10566000FFF7FEBFFFF7FEBFFFF7FEBFFFF7FEBF6E
:10567000FFF7FEBFFFF7FEBFFFF7FEBFFFF7FEBF5E
:10568000FFF7FEBFFFF7FEBFFFF7FEBFFFF7FEBF4E
:10569000FFF7FEBFFFF7FEBFFFF7FEBFFFF7FEBF3E
:1056A000FFF7FEBFFFF7FEBFFFF7FEBFFFF7FEBF2E
:1056B000FFF7FEBFFFF7FEBFFFF7FEBFFFF7FEBF1E
:1056C000FFF7FEBFFFF7FEBFFFF7FEBFFFF7FEBF0E
:1056D000FFF7FEBFFFF7FEBFFFF7FEBFEDB7FFFF0F
:1056E0000400C201000EF4000002D6000011FD000B
:1056F000040155000804FD0004F953000803FD00EF
:1057000004F14F000810FD00049F4F000806FD0043
:10571000046D4F000817FD00044D50000801FD0006
:10572000040951000805FD0004715100080FFD0037
:1057300004C551000802FD000389530008CC00FC99
:10574000AAFC00042C1C002001F9000010FC00023F
:03575000127A00CA
:04000005080055C9D1
:00000001FF
