:020000040800F2
:10000000105D0020AD530008DD500008DF500008EF
:10001000E1500008E3500008E5500008000000002F
:10002000000000000000000000000000F14A00088D
:10003000E750000800000000994A00080941000844
:10004000E5530008E9530008ED530008F153000898
:10005000F5530008F9530008FD5300080154000847
:1000600005540008095400080D540008E950000820
:100070001154000815540008195400081D540008B4
:100080002154000825540008295400082D54000864
:100090003154000835540008395400083D54000814
:1000A0004154000845540008495400084D540008C4
:1000B0005154000855540008595400085D54000874
:1000C0006154000865540008695400086D54000824
:1000D00071540008EF500008755400087954000866
:1000E0007D54000881540008855400088954000894
:1000F0008D54000891540008955400089954000844
:100100000000000000000000000000009D540008F6
:10011000A1540008A55400082F510008635100089D
:10012000A9540008AD540008B1540008B5540008A3
:10013000B9540008BD540008000000000000000091
:10014000C1540008C5540008C9540008000000004C
:10015000000000000000000000000000000000009F
:100160000000000000000000CD540008D154000839
:10017000D55400080000000000000000000000004E
:1001800000000000D9540008F8B500260446009687
:100190000CB90120F2BD04F130052869C1064DD427
:1001A000286998BB6E61E8612873AE61204600F053
:1001B000F1FC20688168C80028D400F0A3F9064645
:1001C0002869C10622D4300020D12869DFF808232D
:1001D000DFF8083320F4885040F0020028612068DE
:1001E000816821F0405181602068816841F0805130
:1001F00081600A201168B1FBF3F34343009302E0EE
:100200000098401E009000980028F9D1206881686D
:10021000CA0002D58068810010D5286920F002004C
:1002200040F0100000F0BBF82869296921F00201B4
:1002300041F01001296101263046F2BD2869C1064E
:10024000F3D43000F1D1226890684107EDD42869D9
:10025000DFF88C32DFF88C72DFF88C1220F48070BB
:1002600040F002002861B2F1A04FDFF880020ED00A
:10027000824208BF4FF0A04009D0BA42DFF87012A6
:1002800008BF184603D09A420CBF38460020D2F867
:1002900008C00CF0030CBCF1010F02D11268D207A8
:1002A0000ED438B1826802F00302012A02D100683C
:1002B000C20705D4086820F4403260681043086023
:1002C0006968607EE268012914BF4FF4805C4FF0DA
:1002D000000C4CEA40310A43A16841EA020C94F850
:1002E0002020012A0FD138B9606A401E400440F432
:1002F000803040EA0C0C06E0286920F0020040F053
:10030000200000F04CF8A16A2268012918D0BA42F6
:1003100018BF9A4210D1B1F5307F08BF4FF4E07199
:100320000AD0B1F5807F08BF4FF4307104D0B1F529
:10033000E07F08BF4FF48071E06A014341EA0C0C92
:10034000916811F00C0F0BD1D168DFF8A8010140C2
:10035000D1602878217E400040EA813040EA0C0CD0
:100360002168DFF89401CA6802404CEA0200C860C4
:10037000216920680129016B05D1E2690909521E32
:1003800042EA011101E009090901016300206861E5
:10039000296921F0020141F0010129614CE728613E
:1003A000686940F00100686170472DE9F84F054623
:1003B00088462868816814464A0700F1868005F15E
:1003C0003C073978012908BF022000F08180012113
:1003D0003970B0F1A04F444EDFF81491DFF80CA152
:1003E00016BF50453068D9F8000010F01F0068D1E2
:1003F000284600F0D8FA002883465FD17968DFF8F4
:100400002401014041F4807179602968B1F1A04F65
:1004100016BF51453068D9F8000010F01F001EBF0C
:10042000B1F1A04F2F48814207D17A6822F480129F
:100430007A60C868810110D50DE0786840F48010BA
:10044000786051450CBFDFF8C400DFF8C4000068D5
:1004500010F0007001D000F05DF823467868C10408
:1004600046BFB86820F006000020B860002139704F
:100470004246AC6BDFF8B000A062A96BDFF8AC00BD
:10048000C862A96BDFF8A80008631C202C682060F4
:100490002868416841F0100141602868C16841F056
:1004A0000101C160286800F14001A86B00F0FFFB6A
:1004B0002868816841F00401816008E000203870FC
:1004C00005E08B460021397001E04FF0020B5846E1
:1004D000BDE8F28F00000000D400002040420F0071
:1004E00000050050000400500803005000010050B7
:1004F00008070050FDBFFFFF07C0F0FF044620685B
:1005000081687047204600F078BA00000C00005067
:100510000C040050786820F4005040F4805078605B
:1005200070470000FEF1FFFF470900088B09000833
:10053000910900082DE9F8410A46002100F13C0428
:1005400000912578012D08BF022000F0678101236A
:10055000237003689D686E0700F15881576815681D
:100560001F26052F4FF0060C0BD20CFB07F7D3F814
:1005700030C0BE402CEA060605FA07F737431F6372
:100580001DE00A2F08D27F1F17FB0CF7D3F834C0E9
:1005900000F054F95D6312E00F2F08D20A3F17FBF9
:1005A0000CF7D3F838C000F049F99D6307E00F3F1E
:1005B00017FB0CF7D3F83CC000F040F9DD630725CA
:1005C0000668B36813F00C0F3ED1136897680A2BC6
:1005D0000DD30A3B03EB430CD6F818E005FA0CF3F5
:1005E0002EEA030307FA0CF71F43B7610BE003EB96
:1005F000430CD6F814E005FA0CF32EEA030307FACD
:100600000CF71F43776103685769DE68D2F810E082
:10061000F608760006F00606AEF1010E07FA06F6B9
:10062000BEF1030FDFF8487432D8DFE80EF0020E97
:100630001A26D3F86080D2F800C007EA080747EA14
:100640008C6700F0F1F81E6645E0D3F864C0D2F87C
:1006500000E007EA0C0747EA8E6700F0E5F85E66FF
:1006600039E0D3F868C0D2F800E007EA0C0747EA9F
:100670008E6700F0D9F89E662DE0D3F86CC0D2F8F2
:1006800000E007EA0C0747EA8E6700F0CDF821E0AA
:100690001E6E00F0D9F803D11E6E26F000461E66CD
:1006A00003685E6E00F0D0F803D15E6E26F000465F
:1006B0005E6603689E6E00F0C7F803D19E6E26F05A
:1006C00000469E660368DE6E00F0BEF803D1DE6E63
:1006D00026F00046DE6603689E6806F00306012EDB
:1006E00002D11E68F7073BD41668012707FA06F601
:1006F000D768012F06D0D3F8B05025EA0606C3F814
:10070000B0601AE0D3F8B0703E43C3F8B060176829
:10071000936806680A2F08D3093F07EB4707D6F806
:1007200018C000F085F8B56107E07F1C07EB4707AC
:10073000D6F814C000F07CF8756103683948126877
:10074000B3F1A04F16BF8342DFF82853344D102A6F
:1007500002D12E68370203E0112A03D12E68F70177
:1007600059D404E0122A56D12E68770253D4B3F13B
:10077000A04F0FD0834208BF4FF0A0400AD0DFF84F
:10078000F802DFF8D060834208BF304602D0B3429F
:1007900018BF00209E6806F00306012E02D11E68D5
:1007A000F70733D438B1866806F00306012E02D16C
:1007B0000068C6072AD4102A18D1B3F1A04F2AD155
:1007C0002868DFF8B82240F4000028600A20136887
:1007D000DFF8AC52B3FBF5F54543009500980028CF
:1007E0001EBF0098401E0090F8D114E0112A06D1D7
:1007F000B3F1A04F0FD1286840F0807004E0122AB6
:1008000009D1286840F48000286004E0606840F066
:10081000200060600121002020700846BDE8F281C0
:1008200008070050000100503E4346F00046704764
:10083000BD402CEA0505BB401D437047BE402CEA75
:100840000606BD4035437047176806F0F846B6EB1C
:10085000876F704700050050F0B50368894E00228D
:10086000B3F1A04F07D1354600F13004277B012FAB
:100870000FD10220F0BDB34208BF4FF0A045F3D026
:100880007D4D7A4CAB420CBF2546A342ECD00120F3
:10089000F0BD012727739F687F0746D4AF687F07A5
:1008A00043D4B3F1A04F16BFB342724E764E0B68DD
:1008B000764F0BB3336894F800E023F4604C4B6838
:1008C00043EA0C0343EA4E3333600068836800F068
:1008D00036F802D10068C3072CD4A86800F00300E2
:1008E000012802D12868C30724D4356808688968BC
:1008F0002F4007430F4316E0336823F4604333600F
:100900000068816801F00301012902D10068C10774
:1009100010D4A86800F00300012802D12868C1079C
:1009200008D430680740376004E0216941F02001B5
:1009300021610122002020731046F0BD936803F06E
:100940000303012B7047416A0A6C12F0500F19D152
:10095000086C40F4007008640A68D06810F4406FB6
:1009600004BF487E00280AD1086C20F48070086417
:10097000086CC20403D4086C40F001000864084607
:1009800000F033BB896B0A6B1047406A00F0C2BBB2
:10099000406A016C41F040010164416C41F0040186
:1009A000416400F0B8BB38B504462168886800F09F
:1009B0000300012802D10868C2071CD488686FF3BD
:1009C0009E1098B9886840F00100886000F0A4FB90
:1009D000054620680168CA070DD400F09DFB401B46
:1009E0000328F6D320680168CA07F2D4206C40F0CF
:1009F0001000206433E0002032BD38B5FFF77EFDE3
:100A000001F00301012928D10168CA0725D58168B1
:100A100001F00D0101291BD1816841F002018160C3
:100A200003202168086000F077FB05462068816894
:100A3000C80712D500F070FB401B0328F6D32068CE
:100A40008168C807F2D5216C41F01001216403E0F0
:100A5000206C40F01000206401E0002032BD606C8A
:100A600040F001006064012032BD0000000500502C
:100A700000F0FF830803005000040050D400002061
:100A800040420F000001005008070050E0F0FFFF57
:100A900018B589B00C22002106A800F043FB00F035
:100AA00074F8694C4FF0A04020604FF400314FF4CF
:100AB0008070A0626160012000224FF48061E061DB
:100AC000A2602261627684F82020E162E26004F193
:100AD000300001210422002301706261237643600B
:100AE0002046FFF751FB08B100F0A6FB002006905E
:100AF00006A92046FFF7B0FE08B100F09DFB0121DA
:100B00000091019105220021039104910591029227
:100B100069462046FFF70EFD08B100F08DFB0AB0D4
:100B200010BD10B586B000F030F8484C4848206041
:100B30004FF4003101200022A062E0616160A260F8
:100B4000226184F8202004F1300000210422617623
:100B5000E162E16001706261217641602046FFF749
:100B600013FB08B100F068FB0121009101912046C0
:100B7000002103910291049105916946FFF7DAFC87
:100B800008B100F059FB06B010BD182200216846DC
:100B900000F0C8BA38B586B004461422002101A876
:100BA00000F0C0FA2B4D696C22682B48491CB2F149
:100BB000A04F1ED100F027F8012100F035F827489A
:100BC0002860002169608020E8604FF4807129610D
:100BD0004FF48060002268612021AA60A961EA6167
:100BE000284600F03DF808B100F026FBA5636C62D2
:100BF00007E0174B9A4204D100F005F8102100F0ED
:100C000013F807B030BD0129696408D1016841F0CB
:100C100080510160026802F08052009200990268DF
:100C200042F4003202607047006800F40030009027
:100C30000322009801910292002103914FF090400D
:100C400001A900F017BB0000101B0020601B002052
:100C500000010050941C00201410024008000240C3
:100C600010B5040001D1012010BD022084F821003C
:100C7000226813686068A1686FF30D130343E0688E
:100C80000B432169034360690B43A1690343E06996
:100C90000B4303431360204600F0F4F80021A163E6
:100CA000012084F8210084F82010002010BDF8B540
:100CB0000446002594F82000012801D10220F2BD4D
:100CC00094F821600120012E84F8200024D1022014
:100CD00004F12C0684F82100F560206807687F087D
:100CE0007F000760204600F0BCF82168306820B122
:100CF0000A6842F00E020A6008E0086840F00A0044
:100D000008602068016821F0040101602068016822
:100D100041F00101016002E084F8205002252846DC
:100D2000F2BD10B590F82110022900F1380206D06A
:100D300004231360002180F82010012010BD00F072
:100D400030F80C68640864000C60916852688B404D
:100D500053600121002280F8211080F8202000201B
:100D600010BD38B590F821100024022900F134029A
:100D700003D004205060012411E000F012F80D6847
:100D80006D086D000D60D16895688B406B60012126
:100D900080F8211080F82040116801B18847204672
:100DA00032BD01680B6823F00E030B60012301685C
:100DB0007047F8B500F12802042351690C680168F6
:100DC0000D68966903FA06F73C420FD06F070DD500
:100DD0000C68A50603D40C6824F004040C6000F031
:100DE0003BF85168B9B3BDE8F4400847022303FA61
:100DF00006F73C4215D0AF0713D50C68A50606D4FC
:100E00000C6824F00A040C60012180F8211000F025
:100E100023F8002180F820101168E1B1BDE8F4400A
:100E20000847082303FA06F6344214D02B0712D5DC
:100E30000C6824F00E040C60012300F00DF8012171
:100E4000116180F82110002180F82010916811B103
:100E5000BDE8F4400847F1BD916954698B40636077
:100E6000704770B5046CC66B0125A54075600468B9
:100E700063604068102802D1A260E16070BDA1608B
:100E8000E26070BD10B502680A4B9A4207D20A4967
:100E90008A181424B2FBF4F18900084A06E00849D4
:100EA0008A181423B2FBF3F18900064A0164C26375
:100EB00010BD000008040240F8FFFDBF0000024022
:100EC000F8FBFDBF0004024010B500F0DFFC774CDA
:100ED00047F23051B0FBF1F0E063201D00F030FD2F
:100EE00004F14C0000F02CFD04F18400BDE810403A
:100EF00000F026BD6E4B036003F1540008608021B2
:100F00001160704710B500BF72A0684CD0E9002393
:100F100090B00121CDE90023684600F0A2FDA06455
:100F20001C2209A86DA100F009FE002109A800F00B
:100F300062FD20641C2202A86FA100F0FFFD0021C9
:100F400002A800F058FD606410B010BDF8B5594C0F
:100F5000594801222146FFF728FA5848584D594E62
:100F6000524F00F004FE01224FF40051284600F0D9
:100F700050FA01224FF48041284600F04AFA01223B
:100F80004FF4004101E04FF40051284600F041FACF
:100F9000B86C4FF0FF3100F083FD2188381D01F05F
:100FA000F2F8388850B100213980381D214600F010
:100FB000F9FC96E80700444B01F016F9381D00F0E3
:100FC000D2FC00280CBF01220022DCE780B5002102
:100FD0003C480368009103220179002001F05AF98E
:100FE00001F084F901F08FF9FCE73048806C00F0E3
:100FF0007EBD00207047000038B50546080018BFC8
:10100000491E002489B229482E4A13B1012B20D051
:1010100049E00B2945D8DFE801F0060B4747474771
:10102000114747141847001D00F0D4FC2C7006E04F
:10103000001D00F0D2FC010A297007E0406A6870C8
:1010400032E0116805F8011B2EE0107905F8010B5C
:101050002AE0052928D9891F0AD0491E0BD0491E2C
:101060000FD0491E12D0491E18D0491F1CD018E0BD
:101070006978416218E06978012915D10125058058
:1010800012E007CA104B01F0AFF80DE02B78697839
:1010900041EA03210A204143116005E0697811719A
:1010A00002E0012400E00224204632BD4418002062
:1010B000F0140020F00C0020101B0020FC1B00206E
:1010C0000008004800000020009C00080120704734
:1010D000012070470000000000000000BC53000821
:1010E0004D0F00080000000000000000000100009B
:1010F0000000000000000000D4530008CD0F0008DD
:1011000000000000000000000001000000000000DE
:10111000000000007047704701484068704700BFFA
:10112000C800002010B5044610460A460146204675
:1011300001F048F9204610BD38B501F04DF900F036
:1011400034F801F05BF901F0B1F9FFF7A1FCFFF70A
:10115000E8FC01F0C3F901F01DFA01F075FA01F0A5
:10116000A8FA324C324D2946204601F058F8216841
:10117000A9B90120002108430CD04FF4E13002212D
:101180000022206021712281E2802B4694E8070032
:1011900001F02AF8FFF7B6FE00F028FCFEE7002079
:1011A00011F1010FE6D10121E5E780B59EB02822BB
:1011B000002105A8FFF7B6FF142200216846FFF7BB
:1011C000B1FF3C2200210FA8FFF7ACFF4FF48031A4
:1011D0000022069107920D910120059009900222AC
:1011E0004FF4A0110C920E9105A800F025F90221F0
:1011F00001910F204FF48061009000220391029230
:1012000004920221684600F09FFA012100220F910A
:1012100011920FA801F0A4FA1FB000BD00680549A3
:10122000884208BF01F076BB704700000000002034
:10123000009C000800140040704730B4002513E003
:1012400050F8042BD30744BFA9F101039A18091FD2
:10125000042942F8045BFAD213468C0744BF158078
:101260009B1CC90748BF1D7050F8041B0029E7D11B
:1012700030BC70472DE9F84F0027684A684B4FF0A3
:101280000F0805460E4634E0664CA54214BF0524FF
:1012900004248C40644944EA0E0441F82C40C143C4
:1012A000146801EA040C7468E40348BF40EA0C0CBB
:1012B000C2F800C0546801EA040C7468A40348BF73
:1012C00040EA0C0CC2F804C0946801EA040C74688B
:1012D000E40248BF40EA0C0CC2F808C0D46801EA36
:1012E000040C7168890248BF40EA0C0CC2F80CC0BB
:1012F0007F1C316831FA07F000F089800124BC407E
:1013000014EA0100F4D04FEA470C032101FA0CF172
:101310006FEA010E716801F00309B9F1010F1CBFFA
:1013200001F00301022912D1A968D6F80C900EEA47
:10133000010109FA0CF949EA0101A960696821EA89
:1013400004047168C1F30011B9400C436C60B9002A
:10135000347904F00304032C21D0EC68D6F808900B
:101360000EEA040409FA0CF949EA0404EC60347941
:1013700004F00304022C12D1FC0805EB840401F0F4
:101380001C09D4F820A008FA09FB2AEA0B0AD6F8AF
:1013900010B00BFA09F949EA0A09C4F820902C6840
:1013A0000EEA040E347904F0030404FA0CF444EA5F
:1013B0000E042C60746814F4403F99D01C6844F00B
:1013C00001041C604FEA970C1C6804F001040094AF
:1013D00001F00C01009C144C54F82C4008FA01FE5A
:1013E00024EA0E0EB5F1904F08BF00240ED00F4C2A
:1013F000A54208BF012409D00D4CA54208BF022414
:1014000004D00C4CA5427FF43FAF032441E7BDE874
:10141000F18F0AB181617047816270470004014019
:101420001810024000100048080001400004004865
:1014300000080048000C00482DE9F843040019D0CA
:101440002078DFF8A854C10716D5686800F00C00B2
:1014500004280AD0686800F00C00082802BF6868F9
:1014600000F48030B0F5803F41D100F0E6F918B1CA
:101470006068002800F05F812078DFF880648107D1
:101480001BD5686810F00C0F07D0686800F00C00DE
:1014900008286CD16868C10369D42868C0F340008B
:1014A00000281CBF2069012840F045812968606937
:1014B00021F0F80141EAC00129602178080740F1D4
:1014C0008C80A069DFF83814002878D001220A60E7
:1014D000FFF722FE0746686AC0F3400000287CD16F
:1014E000FFF71AFEC01B0228F5D9032026E1606829
:1014F000B0F5803F04D1286840F48030286014E0C3
:1015000008B928680AE0B0F5A02F286806D140F491
:1015100080202860296841F4803105E020F4803083
:101520002860296821F480212960E86AA1680009FF
:1015300041EA0010E862606860B1FFF7EDFD064621
:1015400000F07BF9002897D1FFF7E6FD801B6528A6
:10155000F6D3CAE7FFF7E0FD064600F06EF9002873
:101560008AD0FFF7D9FD801B6528F6D3BDE7206937
:10157000B0B101213160FFF7CFFD07462868C0F305
:10158000400028B9FFF7C8FDC01B0228F6D9ACE718
:101590002868616920F0F80040EAC10028608CE703
:1015A0003060FFF7B9FD07462868C0F34000002807
:1015B00083D0FFF7B1FDC01B0228F5D995E708607D
:1015C000FFF7AAFD0746686AC0F3400028B1FFF79D
:1015D000A3FDC01B0228F6D987E72078410763D511
:1015E000E8690027C10009D4E86940F08050E8614B
:1015F0000127E86900F0805000900098DFF804832C
:10160000D8F80000C10513D4D8F8000040F4807069
:10161000C8F80000FFF780FD8146D8F80000C1053A
:1016200006D4FFF779FDA0EB09006528F5D35CE748
:10163000E068012808D008B9286A09E00528286A66
:1016400006D140F004002862286A40F0010005E05D
:10165000400840002862286A20F00400286241F215
:101660008938E06868B1FFF757FD8146286AC0F302
:101670004000A0B9FFF750FDA0EB09004045F5D3AD
:1016800033E7FFF749FD8146286AC0F3400030B1D7
:10169000FFF742FDA0EB09004045F5D325E71FB158
:1016A000E86920F08050E861E069002845D0696869
:1016B00001F00C01082931D0022822D100F040F8B5
:1016C00007462868C0F3406028B1FFF725FDC01B1E
:1016D0000228F6D909E76868616A226A20F4741062
:1016E000084310436860012000F02BF80446286886
:1016F000C0F3406008BBFFF70FFD001B0228F6D9BE
:10170000F3E600F01DF804462868C0F34060A0B17D
:10171000FFF702FD001B0228F6D9E6E601280AD0F1
:101720006868226A00F48031914202BF00F47010B0
:10173000616A884201D0012000E00020BDE8F28308
:1017400000203066FFF7E8BC2DE9F0410400884630
:1017500043D06D4E00F06CF802D200F064F83CD13A
:101760002078624D810705D56A68A06822F0F002F2
:1017700002436A602178C80727D56168012902D130
:1017800000F05BF804E00229286803D1C0F3406050
:1017900018B922E0C0F34000F8B16868800841EA57
:1017A00080016960FFF7B8FC07466868616800F06F
:1017B0000C00B0EB810F08D0FFF7AEFCC01B41F26C
:1017C00089318842F1D303202BE0306800F0070014
:1017D000804504D200F027F801D0012021E02078D4
:1017E000410705D56A68E06822F4E06202436A6056
:1017F0002178080706D56968206921F4605141EA1B
:10180000C001696000F01EF86A684049384BC2F3B5
:101810000312895CC84018603748006801F082F8FC
:101820000020BDE8F0813168C90848EAC101316093
:10183000306800F00700404570472868C0F340401A
:101840007047000030B532490A6802F00C000428E5
:1018500002D0082802D017E02E4830BD30A0C2F3D5
:101860008343D203C05C896A0BD500BF30A4294BE7
:1018700001F00F01615CB3FBF1F5014628464843D6
:1018800030BD254A504330BD1A4830BD1848006865
:10189000704717481E4A006813682049C3F30222A4
:1018A00006E013481A4A006813681C49C3F3C222B1
:1018B000895CC840704710B50F220260144A136853
:1018C00003F003034360146804F0F00484601368B9
:1018D00003F4E063C3601268D20802F4E0620261BC
:1018E0000948026802F007020A6010BD00100240B9
:1018F000D400002000127A00D000002000004242F4
:101900008004424200700040002002403053000832
:10191000041002408096980000093D00DC53000846
:1019200002030405060708090A0B0C0D0E0F101020
:101930000102030405060708090A0B0C0D0E0F101F
:1019400010B5044600F01EFC0A20206200214FF46E
:101950008050E084A18400202063606340F6B831A9
:10196000A162204610BD38B50546E88C298B884217
:1019700005F12C0411D2606810B9FFF7CDFB60604F
:10198000FFF7CAFB6168401AA0602A6A904207D339
:10199000012000212070616002E000202070606062
:1019A000207832BD70B5044600200D46A0836083C8
:1019B000002607E02988204600F0E5FB012000F022
:1019C00049F8761CA06A8642F4D3A18B608BE1842F
:1019D000A08470BD90F82C007047008B7047000009
:1019E00001460020842918BFC81C704780B501F04B
:1019F000E0F8002002BD38B5044684B060690028D4
:101A00001CBFA06900280D4612D0B4F90800FFF7EA
:101A1000E7FFA16902912B46626901920090226959
:101A20002168606800F0BAFF0390039805B030BDEC
:101A3000B4F90800FFF7D4FF03A9019100902B46E9
:101A400022692168606892B200F0D6FF0128ECD0CC
:101A50000020EBE780B500B9012001F08BF80020F1
:101A600002BD1CB543684BB1012917D10324009472
:101A700000220021012001F0F7FB16BD01290DD144
:101A800003220021012001F01EFC040004D00023E9
:101A90000022002101F041FC204616BD002016BDA9
:101AA00080B50022009208B9802002BD11F1010F1B
:101AB00008BF4FF0FF3200F014F859B16A46002118
:101AC00001F0B6FD01280AD1009808B100F02AF80B
:101AD000002002BD114601F0FCFC0128F8D0FF20D7
:101AE00002BD01D001B10A46EFF3058170471CB574
:101AF00000240094EFF3058149B1694601F0A2FC8E
:101B000001280DD1009848B100F00CF806E0002340
:101B1000002201F002FC012818BFFF24204616BD58
:101B2000FF2016BDDFF810004FF080510160BFF3B9
:101B30004F8FBFF36F8F704704ED00E04AB1000094
:101B400011F8013B521E00F8013B1CBF11F8013B8C
:101B5000F8E7704738B5040001D1012032BD00F02C
:101B600087F818B900F072F900F0D6FD5EE090F841
:101B70003D10012901D001207047022180F83D105D
:101B80000168CA6842F00102CA600168DFF8C80053
:101B9000814218BFB1F1804F0FD0DFF8C000814201
:101BA0001CBFDFF8BC20914207D0DFF8B8008142AB
:101BB0001CBFDFF8B42091420DD18A68DFF8AC0079
:101BC0000240062A18BFB2F5803F08D0086840F0EE
:101BD0000100086003E00A6842F001020A60002088
:101BE00070470168CA6852085200CA6041F2111376
:101BF00001680A6A1A4202BF0A6A40F244431A4262
:101C000003D10A68520852000A60012180F83D1091
:101C10000020704738B5040001D1012032BD00F02A
:101C200027F818B900F012F900F065FD022068707D
:101C3000211D206800F00EF901202873A870E870BB
:101C400028716871A871E87128726872A872E872C8
:101C50006870002032BD0000002C014000040040EC
:101C6000000800400034014000400140070001002E
:101C700004F13C056878704710B504462068016996
:101C80008A0715D5C1688A0712D56FF00201016174
:101C900001222277806910F0030F204602D001F064
:101CA00099FD03E001F097FD00F094F80020207703
:101CB000206801694A0715D5C1684A0712D56FF037
:101CC0000401016102222277806910F4407F2046DE
:101CD00002D001F07FFD03E001F07DFD00F07AF815
:101CE00000202077206801690A0715D5C1680A0716
:101CF00012D56FF00801016104222277C06910F04B
:101D0000030F204602D001F065FD03E001F063FD02
:101D100000F060F80020207720680169CA0615D518
:101D2000C168CA0612D56FF010010161082222773E
:101D3000C06910F4407F204602D001F04BFD03E063
:101D400001F049FD00F046F8002020772068016985
:101D5000CA0708D5C168CA0705D56FF0010101613E
:101D60002046FFF75BFA206801690A0608D5C168BA
:101D70000A0605D56FF080010161204601F02CFDB7
:101D800020680169CA0508D5C1680A0605D56FF43F
:101D900080710161204601F020FD206801694A063A
:101DA00008D5C1684A0605D56FF04001016120469B
:101DB00001F014FD206801698A060AD5C1688A0607
:101DC00007D56FF0200101612046BDE8104001F009
:101DD00006BD10BD204601F003BD38B50446002500
:101DE00094F83C00012801D1022032BD012084F882
:101DF0003C0052B1042A0CD0082A0ED00C2A10D074
:101E0000102A12D0142A14D017E0206800F072F8BB
:101E100014E0206800F0AFF810E0206800F0E4F86B
:101E20000CE0206800F018F908E0206800F03BF9A9
:101E300004E0206800F061F900E0012500F001F8FD
:101E400032BD002084F83C002846704700212970EC
:101E5000204670472DE9F041DFF8FC72D0F800C051
:101E6000DFF8F832DFF8F842DFF8F852DFF8F8620E
:101E7000DFF8F8E2DFF8F882B84218BFB0F1804F1F
:101E800004D040451CBF7045B0420DD14A68B842ED
:101E90002CF0700C18BFB0F1804F42EA0C0C0BD044
:101EA000404518BF704507D0B04218BFA84203D0C4
:101EB000A04218BF984204D1CA682CF4407C42EA80
:101EC0000C0C4A692CF0800C42EA0C020260B84209
:101ED0008A68C26218BFB0420A68826204D0A8420F
:101EE0001CBFA042984201D10969016301224261ED
:101EF000BDE8F0812DE9F041026ADFF85C82DFF88D
:101F000068E2DFF85C72DFF85CC2520852000262DD
:101F1000066A44688569DFF85C220B6826F00206D1
:101F200015408A6816431D43404518BF70458B4BCA
:101F300004D060451CBFB84298420DD1CA6826F053
:101F400008061643404518BF704526F0040605D024
:101F5000604518BFB84201D0984205D14B698A69E3
:101F600024F440741C431443446085614968416310
:101F70000662BDE8F081F0B5026A22F0100202624A
:101F8000056A436884697C4A0E6814408A6844EA9A
:101F9000062425F0200545EA02156F4E724AB0422C
:101FA00018BF904208D1CF6825F0800545EA071593
:101FB000B04225F040050AD090421CBF694A9042C9
:101FC00005D0674EB0421CBF644A904206D14E69AC
:101FD0008A6923F44063164343EA860343608461BD
:101FE000496881630562F0BDF0B5026A614B22F475
:101FF00080720262066A4468C5690A6826F400763F
:102000001D408B6846EA03261543534B564A9842B7
:1020100018BF904208D1CF6826F4006646EA07262A
:10202000984226F480660AD090421CBF4D4A9042E6
:1020300005D04B4B98421CBF484A904206D14B6991
:102040008A6924F44054134344EA03144460C5618C
:102050004968C1630662F0BD70B5026A22F480521D
:102060000262036A4468C569434A00F06DF823F4CC
:10207000005343EA0233B0421CBF3B4A904207D0B0
:10208000384EB0421FBF364A9042344EB04204D15F
:102090004A6924F4804444EA82144460C561496872
:1020A0000164036270BD70B5026A344B22F4803261
:1020B0000262046A4568466D0A681E4016438B68D2
:1020C000254A24F4003444EA034490421CBF264BC2
:1020D000984207D0234A90421FBF214B98421F4A83
:1020E000904204D14A6925F4803545EA02254560CD
:1020F000466549688165046270BD70B5026A22F464
:1021000080120262036A4468456D1D4A00F01CF8A3
:1021100023F4001343EA0253B0421CBF124A904218
:1021200007D0104EB0421FBF0D4A90420B4EB04236
:1021300004D14A6924F4802444EA82244460456539
:102140004968C165036270BD0E68154045EA062501
:102150008A68014E70470000002C01400048014091
:1021600000440140004001400034014000080040AC
:10217000000400408CFFFEFFFF8CFFFE8FFFFEFF80
:10218000FF8FFFFE25E010B5C18200220021D3B2EF
:1021900030F81330521CC918D4B20C2CF7DB0C22C7
:1021A000B1FBF2F1002200EB42035C8820F8124000
:1021B000521C0C2AF7DB0183828B018B914238BFC2
:1021C00011468183428B018B914288BF1146418326
:1021D00010BD10B50446182101F004FB0020208337
:1021E0006083A083204610BD77B5264D2649274839
:1021F00081B0296028601C46204600F019F80026AE
:1022000001A850F8261004EB860000F023F8761C95
:10221000032EF5D3E86840F08000E8607FBD00221F
:1022200051F8223040F82230521C032AF8D370476C
:1022300017494A6842F002024A608860486840F0E4
:10224000400048600868C007FCD44A6822F00202D7
:102250004A6070470E4A536843F0010353601368A5
:10226000DB07FCD401801368DB07FCD4090C20F8E1
:10227000021F1068C007FCD451684908490051602A
:10228000704700000420024023016745AB89EFCD71
:102290000C20024070B514461A460B0023D0F829D2
:1022A00021DA3F4D2970F0B93E483F49049B3F4E2B
:1022B000E86029616E623E483E49A860696100207D
:1022C000A8613D493D482862E9612146287801F02E
:1022D0008DFA040008D101F0C9FB00280EBF0324C9
:1022E0000120687000E00224204670BD38B52C4DF6
:1022F00068780024012803D1E86880476C7000E00A
:102300000624204632BD7CB5254C607808B10620F5
:1023100076BD684601F0B5FB01283ED19DF800006E
:10232000012802D0022811D037E06369221D04F190
:102330002801A01C984780BBA0782178884218BF4C
:1023400000282AD1022001F096FB26E0A26A1C4E4A
:102350001378E3700120002516F8351059B1994221
:1023600003D06D1C102DF7DB05E01046321D211D3A
:1023700052F835309847A17879B1010008D0E1785A
:10238000A26A41F080011170A16A48700220A08009
:10239000A288A16A2078A3689847002076BD000033
:1023A0000C000020273800083D380008BD3900081F
:1023B000A738000851380008F938000859390008D2
:1023C000380000204018491C1CBFB1F1010100F881
:1023D000012DF9D17047000080B50748016841F030
:1023E00010010160032001F066FB002000F09AFA62
:1023F00001F0A0FB002002BD0020024038B586B0ED
:102400001422002101A8FEF78DFE2148214D01680C
:10241000214C41F400210160026802F40022009284
:102420000099026842F480020260036803F48003AA
:1024300000930099026842F400320260036803F4DA
:10244000003300930099026842F480220260002267
:10245000006800F4802000904FF460410098284606
:10246000FEF7D7FF00224FF480512046FEF7D1FF40
:102470004FF4604100F012F82846FEF7FBFE4FF4DF
:10248000805100F00BF82046FEF7F4FE07B030BD97
:102490001410024000080048000400480191012285
:1024A000002103910491029201A9704780B50A4866
:1024B000016841F0010101600022006800F00100A4
:1024C0000090052100980B2001F002FBBDE80240BE
:1024D0000B2001F01ABB00BF1410024080B5294840
:1024E000294901604FF482724FF4E061C16042609B
:1024F0001821C16100230721C1624FF40072082135
:1025000083600361436182610362436283620363A8
:10251000416301F02DFB18B1BDE80140FEF78CBE10
:1025200001BD10B586B004461422002101A8FEF7B3
:10253000F9FD21681448814221D11448816841F491
:1025400080418160816801F48041009100990268B6
:1025500042F4802202604FF46041006800F4802061
:102560000090022200980A480191029200210391F2
:10257000032205210591049201A9FEF77BFE06B016
:1025800010BD0000AC1A00200038004014100240BA
:102590000004004880B52948294901604FF4E13220
:1025A0000C21426041610023002200218360C3604E
:1025B00002618261C1610262416201F053FB18B1A4
:1025C000BDE80140FEF738BE01BD10B586B0044637
:1025D0001422002101A8FEF7A5FD216818488142B8
:1025E0002AD11848416841F480414160416801F4B2
:1025F000804100910099026842F4003202604FF479
:10260000B051006800F4003000900222009801915F
:10261000029200210391032207210591049201A94E
:102620004FF09040FEF726FE00220521252001F004
:102630004FFA252001F069FA06B010BD281A0020D3
:10264000003801401410024010B58AB000F04EF876
:102650001C22002103A8FEF765FD3C4C3C4820608D
:10266000452140F2E7300022E0606160A260226113
:10267000A2612046FFF7CEFA08B1FEF7DDFD20216A
:102680000091002202926946204601F035FB08B114
:10269000FEF7D2FD002103910022059104920792DA
:1026A00003A92046FFF799FB08B1FEF7C5FD0AB064
:1026B00010BD1FB500F01AF8264C274820604521B0
:1026C00000226160A260E260A2612046FFF742FA48
:1026D00008B1FEF7B1FD0021009102912046694644
:1026E00001F00AFB08B1FEF7A7FD1FBD0C22002177
:1026F0006846FEF717BD81B000681549884209D1C8
:102700001648026842F002020260006800F002000F
:102710000090009801B0704700680F49884200D0CF
:10272000704780B50D48026842F010020260002236
:10273000006800F01000009005210098362001F09C
:10274000C7F9BDE80240362001F0DFB9FC1B0020CC
:1027500000040040481C0020001000401C100240F3
:102760002DE9FC41054600242868DFF89C61C1037F
:1027700052D5B069C10009D4B06940F08050B06151
:102780000124B06900F0805000900098DFF87C715F
:102790003868C10511D4386840F480703860FEF79D
:1027A000BBFC80463868C10507D4FEF7B5FCA0EB3A
:1027B00008006528F6D30320A4E0F06910F4407007
:1027C0001EBF696801F4407188421AD0DFF84011D9
:1027D000F06901220A60002320F440700B60F06170
:1027E000C0070ED5FEF798FC0746F069C0F340001D
:1027F00038B9FEF791FCC01B41F289318842F4D30D
:10280000D9E7F269686822F440720243F2611CB1B0
:10281000B06920F08050B0612878C10705D5F26A10
:10282000A868920840EA8202F2622978880705D5F2
:10283000F16AE86821F440310143F16229784807E0
:1028400005D5F16A286921F440210143F162297814
:10285000880605D5F16AE86921F010010143F162AB
:102860002968880305D53168A86B21F480010143EC
:1028700031602978480605D5F16A286A21F02001DF
:102880000143F1622978080705D5F16A686921F4E6
:1028900040110143F1622978C80605D5F16AA8699B
:1028A00021F440010143F1622968880505D53168AA
:1028B000E86A21F40001014331602978080605D552
:1028C000B16A686A21F4F8710143B1622968C805E8
:1028D00005D5B16AA86A21F478510143B16229682B
:1028E000C80405D5F16A286B21F480710143F162B7
:1028F0002968880405D5F16A686B21F400710143E9
:10290000F1620020BDE8F681041002400070004032
:10291000400442420248416802788A184260704787
:10292000C800002018B5014687B00022372001F00A
:10293000CFF8372001F0E9F81448154C016841F050
:102940002001016001A9006800F0200000900098BB
:1029500002A8FEF7B0FFFEF79CFF0E49216040F28F
:10296000E73240000C49E260B0FBF1F0401E6060CD
:1029700000222261A2602046FFF7ECF818B9204639
:10298000FFF7F5F800E0012008B010BD1C10024070
:10299000B01B00200014004040420F00F0B585B08D
:1029A00050260B9D25B986F3118800F02BFAFEE71F
:1029B0000C9C24B986F3118800F024FAFEE7542712
:1029C0000097009F542F04D086F3118800F01AFA64
:1029D000FEE725630026022584F8515004AF0A9DC6
:1029E000039602940197009500F034F8204600F019
:1029F0006DF8049805B0F0BD2DE9F843064617467A
:102A000084B088469946B80001F0BCF905001CD096
:102A1000542001F0B7F9040014D00020256384F895
:102A20005100039002940D980C99019000914B462F
:102A30003A464146304600F00DF8204600F046F890
:102A4000012004E0284601F026FA4FF0FF3005B0DF
:102A5000BDE8F0832DE9F0470A9E8146306B00EB1C
:102A60008202101FC0084FEAC00A00228C5CB01816
:102A700080F83440885C10B1521C102AF6D3089DAF
:102A8000002086F84300062D099C88BF062506F124
:102A90004407F5623D6078609846301D01F059FAB0
:102AA00006F1180001F055FA3661C5F10705B56168
:102AB00076620020B860387342464946504601F0BD
:102AC00085FA306004B12660BDE8F0872DE9F04159
:102AD00000F067F8DFF88056DFF89486E86C401C59
:102AE000E8641426A86A28BBAC62E86C012829D1E6
:102AF000002706FB07F0404401F01EFA7F1C072F59
:102B0000F7D305F1740001F017FA05F1880738468C
:102B100001F012FA284601F00FFA05F1140001F055
:102B20000BFA05F1380001F007FA05F17400E862CC
:102B30002F6307E0A86D28B9E06AA96ACA6A9042C3
:102B400028BFAC62A86E401CA86600F0EFFA4643AE
:102B5000211D08EB060001F0FFF901F0C4FAA86D91
:102B600030B100F07DF903D200F0FBFA00F04AF931
:102B7000BDE8F08180B588B1DFF8DC25116F21B1A7
:102B800000F041F800F03EF9FEE7116F491C1167B3
:102B9000002100F0EFFA00F040F808B900F02DF93C
:102BA00001BD044601F086BA211D14204243981845
:102BB000704780B586B000210591049103AA04A94D
:102BC00005A8FEF797F90598049902900022009253
:102BD00001910023039A0FF210610FF20D30FFF7FD
:102BE000DDFE70B100F00FF800F00CF9DFF8E80539
:102BF0004FF0FF31C166012282650021016501F0BD
:102C000007FA07B000BD502080F311887047DFF845
:102C1000C805016F491C0167704770B5DFF838655A
:102C2000306F0024002520B900F043F800F0EAF8E6
:102C3000FEE701F03FFA306F401E3067306F00282A
:102C400036D1F06CD8B933E0F068C46800F035F8DC
:102C500000F0D9F9E06A716DDFF878350122824021
:102C60001143716514225043211D184401F074F979
:102C7000E06AB16ACA6A904224BF012131663068B5
:102C80000028E1D10CB100F067F9F46D3CB100F01F
:102C900018F808B101203066641EF8D1F565306E71
:102CA00030B1DFF838154FF08050012500F0A9F859
:102CB0004DE2502181F31188704704F1180001F0B2
:102CC00071B92DE9F843DFF89074386F00260028B9
:102CD0004ED13C6D641C3C6510D1F86A006820B18F
:102CE000FFF7E7FF00F08EF8FEE7F86A396BF9624C
:102CF0003863786E401C786600F02EF9F86EDFF8C5
:102D0000D49484424FF0140828D31AE0281D01F00F
:102D100049F9A86A18B105F1180001F043F9E86A09
:102D2000796D012282401143796508FB00F0291D6D
:102D3000484401F011F9E86AB96ACA6A904228BFAA
:102D40000126F86A006830B1F86AC168CD68686821
:102D50008442DBD201E04FF0FF30F866B86AC06A07
:102D600008FB00F059F80010022904D3012602E004
:102D7000F86D401CF865386E00B10126EEE1DFF811
:102D8000D823106F10B1012111667047106614210D
:102D9000506DB0FA80F3C3F11F034B43DFF83414D6
:102DA000C85838B9502181F31188BFF34F8FBFF352
:102DB0006F8FFEE7C81800F1080341684968416059
:102DC000994204BF496841604068C1689162704798
:102DD00010B50C4620B9FFF716FF00F013F8FEE718
:102DE000DFF87423936A03F1180101F0C2F820465A
:102DF000BDE81040FFE70121BCE1DFF8E0134FF030
:102E000080500860BFF34F8FBFF36F8F704738B5A6
:102E1000C068C46824B9FFF7F6FEFFF7F3FFFEE7CA
:102E2000FFF74BFFDFF83053286F60B900F0EBF885
:102E3000E26A686DDFF89C330121914008436865C0
:102E4000FFF7B2FE02E004F11801284601F084F811
:102E500000F006F802D20120286632BD002032BD03
:102E6000A86AC16AE06A81427047DFF86C134A6E53
:102E70000260096D41607047F8B504460D46502068
:102E800024B980F31188FFF7BDFFFEE725B980F371
:102E90001188FFF7B7FFFEE701F00CF9DFF8380300
:102EA000016D62682E688B1A16F1010F0ED0476E05
:102EB000D4F800C0674501D091420BD2B34207D28B
:102EC000F31A2B60416E2160006D6060002402E007
:102ED00000202860012401F006F92046F2BDDFF849
:102EE000F81201200866704770B5DFF88442DFF8F9
:102EF000E85211E001F0DEF8286AC668301D01F0E2
:102F000051F8E86C401EE864686B401E686301F08D
:102F1000EAF8304600F009F8686B0028EAD1216829
:102F20000229F9D3FFF769FFF6E710B5044694F8D4
:102F3000510040B9206B00F0AEFF2046BDE81040C4
:102F400000F0A9BF10BD0128F7D00228FAD0FFF782
:102F50005AFEFFF757FFFEE77F49C86A006810B9BD
:102F60004FF0FF3203E0C86AC268D0684268CA66A0
:102F70007047DFF86412886D08B901207047086F48
:102F800008B902207047002070472DE9F04104463F
:102F90000020002C35D0704DE16AAA6AD36A9942AC
:102FA00029D2A069002804D4A86AC16AC1F1070126
:102FB000A1611427E16ADFF81C826069794341440A
:102FC000884214D100F01FF80126002801BFE16AF1
:102FD00007FB01F258F80200002800F05BF8A86A2D
:102FE000C06AE0628640696D00F04CF808E0A86AAB
:102FF000C16AE16204E0616CAA6AD36A994200D2B4
:103000000120BDE8F081201D00F0CCBF2DE9F0418A
:1030100004460021002C32D04F4DA86A5022844231
:1030200004D082F31188FFF7EDFEFEE7A06C20B913
:1030300082F31188FFF7E6FEFEE7E26A636C401E4A
:103040009A42A0641BD0D0B9FFF7DDFF01261427F8
:10305000DFF88081002801BFE16A07FB01F258F820
:103060000200002800F016F8606CE062C0F1070072
:10307000A061E06A696D864000F004F8012108460D
:10308000BDE8F0810E4347436E65211D08EB070044
:1030900000F062BF05D1686D06FA01F120EA010176
:1030A00069657047F8B504003FD0A06C502220B984
:1030B00082F31188FFF7A6FEFEE7636C994238BFE2
:1030C0001946E36A8B4230D001282ED1224DA86ADE
:1030D000844204D182F31188FFF794FEFEE7A069D1
:1030E000DFF8F060E16200285CBFC1F10701A16177
:1030F000142761697B43F218914216D1FFF783FFD1
:10310000002801BFE16A07FB01F2B058002806D190
:10311000686D012202FA01F120EA0101696500F0FF
:1031200005F84743211DF0195AE0F1BD0122E06A7C
:10313000696D8240114369657047DFF89C10886AA9
:1031400018B1886A826C521C8264886A704700F0E9
:10315000CAFF284670BD0000001900203046BDE8B7
:10316000F2831E4A4FF0805111607047000000004A
:103170009C190020F8B5184D2F6D0C46A96A06461B
:10318000081D00F00FFF30B9A86A696DC06A0122FE
:1031900082409143696516F1010F05D124B1A86AF7
:1031A000011D05F138001BE0A86AF6194660BE4211
:1031B000A86A05D2011D286BBDE8F44000F0D9BE15
:1031C000011DE86A00F0D5FEE86E864238BFEE6663
:1031D000F1BD00009C1900200019002004ED00E062
:1031E000BDE8F44000F0B8BE49444C450000000082
:1031F00038B504000D4602D100F05BFAFEE700F09E
:1032000059FFE26B206C21684243881860600021FE
:10321000A1632068E26BA060521E206C21684243CB
:103220008818E0604FF0FF3104F1440001704170F4
:1032300075B92069A0B104F11000FFF7E8FD78B17D
:10324000DFF88C154FF08050086000F0ECF907E0D3
:1032500004F1100000F070FE04F1240000F06CFE98
:1032600000F041FF012032BD7CB51C46502320B93F
:1032700083F3118800F0D7F9FEE724B983F31188AE
:1032800000F0D1F9FEE72AB129B983F3118800F0E3
:10329000CAF9FEE769B948250095009E482E0DD170
:1032A000069B012584F84650009400F02BF8204638
:1032B00076BD83F3118800F0B6F9FEE783F3118839
:1032C00000F0B1F9FEE7F8B506000D46174602D149
:1032D00000F0EFF9FEE7002D0EBF482005FB06F0D9
:1032E000483000F04FFD04000AD0002084F846006A
:1032F00000943B4604F148022946304600F002F8AB
:103300002046F2BD82B0029B01B91A461A60D8630A
:1033100019641846012102B06AE72DE9F64782B028
:1033200004461E46502714B900F07BF9FEE75FEA19
:10333000010A01D1206C60B9022E02D1E06B012894
:103340000AD1FFF716FE50B9039840B100F069F9B1
:10335000FEE700F066F9FEE700F063F9FEE72746B6
:10336000002400F0B1F82EE0039800284BD014B9E7
:1033700000F052F9012400F0B6FEFFF748FC00F01F
:1033800099FE07F1440000F03DF904BF00220270ED
:1033900000F03DF904BF0022427000F0A4FE00F0EE
:1033A0004DF8002844D100F085FEB86BF96B8842D7
:1033B00014BF0025012500F096FE45BB384600F0FD
:1033C000C8F9FFF72AFC00F075FEB86BF96B88426C
:1033D00001D3022EC8D132465146384600F071F969
:1033E000796A29B107F12400FFF711FD08B904E05B
:1033F00018B1C8F8009000F016F900F074FE012032
:1034000004B0BDE8F08700F06EFE0020F8E70399F5
:1034100007F11000FFF7DCFC384600F09AF9FFF7DF
:10342000FCFB0028CFD1C8F8009000F0FCF8CAE7F8
:10343000384600F08EF9FFF7F0FBE6E703A968468F
:10344000FFF71ABDF8B504460D46502714B900F031
:10345000E8F8FEE7206C10B100F0E3F8FEE7206822
:1034600008B96068D0B900F063FEEFF3118600F090
:1034700021F81BD294F94510401C11F1010FA063F3
:103480000FD1606A80B104F12400FFF7C0FC00286E
:1034900018BF002D08D00120286005E000F0C1F819
:1034A000FEE7491C84F84510012000E0002086F367
:1034B0001188F2BD87F31188BFF34F8FBFF36F8F71
:1034C000A06BE16B88427047DFF804834FF08059AE
:1034D00070472DE9F24382B00646002400255027AC
:1034E00016B900F09EF8FEE7306C10B100F099F8C4
:1034F000FEE7FFF73EFD40B9029830B100F091F8C9
:10350000FEE700F08CF8FFF788FB00F0D3FDB06B0E
:10351000FFF7DAFF30B90298D0B9002D68D000F07B
:1035200080F8FEE7401EB063306810B9FFF705FE73
:103530007060306940B106F11000FFF768FC18B107
:10354000C8F8009000F06FF800F0CDFD012052E0C7
:1035500014B900F061F8012400F0C5FDFFF757FB36
:1035600000F0A8FD06F1440000F04CF804BF002272
:10357000027000F04CF804BF0022427000F0B3FD6E
:1035800002A9FFF75CFF002830461AD100F015F9B8
:103590000028B6D0306838B900F08CFD7068FFF7AD
:1035A000F4FC054600F09FFD00F027F800F037F826
:1035B000FFF733FB0028A8D1C8F8009000F033F8DB
:1035C000A3E700F0C6F8FFF728FB304600F0F5F857
:1035D00000289AD075B100F06DFD706A00281DBFFB
:1035E000306B0168C1F1070100217068FFF75AFDD7
:1035F00000F079FD0020BDE8FE83029906F1240069
:10360000FFF7E6BB90F9001011F1010F704790F938
:10361000011011F1010F70476846FFF726BC3046D4
:1036200097E087F31188BFF34F8FBFF36F8F704719
:103630002DE9F84304460F461546502624B986F373
:103640001188FFF7F0FFFEE70FB9206C70B900F0AA
:103650006FFDEFF3118886F31188FFF7E4FFA66B87
:103660004EB9002088F31188BDE8F28386F31188F3
:10367000FFF7D9FFFEE794F944903946204600F061
:1036800054F8761E19F1010FA6630CD1206970B1B0
:1036900004F11000FFF7BBFB002818BF002D06D077
:1036A0000120286003E009F1010084F844000120B2
:1036B000D8E7502080F31188BFF34F8FBFF36F8F8F
:1036C0007047F8B506461546B46B326C002742B910
:1036D000306830BB7068FFF799FC002107467160C5
:1036E0001FE065B9B068FEF729FAB068316C7268FE
:1036F00008449042B06014D33068B06011E0F068C4
:10370000FEF71CFA306CF16840420144F160326807
:10371000914202D271680844F060022D01D104B1D7
:10372000641E641CB4633846F2BD026C002A0B466A
:1037300000D1704710B5C16844681144C160A1420E
:1037400024BF0168C160C168BDE810401846FEF79B
:10375000F5B9F8B5054600F0ADFC05F1440494F95F
:10376000016007E005F12400FFF751FB08B1FFF706
:10377000B6FB761E70B2012802DB686A0028F1D120
:103780004FF0FF36667000F0AEFC00F093FC94F949
:10379000007007E005F11000FFF739FB08B1FFF7F3
:1037A0009EFB7F1E78B2012802DB28690028F1D138
:1037B0002670BDE8F14000F096BC10B5044600F05C
:1037C00079FCA06B441EA44100F08DFCE00F10BDFD
:1037D00004ED00E0704770477047704770477047CE
:1037E000704700000022FEF7EDBD000038B5084626
:1037F0001446002572B60822214600F0F9FC012883
:103800000DD144F6013084422FBF23207F4864004D
:10381000B0FBF4F080B200F01DFD012800D00325BC
:1038200062B6284632BD80B572B67949002048702C
:1038300000F0C0F800F032FD62B601BD80B572B68E
:103840000021002000F0BCFC00F02EFD62B601BD9E
:103850002DE9F843064689469046002472B66C4D21
:10386000A888B0F5807F06DBA1226A496BA000F032
:1038700027FDAFF30080A88804280FDB664FA988D6
:10388000384600F02FFD48B938783070781CA98888
:10389000CA1EA8F80020C9F8000000E0052462B69E
:1038A0002046BDE8F28370B5002472B6584D6B789F
:1038B000012B1CD14B1EAB6001216980187018468A
:1038C0006E8892196A80698800F00CFD69884A1C2C
:1038D0006A80514A5054000A69884B1C6B805054CE
:1038E000012101202870002000F06AFC00E005247E
:1038F00062B6204670BD00001CB5454C207830B142
:10390000EB2244494BA000F0DBFCAFF3008068469B
:1039100000F095FC61784048032914D8DFE801F0F5
:10392000110208110022A28000F00FF8022007E027
:10393000A188B1F5807F02DA00F007F801E00320EA
:10394000607000F0ABFC002016BDA1884A1CA2806C
:103950009DF800304354704738B52D4D68780024E9
:10396000012808D04FF49372DFF8A81038A000F0B7
:10397000A7FCAFF30080287810B1012803D017E02E
:1039800000F018F814E0688850B1A868007800F0DA
:103990004AFCA868411CA9606888411E698007E04C
:1039A000032000F068F8044600F004F800202870B6
:1039B000204632BD0021012000F002BC38B5144D74
:1039C0006978002421B1022904D0032918D006E027
:1039D000002000E0012000F04EF8044610E0687876
:1039E00000281FBF687802286878032808D0094992
:1039F0004FF4B07201F14C0000F062FCAFF30080B4
:103A000000F052FC01206870204632BDA07F1700F4
:103A1000001D00202C5000084417002075735263CD
:103A200076427566666572506F73203C203235367B
:103A30000000000065536E645374617465203D3D61
:103A40002053544154455F54585F49444C4500004D
:103A5000655263765374617465203D3D2053544133
:103A600054455F52585F49444C4500000A490020C4
:103A70004870012070470849087001224A700120EF
:103A80007047054B59780246002021B11878107014
:103A90000021597001207047FE1C0020090102001E
:103AA00002D41F48815470471E4B02F00F021A4483
:103AB00002F8041C70471C4B19684FF6FF02000205
:103AC000114000F4E060084318490843186070474B
:103AD00070B5154B1C68C4F302230124C3F107051C
:103AE000052D2EBF0F2504FA05F56D1E1E1D072E90
:103AF00034BF0023DB1E2940994004FA03F3BDE8DC
:103B000070405B1E1A401143C8E7010007D4012230
:103B100000F01F01064B8A40400943F820207047FF
:103B200000E400E018ED00E00CED00E00000FA0514
:103B300000E100E00D4882B0016841F00101016040
:103B4000026802F0010200920099426842F080523D
:103B500042600022406800F0805000900F210098E1
:103B60006FF0010002B0FFF7B3BF00BF18100240B2
:103B700038B5040001D1012032BD606A28B900F0D7
:103B80006DF805D00021E16102E000202061606154
:103B90000020A06204F15C05687820B9002129703A
:103BA0002046FEF7BEFC0220687000F04FF8E16886
:103BB000B1F5E06F04D90020B1F5706F03D104E0D6
:103BC0004FF4805001D00021A1626168A268237C7B
:103BD00001F4827102F404421143227D03F00203D6
:103BE0001943A36902F001021143227F03F4007319
:103BF000194394F8203002F038021143A26A03F00E
:103C000080031943236802F4005211431960A1692B
:103C100094F8242094F83430090C01F0040102F0E7
:103C200010021143E26803F00803194302F47062C2
:103C300011430843216848602068C16921F400618C
:103C4000C161002068600121697032BD206801688F
:103C500021F040010160704704460D466068B0F5F0
:103C6000827F70472DE9F04104000D4616469846C4
:103C700011D004F17407796821B90020387020460A
:103C8000FEF7A3FC2421796000F02FF8204600F015
:103C9000F9FC012801D101201FE0606A10B1204623
:103CA00000F0D2FD2068816841F480418160206885
:103CB000816821F400410D438560206801686FF33D
:103CC000194141EA465141EA0841016000F007F814
:103CD0002046BDE8F04100F01ABEBDE8F081206842
:103CE000016841F0010101607047206802685208D4
:103CF0005200026070477047F0B500F13C04227832
:103D0000012A01D10220F0BD01222270022363703A
:103D10000668DFF864E07768DFF854C0B568764578
:103D200018BF664503D14B6827F470071F430A6824
:103D300027F07007174377600268724518BFB2F129
:103D4000804F0AD00B4882421CBF0C4B9A4204D0D1
:103D500062451CBF0A48824204D1886825F080056C
:103D6000054395600121617000202070F0BD0000C6
:103D70000034014000040040002C014000080040D5
:103D8000004001402DE9F8430446FEF740FF694F2B
:103D9000B8684FF00009002508BB07F1180307F1C8
:103DA000180113F0070F4FF440600A4605D0CA1DF2
:103DB000D208D200C2F54060081880180838C00840
:103DC000C0003A607D60B86045600560831A53604A
:103DD000106050683861F8604FF0004078614FF033
:103DE00050087869044246D1002C44D0083414F0BD
:103DF000070F1FBF04F1080004F00704041B14F0B0
:103E0000070F02D000F040F8FEE7A4B3F868A04224
:103E100031D33E68394601E0314606467068A0421B
:103E200002D230680028F7D1B868864223D00A68E9
:103E30003068086002F108097268121B112A0CD35D
:103E4000311911F0070002D000F01EF8FEE7301D16
:103E500002517460084600F048F87168F8683A69E1
:103E6000401AF860904238BF386178690143716048
:103E7000356009F00705FEF7D0FE15B100F004F833
:103E8000FEE74846BDE8F28388F31188BFF34F8F01
:103E9000BFF36F8F7047002800D1704738B5A0F18D
:103EA0000804244D61686A695023114202D100F070
:103EB00015F8FEE7206810B100F010F8FEE7914316
:103EC0006160FEF7A4FEE96860684118E960204679
:103ED00000F00BF8BDE83140FEF79FBE83F3118878
:103EE000BFF34F8FBFF36F8F704730B511490A464C
:103EF00000E01A4613688342FBD35368D418844207
:103F000003D14068C3185360104643681468C5184D
:103F1000A54208D189688C4204D06168CB184360FF
:103F2000246800E00C460460824218BF106030BD77
:103F300000000000D80000204FF0FF3200F108011F
:103F400082604160C16000F10802026100210160ED
:103F5000704700210161704710B542684A6093685C
:103F60008B6094686160916008610168491C016020
:103F700010BD30B50A6812F1010F08BF036907D000
:103F800000F1080300E023465C682568AA42FAD2E3
:103F90005A684A6091608B60596008610168491CE9
:103FA000016030BD4368016982689A608368426835
:103FB0005A604A68824204BF83684B6000220261F3
:103FC0000868401E0860086870470000490810B57E
:103FD0004900A0F120034FF0807499611A60DC6100
:103FE0006FF002020FF20D01596140F8242D2038C4
:103FF00010BD00005B494A68502012F1010F80F3A8
:104000001188BFF34F8FBFF36F8F00D0FEE7FEE73D
:104010007CB5554A554B10685021984202D100F0AA
:10402000B3F8FEE71068524B984202D100F0ACF8AA
:10403000FEE7504B1C780194FF251D7007251E7864
:10404000484C8DF800609DF80000A56000F050001D
:10405000207006E0401EA0609DF8000040008DF832
:104060000000A0689DF800502E06F3D4C0F10705AB
:10407000042D02D000F088F8FEE7000200F4E060B2
:10408000A06001981870116A41F470011162106A01
:1040900040F07040106200F07FF80020606000F097
:1040A00045FD3548016841F04041016000F02EFDBA
:1040B000002076BD502080F31188BFF34F8FBFF3EF
:1040C0006F8F28494A68521C012A4A600AD12B493D
:1040D0000A68130606D080F31188BFF34F8FBFF331
:1040E0006F8FFEE770471F49486838B9502080F34A
:1040F0001188BFF34F8FBFF36F8FFEE7401E4860FC
:1041000008BF80F31188704780B5502080F3118874
:10411000BFF34F8FBFF36F8FFEF7D3FD18B1174971
:104120004FF080500860002282F3118801BD00002A
:1041300010B5EFF30580502110280A4A07D3104B21
:10414000185C1478A04202D200F01EF8FEE79068D6
:104150000C4A136803F4E063984202D200F014F8AA
:10416000FEE710BDB800002000ED00E071C20F4175
:1041700070C20F4100E400E034EF00E004ED00E025
:10418000F0E300E00CED00E081F31188BFF34F8F06
:10419000BFF36F8F704700000748084B0021016094
:1041A00081604FF47A721968B1FBF2F2521E4260DC
:1041B00007210160704700BF10E000E0D40000203C
:1041C000224A13681A6820B1106840F0200010607D
:1041D00003E0136823F02003136021B1106840F05E
:1041E000800010607047116821F0800111607047F5
:1041F0001648174A0068026041600021C1604FF410
:1042000080511BB1022B08D003D30AE0002181604A
:1042100006E081604FF4C06102E081604FF480618C
:1042200001610120704701B5084800680A23012296
:10423000694600F06FF8401E8041C00F02BD03497F
:104240000A681368998C017001207047C40000202F
:10425000003801403EB50546154C16482060FDF774
:1042600018FB1549B0FBF1F1491E00206160A06008
:1042700031211248E16005802046FDF76BFC08B152
:1042800000203EBD20210091002202926946204676
:10429000FFF732FD401E8041C00F3EBD0748018838
:1042A00041800348FDF763BC0148FDF79ABC00005C
:1042B000481C00200010004040420F000C1D002050
:1042C00000B583B00091019202906A46044918201B
:1042D000ABBE002801D100F037FC03B000BD00BF29
:1042E0001010020030B50246FF23FF20084C07E003
:1042F00012F8015B4540605D5840631993F8003146
:104300000D46691EADB2002DF2D140EA032030BD4A
:10431000684B00082DE9FC47054605F17404884602
:1043200060682028174699464DD1B8F1000F14BF98
:10433000002F012048D02078012844D0012121708D
:104340000020E0602122626005F15006FCF7E4FEE7
:10435000378082467780A868B0F5805F04BF2869FF
:1043600000280EBF474640460027002121708046A6
:104370000FE018F8012B028508E02868B8F1000F5B
:10438000F7D137F8021BC1F3080101857088411E7F
:10439000718053467088CDF80090002807D0002225
:1043A0008021284600F0E1FA0028E6D005E000224E
:1043B0004021284600F0D9FA08B1032004E020206B
:1043C0006060002000E00220BDE8F687206850E829
:1043D000001F02467047216801F1080252E8001FE1
:1043E000206800F1080321F0400143E80010002894
:1043F0007047206800F1080151E8001F490800F1EA
:104400000803490043E8001000287047F8B5044647
:1044100040F60F002368D9691A689E68084004F1C5
:1044200058050BD1880600D5970640F17D80E968D4
:10443000002978D02046BDE8F4400847F00703D4AF
:10444000DFF8E0733A426FD0C80707D5D70505D526
:1044500001201862AB6A43F00103AB62880708D5FC
:10446000F30706D5276802203862A86A40F00400E6
:10447000A862480708D5F30706D5276804203862E4
:10448000A86A40F00200A86208070AD5930601D482
:10449000F00706D5266808233362A86A40F00800B2
:1044A000A862080509D5530107D526684FF40060B6
:1044B0003062A86A40F02000A862A86A002832D0C2
:1044C000880605D5910603D5E96809B120468847D5
:1044D000A86A21688A68510602D410F0280F1DD0FE
:1044E000204600F09CFA20688168480611D5FFF745
:1044F00072FFFCD1A86960B10FF28D514163A869C8
:10450000FCF72FFC00280ED0A869416BBDE8F440F1
:1045100008472046BDE8F24000F019BB204600F0F5
:1045200016FB0020A862F1BDA86801286CD1C8065E
:104530006AD5D70668D510201862216888684106B8
:104540002DD5A9690868406880B20028EBD02A8878
:104550009042E8DA6880886920281CD0216851E8F8
:10456000001F226821F4807100F07BF8F6D1FFF77C
:1045700040FFFCD100F079F8FCD1202068620021D6
:10458000A960FFF723FF21F0100100F06AF8F8D1CD
:10459000A869FCF7C6FB29886888091A2EE02A88D2
:1045A00069886888511A00281CBF88B2002855D035
:1045B000206850E8002F034622F4907243E8002060
:1045C0000028F5D1206800F1080252E8002F5208B7
:1045D00000F10806520046E800200028F2D1202011
:1045E00068620022AA60EA60226852E8002F23680D
:1045F00022F0100243E800200028F5D12046BDE853
:10460000F44089B200F0A4BAC80209D5760207D5F1
:104610004FF4801018622046BDE8F240FFF76BBBF4
:10462000080607D5130605D52969B9B12046BDE8A6
:10463000F4400847480611D551060FD5FFF7C6FECE
:1046400021F0400100F00DF8F8D12020286200216F
:1046500029612046BDE8F24000F07BBAF1BD21F4AB
:10466000F07142E8001000287047206800F108014E
:1046700051E8001F00F1080321F0400143E8001059
:104680000028704770B50446674822681368A1681F
:10469000034020690B4361690343E0690B43034313
:1046A000136000255168E06821F4405101435160D6
:1046B0009368A169206A23F430630B435B49034389
:1046C0008A4293605A480AD1006800F00300032828
:1046D00015D8DFE800F00261754E012110E0554960
:1046E0008A4236D1006810F4403067D0B0F5803F80
:1046F00052D0B0F5003F63D0B0F5403F39D0102123
:10470000E3694D48B3F5004F4FF6F0764FF40042A1
:1047100060D141B1012955D0022908D0042954D0D3
:10472000082955D078E0FDF7B4F8002875D0616805
:104730004A0802EB4002B2FBF1F080B2A0F1100196
:10474000B14269D20640C0F3420006432068C66009
:1047500063E03A498A420ED1006810F440202DD01F
:10476000B0F5802F18D0B0F5002F29D0B0F5402F2C
:10477000C5D10221C4E732498A420FD1006810F442
:1047800040101BD0B0F5801F06D0B0F5001F17D029
:10479000B0F5401FEDD0B2E70421B1E729498A42C4
:1047A000ADD1006810F4400008D0B0F5800FF3D010
:1047B000B0F5000F04D0B0F5400FEBE700219FE704
:1047C00008219DE7FDF76DF8AFE7FDF73BF8ACE793
:1047D0001046ACE741B1012916D0022907D00429BF
:1047E00015D0082916D017E0FDF753F8A8B1616875
:1047F00000EB5100B0FBF1F080B2A0F11001B1422A
:104800000AD22268D06008E0FDF74BF8EEE7FDF72A
:1048100019F8EBE71046EAE7012500206066A0667C
:10482000284670BD20010004F369FFFF00380140F5
:10483000301002400044004000127A00004800405E
:10484000004C00400050004090F82410CA0706D5E4
:1048500002685368816A23F400330B43536090F875
:1048600024108A0706D502685368C16A23F480338E
:104870000B43536090F824104A0706D5026853682A
:10488000016B23F480230B43536090F824100A0734
:1048900006D502685368416B23F400430B43536011
:1048A00090F82410CA0606D502689368816B23F439
:1048B00080530B43936090F824108A0606D5026853
:1048C0009368C16B23F400530B43936090F824105A
:1048D0004A0610D502685368016C23F480130B4319
:1048E0005360036CB3F5801F05D15368416C23F40A
:1048F000C0030B43536090F824100A0606D50168E4
:104900004A68806C22F4002202434A607047F8B57E
:10491000044604F174050020E8606FF07E47FCF760
:10492000FBFB0646206801680A0708D50097334656
:1049300000224FF40011204600F017F860B92068FB
:1049400001684A070AD50097334600224FF48001D8
:10495000204600F00AF808B10320F2BD202068606C
:10496000A860002020662870F2BD2DE9F041069C69
:1049700005460E4690461F462868C1693140B1423F
:104980000CBF01200020404528D114F1010FF3D0C5
:10499000FCF7C2FBC01B844200D34CB900F027F8DF
:1049A00000F030F8FCD100F01CF80021017013E099
:1049B000286801684A07DFD5C1690A05DCD54FF4CC
:1049C0000061016200F013F800F01CF8FCD100F067
:1049D00008F8C16000220270032000E00020BDE85A
:1049E000F08105F1740020214160816070472868E2
:1049F00050E8001F024621F4D07142E80010002860
:104A0000F5D17047286800F1080151E8001F4908F6
:104A100000F10803490043E800100028704710B572
:104A200000F010F8FCD100F017F8FCD1016E01295C
:104A300002D100F01EF8FCD12021C16700220266DD
:104A4000426610BD016851E8002F0B4622F49072B7
:104A500043E8002100297047016801F1080252E88B
:104A6000002F520801F10804520044E800210029F7
:104A70007047026852E8002F036822F0100243E8F2
:104A80000021002970470000406A00F15201002215
:104A90000A810A8000F05BB8EFF30980BFF36F8FE3
:104AA000264B1A681EF0100F08BF20ED108A20E96F
:104AB000F04F106009B44FF0500080F31188BFF33D
:104AC0004F8FBFF36F8FFEF75AF94FF0000080F35E
:104AD000118809BC19680868B0E8F04F1EF0100F83
:104AE00008BFB0EC108A80F30988BFF36F8F70475E
:104AF000124B19680868B0E8F04F80F30988BFF3DB
:104B00006F8F4FF0000080F3118870470C480068E9
:104B1000006880F308884FF0000080F3148862B6C4
:104B200061B6BFF34F8FBFF36F8F00DFDFF8140064
:104B3000016841F4700101607047000028190020ED
:104B400008ED00E088ED00E0012000F003B87047B8
:104B50007047704780B5AFF30080024A11001820FB
:104B6000ABBEFBE72600020000C1814001C08041CE
:104B700001C0804100C1814001C0804100C181402D
:104B800000C1814001C0804101C0804100C181401D
:104B900000C1814001C0804100C1814001C080410D
:104BA00001C0804100C1814001C0804100C18140FD
:104BB00000C1814001C0804100C1814001C08041ED
:104BC00001C0804100C1814000C1814001C08041DD
:104BD00001C0804100C1814001C0804100C18140CD
:104BE00000C1814001C0804101C0804100C18140BD
:104BF00000C1814001C0804100C1814001C08041AD
:104C000001C0804100C1814000C1814001C080419C
:104C100001C0804100C1814001C0804100C181408C
:104C200000C1814001C0804100C1814001C080417C
:104C300001C0804100C1814001C0804100C181406C
:104C400000C1814001C0804101C0804100C181405C
:104C500000C1814001C0804100C1814001C080414C
:104C600001C0804100C1814000C0C101C30302C234
:104C7000C60607C705C5C404CC0C0DCD0FCFCE0E9C
:104C80000ACACB0BC90908C8D81819D91BDBDA1A0C
:104C90001EDEDF1FDD1D1CDC14D4D515D71716D67C
:104CA000D21213D311D1D010F03031F133F3F232EC
:104CB00036F6F737F53534F43CFCFD3DFF3F3EFE5C
:104CC000FA3A3BFB39F9F83828E8E929EB2B2AEACC
:104CD000EE2E2FEF2DEDEC2CE42425E527E7E6263C
:104CE00022E2E323E12120E0A06061A163A3A262AC
:104CF00066A6A767A56564A46CACAD6DAF6F6EAE1C
:104D0000AA6A6BAB69A9A86878B8B979BB7B7ABA8B
:104D1000BE7E7FBF7DBDBC7CB47475B577B7B676FB
:104D200072B2B373B17170B050909151935352926B
:104D300096565797559594549C5C5D9D5F9F9E5EDB
:104D40005A9A9B5B99595898884849894B8B8A4A4B
:104D50004E8E8F4F8D4D4C8C4484854587474686BB
:104D6000824243834181804038B509880024052967
:104D700010D14578817841EA0521491C012301229F
:104D800089B2C01CFCF738F9010004D000F0AEF87D
:104D9000044600E00324204632BDF8B50D46002647
:104DA000298805291FDD41788478C27844EA0124E6
:104DB0000179641C51EA0221427914D0792912DA6E
:104DC0004F00FFB2BA420ED10A460123A1B2801DA4
:104DD000FCF712F9010003D000F088F8064603E062
:104DE0000520288000E003263046F2BDF8B50D46C8
:104DF00000262988052924D142788178047941EA5E
:104E00000221491CECB17E2C1BDA2E800323037097
:104E100062002F887F1C2F80427000232F887F1C08
:104E20002F80224689B2801CFCF7E6F8010003D0EF
:104E300000F05CF8064605E0288800EB4401298074
:104E400000E003263046F2BD2DE9F0410D4607464D
:104E500028880026092845DD7878B9783C79FA79E0
:104E600041EA002000F10108F878B97944EA002409
:104E7000787941EA0021387A40EA02207A7A491C9E
:104E80007CB37E2C2DDA60B37A282ADA4300934271
:104E900027D10246012389B207F10A00FCF7ACF8DA
:104EA000010018D12E801721397060002A88521C09
:104EB0002A80787000232988491C298022461FFAFD
:104EC00088F1B81CFCF798F8010004D1288800EBA1
:104ED0004401298006E0010004D000F007F80646EE
:104EE00000E003263046BDE8F081000048B101280B
:104EF00002D0072802D003E0022070470620704746
:104F000004207047F8B50D460026298805292AD1C6
:104F100000F083F851EA022125D0B1F5FA6F22DAC8
:104F20002E80012303708A082F887F1C2F8001EBBD
:104F30005277FF0811F0070F18BF7F1C477000233E
:104F40002A88521C2A80801C0A46A1B2FCF7BEF8AF
:104F5000010003D0FFF7CAFF064605E0288850FA93
:104F600087F0288000E003263046F2BD38B5098876
:104F70000025052921D14178847844EA012401796A
:104F8000641CD1B9C178FF2918BF002915D18DF84B
:104F90000150C078FF2806BF01218DF800108DF860
:104FA000005001230122A1B26846FCF78FF80100EE
:104FB00004D0FFF79BFF054600E00325284632BDDD
:104FC000F8B50D4600262988052923DD00F025F8CF
:104FD00041EA02218B0801EB5373DB08427911F09F
:104FE000070F18BF5B1CA9B140F2B177B94211DAC3
:104FF000DBB293420ED10A460123A1B2801DFCF719
:1050000065F8010003D0FFF771FF064603E00520B5
:10501000288000E003263046F2BD41788478C278CB
:1050200044EA01240179641C70470000443A5C4B57
:10503000696361647320536368656D5C47503259DE
:1050400030413032594B304676325C663330334330
:105050005F73656E735C4D6964646C6577617265DE
:10506000735C6D6F646275735C7274755C6D627293
:1050700074752E6300000000282065526376537417
:10508000617465203D3D2053544154455F52585F43
:10509000494E49542029207C7C2028206552637683
:1050A0005374617465203D3D2053544154455F5213
:1050B000585F5243562029207C7C2028206552636B
:1050C000765374617465203D3D2053544154455FCF
:1050D00052585F4552524F52202900007047FEE758
:1050E000FEE7FEE7FEE770471F48FBF762BE10B51C
:1050F0001E4C2068C2690168920608D5890606D54B
:105100001B480268904720680121016210BDC169F7
:105110000A0607D50068010604D516480268BDE8EE
:10512000104010472046BDE81040FFF76FB910B59A
:10513000114C20680169CA070ED5C168CA070BD592
:105140006FF0010101610D480288511E018089B292
:1051500011B90B48016888472046BDE81040FCF7AC
:105160008BBD0848FCF788BD941C0020281A00203D
:10517000280000202C000020481C00200E1D0020CC
:1051800030000020B01B0020F8B50C460025218817
:1051900005292ED141788378C27843EA0123017929
:1051A0005B1C51EA022124D0B1F5FA6F21DA258087
:1051B000022606708A08278801EB5276F6087F1CC3
:1051C00011F0070F278018BF761C46700A46278803
:1051D0007F1C278099B2801CFBF77AFF010003D067
:1051E000FFF784FE054605E0208850FA86F020800F
:1051F00000E003252846F2BDF8B50D4600262988B3
:10520000052926D142788178047941EA0221C278C1
:10521000491C54EA02241CD07D2C1ADA2E80042367
:10522000037062002F887F1C2F80427022462B88DB
:105230005B1C2B8089B2801CFBF7DBFE010003D0D6
:10524000FFF754FE064605E0288800EB440129805C
:1052500000E003263046F2BD30B50168846842188C
:10526000416802EB5103C90703D54C4401E0491CD6
:1052700005D19A420AD012F9011B12F8015B0029EC
:1052800004F8015BF3D4491EF7D5F2E70C3030BDCA
:1052900010B5074979441831064C7C44163404E0B3
:1052A0000A68081D114488470146A142F8D110BD83
:1052B0002C0000004C0000004EF68851CEF2000198
:1052C000086840F470000860BFF34F8FBFF36F8F22
:1052D0004FF00070E1EE100A704700005FBFFFFF63
:1052E000381C0000D8000020000000006DFFFFFF08
:1052F000F0010000E6000000000000204500000072
:1053000038B50C4605490D8C2A46401CFCF716FCA6
:105310006D1C2580002032BD00000000DC1C002038
:105320000248016841F470010160704788ED00E0B7
:105330000000000000000000010203040607080945
:1053400010B50446044979440E31044878440C30C1
:1053500000F006F8204610BD880100008001000022
:1053600038B504460D46AC4205D020682018804769
:10537000241DAC42F9D131BD00F00DF8002801D058
:10538000FFF786FFAFF300800020AFF30080FBF74C
:10539000D3FE00F002F80120704700F001B80000D1
:1053A00007463846FFF7D6FBFBE700000148804779
:1053B0000148004721530008C95300084D61696E38
:1053C0005461736B00000000AFF30080FFF774FFBF
:1053D000FFF7D2FF4D6F646275730000000000009C
:1053E00001020304FFF7FEBFFFF7FEBFFFF7FEBF9A
:1053F000FFF7FEBFFFF7FEBFFFF7FEBFFFF7FEBFE1
:10540000FFF7FEBFFFF7FEBFFFF7FEBFFFF7FEBFD0
:10541000FFF7FEBFFFF7FEBFFFF7FEBFFFF7FEBFC0
:10542000FFF7FEBFFFF7FEBFFFF7FEBFFFF7FEBFB0
:10543000FFF7FEBFFFF7FEBFFFF7FEBFFFF7FEBFA0
:10544000FFF7FEBFFFF7FEBFFFF7FEBFFFF7FEBF90
:10545000FFF7FEBFFFF7FEBFFFF7FEBFFFF7FEBF80
:10546000FFF7FEBFFFF7FEBFFFF7FEBFFFF7FEBF70
:10547000FFF7FEBFFFF7FEBFFFF7FEBFFFF7FEBF60
:10548000FFF7FEBFFFF7FEBFFFF7FEBFFFF7FEBF50
:10549000FFF7FEBFFFF7FEBFFFF7FEBFFFF7FEBF40
:1054A000FFF7FEBFFFF7FEBFFFF7FEBFFFF7FEBF30
:1054B000FFF7FEBFFFF7FEBFFFF7FEBFFFF7FEBF20
:1054C000FFF7FEBFFFF7FEBFFFF7FEBFFFF7FEBF10
:1054D000FFF7FEBFFFF7FEBFFFF7FEBFEDB9FFFF0F
:1054E0000400C201000EF8000002D6000011FD0009
:1054F000040153000804FD0004F951000803FD00F5
:1055000004ED4D000810FD00049B4D000806FD0051
:1055100004694D000817FD0004494E000801FD0014
:1055200004054F000805FD00046D4F00080FFD0045
:1055300004C14F000802FD000389510008CC00FCA3
:10554000AAFC0004281A002001F9000010FC000247
:03555000127A00CC
:04000005080053C9D3
:00000001FF
